{
  "address": "0x86AAE79e5BE48b7B90BE0a1d3A04A185F1A0241C",
  "abi": [
    {
      "inputs": [
        {
          "internalType": "string",
          "name": "name_",
          "type": "string"
        },
        {
          "internalType": "string",
          "name": "symbol_",
          "type": "string"
        },
        {
          "internalType": "uint256",
          "name": "chainId_",
          "type": "uint256"
        }
      ],
      "stateMutability": "nonpayable",
      "type": "constructor"
    },
    {
      "anonymous": false,
      "inputs": [
        {
          "indexed": false,
          "internalType": "address",
          "name": "account",
          "type": "address"
        }
      ],
      "name": "AddAuthorization",
      "type": "event"
    },
    {
      "anonymous": false,
      "inputs": [
        {
          "indexed": true,
          "internalType": "address",
          "name": "owner",
          "type": "address"
        },
        {
          "indexed": true,
          "internalType": "address",
          "name": "spender",
          "type": "address"
        },
        {
          "indexed": false,
          "internalType": "uint256",
          "name": "value",
          "type": "uint256"
        }
      ],
      "name": "Approval",
      "type": "event"
    },
    {
      "anonymous": false,
      "inputs": [
        {
          "indexed": false,
          "internalType": "address",
          "name": "account",
          "type": "address"
        }
      ],
      "name": "RemoveAuthorization",
      "type": "event"
    },
    {
      "anonymous": false,
      "inputs": [
        {
          "indexed": true,
          "internalType": "address",
          "name": "from",
          "type": "address"
        },
        {
          "indexed": true,
          "internalType": "address",
          "name": "to",
          "type": "address"
        },
        {
          "indexed": false,
          "internalType": "uint256",
          "name": "value",
          "type": "uint256"
        }
      ],
      "name": "Transfer",
      "type": "event"
    },
    {
      "inputs": [],
      "name": "DOMAIN_SEPARATOR",
      "outputs": [
        {
          "internalType": "bytes32",
          "name": "",
          "type": "bytes32"
        }
      ],
      "stateMutability": "view",
      "type": "function"
    },
    {
      "inputs": [],
      "name": "PERMIT_TYPEHASH",
      "outputs": [
        {
          "internalType": "bytes32",
          "name": "",
          "type": "bytes32"
        }
      ],
      "stateMutability": "view",
      "type": "function"
    },
    {
      "inputs": [
        {
          "internalType": "address",
          "name": "account",
          "type": "address"
        }
      ],
      "name": "addAuthorization",
      "outputs": [],
      "stateMutability": "nonpayable",
      "type": "function"
    },
    {
      "inputs": [
        {
          "internalType": "address",
          "name": "",
          "type": "address"
        },
        {
          "internalType": "address",
          "name": "",
          "type": "address"
        }
      ],
      "name": "allowance",
      "outputs": [
        {
          "internalType": "uint256",
          "name": "",
          "type": "uint256"
        }
      ],
      "stateMutability": "view",
      "type": "function"
    },
    {
      "inputs": [
        {
          "internalType": "address",
          "name": "usr",
          "type": "address"
        },
        {
          "internalType": "uint256",
          "name": "amount",
          "type": "uint256"
        }
      ],
      "name": "approve",
      "outputs": [
        {
          "internalType": "bool",
          "name": "",
          "type": "bool"
        }
      ],
      "stateMutability": "nonpayable",
      "type": "function"
    },
    {
      "inputs": [
        {
          "internalType": "address",
          "name": "",
          "type": "address"
        }
      ],
      "name": "authorizedAccounts",
      "outputs": [
        {
          "internalType": "uint256",
          "name": "",
          "type": "uint256"
        }
      ],
      "stateMutability": "view",
      "type": "function"
    },
    {
      "inputs": [
        {
          "internalType": "address",
          "name": "",
          "type": "address"
        }
      ],
      "name": "balanceOf",
      "outputs": [
        {
          "internalType": "uint256",
          "name": "",
          "type": "uint256"
        }
      ],
      "stateMutability": "view",
      "type": "function"
    },
    {
      "inputs": [
        {
          "internalType": "address",
          "name": "usr",
          "type": "address"
        },
        {
          "internalType": "uint256",
          "name": "amount",
          "type": "uint256"
        }
      ],
      "name": "burn",
      "outputs": [],
      "stateMutability": "nonpayable",
      "type": "function"
    },
    {
      "inputs": [],
      "name": "chainId",
      "outputs": [
        {
          "internalType": "uint256",
          "name": "",
          "type": "uint256"
        }
      ],
      "stateMutability": "view",
      "type": "function"
    },
    {
      "inputs": [],
      "name": "decimals",
      "outputs": [
        {
          "internalType": "uint8",
          "name": "",
          "type": "uint8"
        }
      ],
      "stateMutability": "view",
      "type": "function"
    },
    {
      "inputs": [
        {
          "internalType": "address",
          "name": "usr",
          "type": "address"
        },
        {
          "internalType": "uint256",
          "name": "amount",
          "type": "uint256"
        }
      ],
      "name": "mint",
      "outputs": [],
      "stateMutability": "nonpayable",
      "type": "function"
    },
    {
      "inputs": [
        {
          "internalType": "address",
          "name": "src",
          "type": "address"
        },
        {
          "internalType": "address",
          "name": "dst",
          "type": "address"
        },
        {
          "internalType": "uint256",
          "name": "amount",
          "type": "uint256"
        }
      ],
      "name": "move",
      "outputs": [],
      "stateMutability": "nonpayable",
      "type": "function"
    },
    {
      "inputs": [],
      "name": "name",
      "outputs": [
        {
          "internalType": "string",
          "name": "",
          "type": "string"
        }
      ],
      "stateMutability": "view",
      "type": "function"
    },
    {
      "inputs": [
        {
          "internalType": "address",
          "name": "",
          "type": "address"
        }
      ],
      "name": "nonces",
      "outputs": [
        {
          "internalType": "uint256",
          "name": "",
          "type": "uint256"
        }
      ],
      "stateMutability": "view",
      "type": "function"
    },
    {
      "inputs": [
        {
          "internalType": "address",
          "name": "holder",
          "type": "address"
        },
        {
          "internalType": "address",
          "name": "spender",
          "type": "address"
        },
        {
          "internalType": "uint256",
          "name": "nonce",
          "type": "uint256"
        },
        {
          "internalType": "uint256",
          "name": "expiry",
          "type": "uint256"
        },
        {
          "internalType": "bool",
          "name": "allowed",
          "type": "bool"
        },
        {
          "internalType": "uint8",
          "name": "v",
          "type": "uint8"
        },
        {
          "internalType": "bytes32",
          "name": "r",
          "type": "bytes32"
        },
        {
          "internalType": "bytes32",
          "name": "s",
          "type": "bytes32"
        }
      ],
      "name": "permit",
      "outputs": [],
      "stateMutability": "nonpayable",
      "type": "function"
    },
    {
      "inputs": [
        {
          "internalType": "address",
          "name": "usr",
          "type": "address"
        },
        {
          "internalType": "uint256",
          "name": "amount",
          "type": "uint256"
        }
      ],
      "name": "pull",
      "outputs": [],
      "stateMutability": "nonpayable",
      "type": "function"
    },
    {
      "inputs": [
        {
          "internalType": "address",
          "name": "usr",
          "type": "address"
        },
        {
          "internalType": "uint256",
          "name": "amount",
          "type": "uint256"
        }
      ],
      "name": "push",
      "outputs": [],
      "stateMutability": "nonpayable",
      "type": "function"
    },
    {
      "inputs": [
        {
          "internalType": "address",
          "name": "account",
          "type": "address"
        }
      ],
      "name": "removeAuthorization",
      "outputs": [],
      "stateMutability": "nonpayable",
      "type": "function"
    },
    {
      "inputs": [],
      "name": "symbol",
      "outputs": [
        {
          "internalType": "string",
          "name": "",
          "type": "string"
        }
      ],
      "stateMutability": "view",
      "type": "function"
    },
    {
      "inputs": [],
      "name": "totalSupply",
      "outputs": [
        {
          "internalType": "uint256",
          "name": "",
          "type": "uint256"
        }
      ],
      "stateMutability": "view",
      "type": "function"
    },
    {
      "inputs": [
        {
          "internalType": "address",
          "name": "dst",
          "type": "address"
        },
        {
          "internalType": "uint256",
          "name": "amount",
          "type": "uint256"
        }
      ],
      "name": "transfer",
      "outputs": [
        {
          "internalType": "bool",
          "name": "",
          "type": "bool"
        }
      ],
      "stateMutability": "nonpayable",
      "type": "function"
    },
    {
      "inputs": [
        {
          "internalType": "address",
          "name": "src",
          "type": "address"
        },
        {
          "internalType": "address",
          "name": "dst",
          "type": "address"
        },
        {
          "internalType": "uint256",
          "name": "amount",
          "type": "uint256"
        }
      ],
      "name": "transferFrom",
      "outputs": [
        {
          "internalType": "bool",
          "name": "",
          "type": "bool"
        }
      ],
      "stateMutability": "nonpayable",
      "type": "function"
    },
    {
      "inputs": [],
      "name": "version",
      "outputs": [
        {
          "internalType": "string",
          "name": "",
          "type": "string"
        }
      ],
      "stateMutability": "view",
      "type": "function"
    }
  ],
  "transactionHash": "0x90448d30aa2c6dd934a7e4bc3a5d47480ce1e649df307974084a84f627301114",
  "args": [
    "FakeERC20",
    "USDC",
    "10"
  ],
  "numDeployments": 1,
  "solcInputHash": "7a8edf5e0932db6378d799f829224fda",
  "bytecode": "0x60c060405260016080908152603160f81b60a052600390620000229082620001fd565b503480156200003057600080fd5b506040516200159b3803806200159b833981016040819052620000539162000378565b336000908152602081905260409020600190819055620000748482620001fd565b506002620000838382620001fd565b5060048190556040517f8b73c3c69bb8fe3d512ecc4cf759cc79239f7b179b0ffacaa9a75d522b39400f90620000bc90600190620003eb565b60405180910390206003604051620000d59190620003eb565b6040805191829003822060208301949094528101919091526060810191909152608081018290523060a082015260c00160408051808303601f190181529082905280516020918201206009553382527f599a298163e1678bb1c676052a8930bf0b8a1261ed6e01b8a2391e55f7000102910160405180910390a150505062000469565b634e487b7160e01b600052604160045260246000fd5b600181811c908216806200018357607f821691505b602082108103620001a457634e487b7160e01b600052602260045260246000fd5b50919050565b601f821115620001f857600081815260208120601f850160051c81016020861015620001d35750805b601f850160051c820191505b81811015620001f457828155600101620001df565b5050505b505050565b81516001600160401b0381111562000219576200021962000158565b62000231816200022a84546200016e565b84620001aa565b602080601f831160018114620002695760008415620002505750858301515b600019600386901b1c1916600185901b178555620001f4565b600085815260208120601f198616915b828110156200029a5788860151825594840194600190910190840162000279565b5085821015620002b95787850151600019600388901b60f8161c191681555b5050505050600190811b01905550565b600082601f830112620002db57600080fd5b81516001600160401b0380821115620002f857620002f862000158565b604051601f8301601f19908116603f0116810190828211818310171562000323576200032362000158565b816040528381526020925086838588010111156200034057600080fd5b600091505b8382101562000364578582018301518183018401529082019062000345565b600093810190920192909252949350505050565b6000806000606084860312156200038e57600080fd5b83516001600160401b0380821115620003a657600080fd5b620003b487838801620002c9565b94506020860151915080821115620003cb57600080fd5b50620003da86828701620002c9565b925050604084015190509250925092565b6000808354620003fb816200016e565b600182811680156200041657600181146200042c576200045d565b60ff19841687528215158302870194506200045d565b8760005260208060002060005b85811015620004545781548a82015290840190820162000439565b50505082870194505b50929695505050505050565b61112280620004796000396000f3fe608060405234801561001057600080fd5b506004361061014d5760003560e01c806370a08231116100c35780639dc29fac1161007c5780639dc29fac146102ce578063a9059cbb146102e1578063b753a98c146102f4578063bb35783b14610307578063dd62ed3e1461031a578063f2d5d56b1461034557600080fd5b806370a08231146102575780637ecebe00146102775780638fcbaf0c1461029757806394f3f81d146102aa57806395d89b41146102bd5780639a8a0592146102c557600080fd5b806330adf81f1161011557806330adf81f146101dd578063313ce5671461020457806335b281531461021e5780633644e5151461023357806340c10f191461023c57806354fd4d501461024f57600080fd5b806306fdde0314610152578063095ea7b31461017057806318160ddd1461019357806323b872dd146101aa57806324ba5884146101bd575b600080fd5b61015a610358565b6040516101679190610df4565b60405180910390f35b61018361017e366004610e5e565b6103e6565b6040519015158152602001610167565b61019c60055481565b604051908152602001610167565b6101836101b8366004610e88565b610453565b61019c6101cb366004610ec4565b60006020819052908152604090205481565b61019c7fea2aa0a1be11a07ed86d755c93467f4f82362b452371d1ba94d1715123511acb81565b61020c600681565b60405160ff9091168152602001610167565b61023161022c366004610ec4565b6106b4565b005b61019c60095481565b61023161024a366004610e5e565b610735565b61015a6107e4565b61019c610265366004610ec4565b60066020526000908152604090205481565b61019c610285366004610ec4565b60086020526000908152604090205481565b6102316102a5366004610edf565b6107f1565b6102316102b8366004610ec4565b610afb565b61015a610b74565b61019c60045481565b6102316102dc366004610e5e565b610b81565b6101836102ef366004610e5e565b610d0f565b610231610302366004610e5e565b610d23565b610231610315366004610e88565b610d33565b61019c610328366004610f69565b600760209081526000928352604080842090915290825290205481565b610231610353366004610e5e565b610d44565b6001805461036590610f9c565b80601f016020809104026020016040519081016040528092919081815260200182805461039190610f9c565b80156103de5780601f106103b3576101008083540402835291602001916103de565b820191906000526020600020905b8154815290600101906020018083116103c157829003601f168201915b505050505081565b3360008181526007602090815260408083206001600160a01b038716808552925280832085905551919290917f8c5be1e5ebec7d5bd14f71427d1e84f3dd0314c0f7b2291e5b200ac8c7c3b925906104419086815260200190565b60405180910390a35060015b92915050565b60006001600160a01b0383166104a05760405162461bcd60e51b815260206004820152600d60248201526c10dbda5b8bdb9d5b1b0b591cdd609a1b60448201526064015b60405180910390fd5b306001600160a01b038416036104f85760405162461bcd60e51b815260206004820181905260248201527f436f696e2f6473742d63616e6e6f742d62652d746869732d636f6e74726163746044820152606401610497565b6001600160a01b0384166000908152600660205260409020548211156105305760405162461bcd60e51b815260040161049790610fd6565b6001600160a01b038416331480159061057357506001600160a01b03841660009081526007602090815260408083203384529091529020546001600160801b0314155b1561060e576001600160a01b03841660009081526007602090815260408083203384529091529020548211156105bb5760405162461bcd60e51b815260040161049790611009565b6001600160a01b03841660009081526007602090815260408083203384529091529020546105e99083610d4f565b6001600160a01b03851660009081526007602090815260408083203384529091529020555b6001600160a01b0384166000908152600660205260409020546106319083610d4f565b6001600160a01b0380861660009081526006602052604080822093909355908516815220546106609083610da2565b6001600160a01b0380851660008181526006602052604090819020939093559151908616906000805160206110cd833981519152906106a29086815260200190565b60405180910390a35060019392505050565b336000908152602081905260409020546001146106e35760405162461bcd60e51b815260040161049790611040565b6001600160a01b038116600081815260208181526040918290206001905590519182527f599a298163e1678bb1c676052a8930bf0b8a1261ed6e01b8a2391e55f700010291015b60405180910390a150565b336000908152602081905260409020546001146107645760405162461bcd60e51b815260040161049790611040565b6001600160a01b0382166000908152600660205260409020546107879082610da2565b6001600160a01b0383166000908152600660205260409020556005546107ad9082610da2565b6005556040518181526001600160a01b038316906000906000805160206110cd833981519152906020015b60405180910390a35050565b6003805461036590610f9c565b600954604080517fea2aa0a1be11a07ed86d755c93467f4f82362b452371d1ba94d1715123511acb60208201526001600160a01b03808c169282019290925290891660608201526080810188905260a0810187905285151560c08201526000919060e0016040516020818303038152906040528051906020012060405160200161089292919061190160f01b81526002810192909252602282015260420190565b60408051601f19818403018152919052805160209091012090506001600160a01b0389166108fb5760405162461bcd60e51b81526020600482015260166024820152750436f696e2f696e76616c69642d616464726573732d360541b6044820152606401610497565b60408051600081526020810180835283905260ff861691810191909152606081018490526080810183905260019060a0016020604051602081039080840390855afa15801561094e573d6000803e3d6000fd5b505050602060405103516001600160a01b0316896001600160a01b0316146109ae5760405162461bcd60e51b815260206004820152601360248201527210dbda5b8bda5b9d985b1a590b5c195c9b5a5d606a1b6044820152606401610497565b8515806109bb5750854211155b6109fd5760405162461bcd60e51b815260206004820152601360248201527210dbda5b8bdc195c9b5a5d0b595e1c1a5c9959606a1b6044820152606401610497565b6001600160a01b0389166000908152600860205260408120805491610a218361108d565b919050558714610a685760405162461bcd60e51b8152602060048201526012602482015271436f696e2f696e76616c69642d6e6f6e636560701b6044820152606401610497565b600085610a76576000610a7f565b6001600160801b035b6001600160a01b038b81166000818152600760209081526040808320948f16808452948252918290206001600160801b0395909516948590559051848152939450919290917f8c5be1e5ebec7d5bd14f71427d1e84f3dd0314c0f7b2291e5b200ac8c7c3b925910160405180910390a350505050505050505050565b33600090815260208190526040902054600114610b2a5760405162461bcd60e51b815260040161049790611040565b6001600160a01b0381166000818152602081815260408083209290925590519182527f8834a87e641e9716be4f34527af5d23e11624f1ddeefede6ad75a9acfc31b903910161072a565b6002805461036590610f9c565b6001600160a01b038216600090815260066020526040902054811115610bb95760405162461bcd60e51b815260040161049790610fd6565b6001600160a01b0382163314801590610bfc57506001600160a01b03821660009081526007602090815260408083203384529091529020546001600160801b0314155b15610c97576001600160a01b0382166000908152600760209081526040808320338452909152902054811115610c445760405162461bcd60e51b815260040161049790611009565b6001600160a01b0382166000908152600760209081526040808320338452909152902054610c729082610d4f565b6001600160a01b03831660009081526007602090815260408083203384529091529020555b6001600160a01b038216600090815260066020526040902054610cba9082610d4f565b6001600160a01b038316600090815260066020526040902055600554610ce09082610d4f565b6005556040518181526000906001600160a01b038416906000805160206110cd833981519152906020016107d8565b6000610d1c338484610453565b9392505050565b610d2e338383610453565b505050565b610d3e838383610453565b50505050565b610d2e823383610453565b600082610d5c83826110a6565b915081111561044d5760405162461bcd60e51b8152602060048201526012602482015271436f696e2f7375622d756e646572666c6f7760701b6044820152606401610497565b600082610daf83826110b9565b915081101561044d5760405162461bcd60e51b8152602060048201526011602482015270436f696e2f6164642d6f766572666c6f7760781b6044820152606401610497565b600060208083528351808285015260005b81811015610e2157858101830151858201604001528201610e05565b506000604082860101526040601f19601f8301168501019250505092915050565b80356001600160a01b0381168114610e5957600080fd5b919050565b60008060408385031215610e7157600080fd5b610e7a83610e42565b946020939093013593505050565b600080600060608486031215610e9d57600080fd5b610ea684610e42565b9250610eb460208501610e42565b9150604084013590509250925092565b600060208284031215610ed657600080fd5b610d1c82610e42565b600080600080600080600080610100898b031215610efc57600080fd5b610f0589610e42565b9750610f1360208a01610e42565b9650604089013595506060890135945060808901358015158114610f3657600080fd5b935060a089013560ff81168114610f4c57600080fd5b979a969950949793969295929450505060c08201359160e0013590565b60008060408385031215610f7c57600080fd5b610f8583610e42565b9150610f9360208401610e42565b90509250929050565b600181811c90821680610fb057607f821691505b602082108103610fd057634e487b7160e01b600052602260045260246000fd5b50919050565b602080825260199082015278436f696e2f696e73756666696369656e742d62616c616e636560381b604082015260600190565b6020808252601b908201527f436f696e2f696e73756666696369656e742d616c6c6f77616e63650000000000604082015260600190565b6020808252601b908201527f436f696e2f6163636f756e742d6e6f742d617574686f72697a65640000000000604082015260600190565b634e487b7160e01b600052601160045260246000fd5b60006001820161109f5761109f611077565b5060010190565b8181038181111561044d5761044d611077565b8082018082111561044d5761044d61107756feddf252ad1be2c89b69c2b068fc378daa952ba7f163c4a11628f55a4df523b3efa2646970667358221220016dda672bf73eb1da6cebf71c84eac42bf2da1b2f257904e81afc2dfb3a5f5664736f6c63430008100033",
  "devdoc": {
    "kind": "dev",
    "methods": {
      "addAuthorization(address)": {
        "params": {
          "account": "Account to add auth to"
        }
      },
      "removeAuthorization(address)": {
        "params": {
          "account": "Account to remove auth from"
        }
      }
    },
    "stateVariables": {
      "allowance": {
        "details": "Returns the remaining number of tokens that `spender` will be allowed to spend on behalf of `owner` through {transferFrom}. This is zero by default. This value changes when {approve} or {transferFrom} are called."
      },
      "balanceOf": {
        "details": "Returns the amount of tokens owned by `account`."
      },
      "totalSupply": {
        "details": "Returns the amount of tokens in existence."
      }
    },
    "version": 1
  },
  "userdoc": {
    "kind": "user",
    "methods": {
      "addAuthorization(address)": {
        "notice": "Add auth to an account"
      },
      "removeAuthorization(address)": {
        "notice": "Remove auth from an account"
      }
    },
    "version": 1
  },
  "storageLayout": {
    "storage": [
      {
        "astId": 6651,
        "contract": "src/contracts/external/Coin.sol:Coin",
        "label": "authorizedAccounts",
        "offset": 0,
        "slot": "0",
        "type": "t_mapping(t_address,t_uint256)"
      },
      {
        "astId": 6706,
        "contract": "src/contracts/external/Coin.sol:Coin",
        "label": "name",
        "offset": 0,
        "slot": "1",
        "type": "t_string_storage"
      },
      {
        "astId": 6708,
        "contract": "src/contracts/external/Coin.sol:Coin",
        "label": "symbol",
        "offset": 0,
        "slot": "2",
        "type": "t_string_storage"
      },
      {
        "astId": 6711,
        "contract": "src/contracts/external/Coin.sol:Coin",
        "label": "version",
        "offset": 0,
        "slot": "3",
        "type": "t_string_storage"
      },
      {
        "astId": 6716,
        "contract": "src/contracts/external/Coin.sol:Coin",
        "label": "chainId",
        "offset": 0,
        "slot": "4",
        "type": "t_uint256"
      },
      {
        "astId": 6718,
        "contract": "src/contracts/external/Coin.sol:Coin",
        "label": "totalSupply",
        "offset": 0,
        "slot": "5",
        "type": "t_uint256"
      },
      {
        "astId": 6722,
        "contract": "src/contracts/external/Coin.sol:Coin",
        "label": "balanceOf",
        "offset": 0,
        "slot": "6",
        "type": "t_mapping(t_address,t_uint256)"
      },
      {
        "astId": 6728,
        "contract": "src/contracts/external/Coin.sol:Coin",
        "label": "allowance",
        "offset": 0,
        "slot": "7",
        "type": "t_mapping(t_address,t_mapping(t_address,t_uint256))"
      },
      {
        "astId": 6732,
        "contract": "src/contracts/external/Coin.sol:Coin",
        "label": "nonces",
        "offset": 0,
        "slot": "8",
        "type": "t_mapping(t_address,t_uint256)"
      },
      {
        "astId": 6786,
        "contract": "src/contracts/external/Coin.sol:Coin",
        "label": "DOMAIN_SEPARATOR",
        "offset": 0,
        "slot": "9",
        "type": "t_bytes32"
      }
    ],
    "types": {
      "t_address": {
        "encoding": "inplace",
        "label": "address",
        "numberOfBytes": "20"
      },
      "t_bytes32": {
        "encoding": "inplace",
        "label": "bytes32",
        "numberOfBytes": "32"
      },
      "t_mapping(t_address,t_mapping(t_address,t_uint256))": {
        "encoding": "mapping",
        "key": "t_address",
        "label": "mapping(address => mapping(address => uint256))",
        "numberOfBytes": "32",
        "value": "t_mapping(t_address,t_uint256)"
      },
      "t_mapping(t_address,t_uint256)": {
        "encoding": "mapping",
        "key": "t_address",
        "label": "mapping(address => uint256)",
        "numberOfBytes": "32",
        "value": "t_uint256"
      },
      "t_string_storage": {
        "encoding": "bytes",
        "label": "string",
        "numberOfBytes": "32"
      },
      "t_uint256": {
        "encoding": "inplace",
        "label": "uint256",
        "numberOfBytes": "32"
      }
    }
  }
}