{
  "address": "0x5dF46704BD2E877fb2B5B053fAA482EcDf8ff3C1",
  "abi": [
    {
      "inputs": [
        {
          "internalType": "address",
          "name": "expected",
          "type": "address"
        },
        {
          "internalType": "address",
          "name": "actual",
          "type": "address"
        }
      ],
      "name": "CallerNotAllowed",
      "type": "error"
    },
    {
      "inputs": [],
      "name": "CannotLeaveDueAccumulatedReferralCredits",
      "type": "error"
    },
    {
      "inputs": [],
      "name": "CantClaimFundsOnActiveProject",
      "type": "error"
    },
    {
      "inputs": [],
      "name": "ClosingTimeTooEarly",
      "type": "error"
    },
    {
      "inputs": [
        {
          "internalType": "uint256",
          "name": "timestamp",
          "type": "uint256"
        },
        {
          "internalType": "uint256",
          "name": "expiredTime",
          "type": "uint256"
        }
      ],
      "name": "CrowdtainerExpired",
      "type": "error"
    },
    {
      "inputs": [
        {
          "internalType": "uint256",
          "name": "received",
          "type": "uint256"
        },
        {
          "internalType": "uint256",
          "name": "maximum",
          "type": "uint256"
        }
      ],
      "name": "ExceededNumberOfItemsAllowed",
      "type": "error"
    },
    {
      "inputs": [],
      "name": "InsufficientBalance",
      "type": "error"
    },
    {
      "inputs": [],
      "name": "InvalidMaximumTarget",
      "type": "error"
    },
    {
      "inputs": [],
      "name": "InvalidMinimumTarget",
      "type": "error"
    },
    {
      "inputs": [],
      "name": "InvalidNumberOfQuantities",
      "type": "error"
    },
    {
      "inputs": [
        {
          "internalType": "enum CrowdtainerState",
          "name": "state",
          "type": "uint8"
        }
      ],
      "name": "InvalidOperationFor",
      "type": "error"
    },
    {
      "inputs": [],
      "name": "InvalidProductNumberAndPrices",
      "type": "error"
    },
    {
      "inputs": [
        {
          "internalType": "uint256",
          "name": "received",
          "type": "uint256"
        },
        {
          "internalType": "uint256",
          "name": "maximum",
          "type": "uint256"
        }
      ],
      "name": "InvalidReferralRate",
      "type": "error"
    },
    {
      "inputs": [],
      "name": "InvalidSignature",
      "type": "error"
    },
    {
      "inputs": [
        {
          "internalType": "uint256",
          "name": "received",
          "type": "uint256"
        },
        {
          "internalType": "uint256",
          "name": "minimum",
          "type": "uint256"
        }
      ],
      "name": "MinimumPurchaseValueForReferralNotMet",
      "type": "error"
    },
    {
      "inputs": [],
      "name": "MinimumTargetHigherThanMaximum",
      "type": "error"
    },
    {
      "inputs": [
        {
          "internalType": "uint256",
          "name": "minimum",
          "type": "uint256"
        },
        {
          "internalType": "uint256",
          "name": "actual",
          "type": "uint256"
        }
      ],
      "name": "MinimumTargetNotReached",
      "type": "error"
    },
    {
      "inputs": [
        {
          "internalType": "address",
          "name": "wallet",
          "type": "address"
        },
        {
          "internalType": "bytes32",
          "name": "nonce",
          "type": "bytes32"
        }
      ],
      "name": "NonceAlreadyUsed",
      "type": "error"
    },
    {
      "inputs": [
        {
          "internalType": "address",
          "name": "sender",
          "type": "address"
        },
        {
          "internalType": "string[]",
          "name": "urls",
          "type": "string[]"
        },
        {
          "internalType": "bytes",
          "name": "callData",
          "type": "bytes"
        },
        {
          "internalType": "bytes4",
          "name": "callbackFunction",
          "type": "bytes4"
        },
        {
          "internalType": "bytes",
          "name": "extraData",
          "type": "bytes"
        }
      ],
      "name": "OffchainLookup",
      "type": "error"
    },
    {
      "inputs": [
        {
          "internalType": "uint256",
          "name": "timestamp",
          "type": "uint256"
        },
        {
          "internalType": "uint256",
          "name": "openingTime",
          "type": "uint256"
        }
      ],
      "name": "OpeningTimeNotReachedYet",
      "type": "error"
    },
    {
      "inputs": [],
      "name": "PriceTooLow",
      "type": "error"
    },
    {
      "inputs": [
        {
          "internalType": "uint256",
          "name": "received",
          "type": "uint256"
        },
        {
          "internalType": "uint256",
          "name": "maximum",
          "type": "uint256"
        }
      ],
      "name": "PurchaseExceedsMaximumTarget",
      "type": "error"
    },
    {
      "inputs": [],
      "name": "ReferralDisabledForProvidedCode",
      "type": "error"
    },
    {
      "inputs": [],
      "name": "ReferralInexistent",
      "type": "error"
    },
    {
      "inputs": [
        {
          "internalType": "uint256",
          "name": "received",
          "type": "uint256"
        },
        {
          "internalType": "uint256",
          "name": "maximum",
          "type": "uint256"
        }
      ],
      "name": "ReferralMinimumValueTooHigh",
      "type": "error"
    },
    {
      "inputs": [],
      "name": "ReferralRateNotMultipleOfTwo",
      "type": "error"
    },
    {
      "inputs": [],
      "name": "ShippingAgentAddressIsZero",
      "type": "error"
    },
    {
      "inputs": [
        {
          "internalType": "uint64",
          "name": "current",
          "type": "uint64"
        },
        {
          "internalType": "uint64",
          "name": "expires",
          "type": "uint64"
        }
      ],
      "name": "SignatureExpired",
      "type": "error"
    },
    {
      "inputs": [],
      "name": "TokenAddressIsZero",
      "type": "error"
    },
    {
      "inputs": [],
      "name": "UserAlreadyJoined",
      "type": "error"
    },
    {
      "anonymous": false,
      "inputs": [
        {
          "indexed": true,
          "internalType": "string[]",
          "name": "newUrls",
          "type": "string[]"
        }
      ],
      "name": "CCIPURLChanged",
      "type": "event"
    },
    {
      "anonymous": false,
      "inputs": [
        {
          "indexed": true,
          "internalType": "address",
          "name": "owner",
          "type": "address"
        },
        {
          "indexed": true,
          "internalType": "address",
          "name": "shippingAgent",
          "type": "address"
        }
      ],
      "name": "CrowdtainerCreated",
      "type": "event"
    },
    {
      "anonymous": false,
      "inputs": [
        {
          "indexed": true,
          "internalType": "address",
          "name": "shippingAgent",
          "type": "address"
        },
        {
          "indexed": false,
          "internalType": "uint256",
          "name": "totalValueRaised",
          "type": "uint256"
        }
      ],
      "name": "CrowdtainerInDeliveryStage",
      "type": "event"
    },
    {
      "anonymous": false,
      "inputs": [
        {
          "indexed": true,
          "internalType": "address",
          "name": "_owner",
          "type": "address"
        },
        {
          "indexed": false,
          "internalType": "contract IERC20",
          "name": "_token",
          "type": "address"
        },
        {
          "indexed": false,
          "internalType": "uint256",
          "name": "_openingTime",
          "type": "uint256"
        },
        {
          "indexed": false,
          "internalType": "uint256",
          "name": "_expireTime",
          "type": "uint256"
        },
        {
          "indexed": false,
          "internalType": "uint256",
          "name": "_targetMinimum",
          "type": "uint256"
        },
        {
          "indexed": false,
          "internalType": "uint256",
          "name": "_targetMaximum",
          "type": "uint256"
        },
        {
          "indexed": false,
          "internalType": "uint256[]",
          "name": "_unitPricePerType",
          "type": "uint256[]"
        },
        {
          "indexed": false,
          "internalType": "uint256",
          "name": "_referralRate",
          "type": "uint256"
        },
        {
          "indexed": false,
          "internalType": "uint256",
          "name": "_referralEligibilityValue",
          "type": "uint256"
        },
        {
          "indexed": false,
          "internalType": "string",
          "name": "_legalContractURI",
          "type": "string"
        },
        {
          "indexed": false,
          "internalType": "address",
          "name": "_signer",
          "type": "address"
        }
      ],
      "name": "CrowdtainerInitialized",
      "type": "event"
    },
    {
      "anonymous": false,
      "inputs": [
        {
          "indexed": true,
          "internalType": "address",
          "name": "wallet",
          "type": "address"
        },
        {
          "indexed": false,
          "internalType": "uint256",
          "name": "withdrawnAmount",
          "type": "uint256"
        }
      ],
      "name": "FundsClaimed",
      "type": "event"
    },
    {
      "anonymous": false,
      "inputs": [
        {
          "indexed": false,
          "internalType": "uint8",
          "name": "version",
          "type": "uint8"
        }
      ],
      "name": "Initialized",
      "type": "event"
    },
    {
      "anonymous": false,
      "inputs": [
        {
          "indexed": true,
          "internalType": "address",
          "name": "wallet",
          "type": "address"
        },
        {
          "indexed": false,
          "internalType": "uint256[]",
          "name": "quantities",
          "type": "uint256[]"
        },
        {
          "indexed": true,
          "internalType": "address",
          "name": "referrer",
          "type": "address"
        },
        {
          "indexed": false,
          "internalType": "uint256",
          "name": "finalCost",
          "type": "uint256"
        },
        {
          "indexed": false,
          "internalType": "uint256",
          "name": "appliedDiscount",
          "type": "uint256"
        },
        {
          "indexed": false,
          "internalType": "bool",
          "name": "referralEnabled",
          "type": "bool"
        }
      ],
      "name": "Joined",
      "type": "event"
    },
    {
      "anonymous": false,
      "inputs": [
        {
          "indexed": true,
          "internalType": "address",
          "name": "wallet",
          "type": "address"
        },
        {
          "indexed": false,
          "internalType": "uint256",
          "name": "withdrawnAmount",
          "type": "uint256"
        }
      ],
      "name": "Left",
      "type": "event"
    },
    {
      "anonymous": false,
      "inputs": [
        {
          "indexed": true,
          "internalType": "address",
          "name": "wallet",
          "type": "address"
        },
        {
          "indexed": false,
          "internalType": "uint256",
          "name": "withdrawnAmount",
          "type": "uint256"
        }
      ],
      "name": "RewardsClaimed",
      "type": "event"
    },
    {
      "anonymous": false,
      "inputs": [
        {
          "indexed": true,
          "internalType": "address",
          "name": "newSigner",
          "type": "address"
        }
      ],
      "name": "SignerChanged",
      "type": "event"
    },
    {
      "inputs": [],
      "name": "abortProject",
      "outputs": [],
      "stateMutability": "nonpayable",
      "type": "function"
    },
    {
      "inputs": [],
      "name": "accumulatedRewards",
      "outputs": [
        {
          "internalType": "uint256",
          "name": "",
          "type": "uint256"
        }
      ],
      "stateMutability": "view",
      "type": "function"
    },
    {
      "inputs": [
        {
          "internalType": "address",
          "name": "",
          "type": "address"
        }
      ],
      "name": "accumulatedRewardsOf",
      "outputs": [
        {
          "internalType": "uint256",
          "name": "",
          "type": "uint256"
        }
      ],
      "stateMutability": "view",
      "type": "function"
    },
    {
      "inputs": [
        {
          "internalType": "address",
          "name": "wallet",
          "type": "address"
        }
      ],
      "name": "claimFunds",
      "outputs": [],
      "stateMutability": "nonpayable",
      "type": "function"
    },
    {
      "inputs": [],
      "name": "claimFunds",
      "outputs": [],
      "stateMutability": "nonpayable",
      "type": "function"
    },
    {
      "inputs": [],
      "name": "claimRewards",
      "outputs": [],
      "stateMutability": "nonpayable",
      "type": "function"
    },
    {
      "inputs": [
        {
          "internalType": "address",
          "name": "_wallet",
          "type": "address"
        }
      ],
      "name": "claimRewards",
      "outputs": [],
      "stateMutability": "nonpayable",
      "type": "function"
    },
    {
      "inputs": [
        {
          "internalType": "address",
          "name": "",
          "type": "address"
        }
      ],
      "name": "costForWallet",
      "outputs": [
        {
          "internalType": "uint256",
          "name": "",
          "type": "uint256"
        }
      ],
      "stateMutability": "view",
      "type": "function"
    },
    {
      "inputs": [],
      "name": "crowdtainerState",
      "outputs": [
        {
          "internalType": "enum CrowdtainerState",
          "name": "",
          "type": "uint8"
        }
      ],
      "stateMutability": "view",
      "type": "function"
    },
    {
      "inputs": [
        {
          "internalType": "address",
          "name": "",
          "type": "address"
        }
      ],
      "name": "discountForUser",
      "outputs": [
        {
          "internalType": "uint256",
          "name": "",
          "type": "uint256"
        }
      ],
      "stateMutability": "view",
      "type": "function"
    },
    {
      "inputs": [
        {
          "internalType": "address",
          "name": "",
          "type": "address"
        }
      ],
      "name": "enableReferral",
      "outputs": [
        {
          "internalType": "bool",
          "name": "",
          "type": "bool"
        }
      ],
      "stateMutability": "view",
      "type": "function"
    },
    {
      "inputs": [],
      "name": "expireTime",
      "outputs": [
        {
          "internalType": "uint256",
          "name": "",
          "type": "uint256"
        }
      ],
      "stateMutability": "view",
      "type": "function"
    },
    {
      "inputs": [],
      "name": "getPaidAndDeliver",
      "outputs": [],
      "stateMutability": "nonpayable",
      "type": "function"
    },
    {
      "inputs": [],
      "name": "getSigner",
      "outputs": [
        {
          "internalType": "address",
          "name": "",
          "type": "address"
        }
      ],
      "stateMutability": "view",
      "type": "function"
    },
    {
      "inputs": [
        {
          "internalType": "address",
          "name": "_owner",
          "type": "address"
        },
        {
          "components": [
            {
              "internalType": "address",
              "name": "shippingAgent",
              "type": "address"
            },
            {
              "internalType": "address",
              "name": "signer",
              "type": "address"
            },
            {
              "internalType": "uint256",
              "name": "openingTime",
              "type": "uint256"
            },
            {
              "internalType": "uint256",
              "name": "expireTime",
              "type": "uint256"
            },
            {
              "internalType": "uint256",
              "name": "targetMinimum",
              "type": "uint256"
            },
            {
              "internalType": "uint256",
              "name": "targetMaximum",
              "type": "uint256"
            },
            {
              "internalType": "uint256[]",
              "name": "unitPricePerType",
              "type": "uint256[]"
            },
            {
              "internalType": "uint256",
              "name": "referralRate",
              "type": "uint256"
            },
            {
              "internalType": "uint256",
              "name": "referralEligibilityValue",
              "type": "uint256"
            },
            {
              "internalType": "address",
              "name": "token",
              "type": "address"
            },
            {
              "internalType": "string",
              "name": "legalContractURI",
              "type": "string"
            }
          ],
          "internalType": "struct CampaignData",
          "name": "_campaignData",
          "type": "tuple"
        }
      ],
      "name": "initialize",
      "outputs": [],
      "stateMutability": "nonpayable",
      "type": "function"
    },
    {
      "inputs": [
        {
          "internalType": "address",
          "name": "_wallet",
          "type": "address"
        },
        {
          "internalType": "uint256[]",
          "name": "_quantities",
          "type": "uint256[]"
        }
      ],
      "name": "join",
      "outputs": [],
      "stateMutability": "nonpayable",
      "type": "function"
    },
    {
      "inputs": [
        {
          "internalType": "address",
          "name": "_wallet",
          "type": "address"
        },
        {
          "internalType": "uint256[]",
          "name": "_quantities",
          "type": "uint256[]"
        },
        {
          "internalType": "bool",
          "name": "_enableReferral",
          "type": "bool"
        },
        {
          "internalType": "address",
          "name": "_referrer",
          "type": "address"
        }
      ],
      "name": "join",
      "outputs": [],
      "stateMutability": "nonpayable",
      "type": "function"
    },
    {
      "inputs": [
        {
          "internalType": "bytes",
          "name": "result",
          "type": "bytes"
        },
        {
          "internalType": "bytes",
          "name": "extraData",
          "type": "bytes"
        }
      ],
      "name": "joinWithSignature",
      "outputs": [],
      "stateMutability": "nonpayable",
      "type": "function"
    },
    {
      "inputs": [
        {
          "internalType": "address",
          "name": "_wallet",
          "type": "address"
        }
      ],
      "name": "leave",
      "outputs": [],
      "stateMutability": "nonpayable",
      "type": "function"
    },
    {
      "inputs": [],
      "name": "legalContractURI",
      "outputs": [
        {
          "internalType": "string",
          "name": "",
          "type": "string"
        }
      ],
      "stateMutability": "view",
      "type": "function"
    },
    {
      "inputs": [],
      "name": "numberOfProducts",
      "outputs": [
        {
          "internalType": "uint256",
          "name": "",
          "type": "uint256"
        }
      ],
      "stateMutability": "view",
      "type": "function"
    },
    {
      "inputs": [],
      "name": "openingTime",
      "outputs": [
        {
          "internalType": "uint256",
          "name": "",
          "type": "uint256"
        }
      ],
      "stateMutability": "view",
      "type": "function"
    },
    {
      "inputs": [],
      "name": "owner",
      "outputs": [
        {
          "internalType": "address",
          "name": "",
          "type": "address"
        }
      ],
      "stateMutability": "view",
      "type": "function"
    },
    {
      "inputs": [],
      "name": "referralEligibilityValue",
      "outputs": [
        {
          "internalType": "uint256",
          "name": "",
          "type": "uint256"
        }
      ],
      "stateMutability": "view",
      "type": "function"
    },
    {
      "inputs": [],
      "name": "referralRate",
      "outputs": [
        {
          "internalType": "uint256",
          "name": "",
          "type": "uint256"
        }
      ],
      "stateMutability": "view",
      "type": "function"
    },
    {
      "inputs": [
        {
          "internalType": "address",
          "name": "",
          "type": "address"
        }
      ],
      "name": "referrerOfReferee",
      "outputs": [
        {
          "internalType": "address",
          "name": "",
          "type": "address"
        }
      ],
      "stateMutability": "view",
      "type": "function"
    },
    {
      "inputs": [
        {
          "internalType": "address",
          "name": "_signer",
          "type": "address"
        }
      ],
      "name": "setSigner",
      "outputs": [],
      "stateMutability": "nonpayable",
      "type": "function"
    },
    {
      "inputs": [
        {
          "internalType": "string[]",
          "name": "_urls",
          "type": "string[]"
        }
      ],
      "name": "setUrls",
      "outputs": [],
      "stateMutability": "nonpayable",
      "type": "function"
    },
    {
      "inputs": [],
      "name": "shippingAgent",
      "outputs": [
        {
          "internalType": "address",
          "name": "",
          "type": "address"
        }
      ],
      "stateMutability": "view",
      "type": "function"
    },
    {
      "inputs": [],
      "name": "targetMaximum",
      "outputs": [
        {
          "internalType": "uint256",
          "name": "",
          "type": "uint256"
        }
      ],
      "stateMutability": "view",
      "type": "function"
    },
    {
      "inputs": [],
      "name": "targetMinimum",
      "outputs": [
        {
          "internalType": "uint256",
          "name": "",
          "type": "uint256"
        }
      ],
      "stateMutability": "view",
      "type": "function"
    },
    {
      "inputs": [],
      "name": "token",
      "outputs": [
        {
          "internalType": "contract IERC20",
          "name": "",
          "type": "address"
        }
      ],
      "stateMutability": "view",
      "type": "function"
    },
    {
      "inputs": [],
      "name": "totalValueRaised",
      "outputs": [
        {
          "internalType": "uint256",
          "name": "",
          "type": "uint256"
        }
      ],
      "stateMutability": "view",
      "type": "function"
    },
    {
      "inputs": [
        {
          "internalType": "uint256",
          "name": "",
          "type": "uint256"
        }
      ],
      "name": "unitPricePerType",
      "outputs": [
        {
          "internalType": "uint256",
          "name": "",
          "type": "uint256"
        }
      ],
      "stateMutability": "view",
      "type": "function"
    },
    {
      "inputs": [
        {
          "internalType": "uint256",
          "name": "",
          "type": "uint256"
        }
      ],
      "name": "urls",
      "outputs": [
        {
          "internalType": "string",
          "name": "",
          "type": "string"
        }
      ],
      "stateMutability": "view",
      "type": "function"
    },
    {
      "inputs": [
        {
          "internalType": "address",
          "name": "",
          "type": "address"
        },
        {
          "internalType": "bytes32",
          "name": "",
          "type": "bytes32"
        }
      ],
      "name": "usedNonces",
      "outputs": [
        {
          "internalType": "bool",
          "name": "",
          "type": "bool"
        }
      ],
      "stateMutability": "view",
      "type": "function"
    }
  ],
  "transactionHash": "0xda33b4405de30e4a4fa9734a812c3421a89c61655d9e8417244855626dc3dc20",
  "args": [],
  "numDeployments": 2,
  "solcInputHash": "128bf5e746daf05c023576757660337b",
  "bytecode": "0x608060405234801561001057600080fd5b506001600055613542806100256000396000f3fe608060405234801561001057600080fd5b50600436106101dc5760003560e01c80637ac3c02f11610105578063b7a8807c1161009d578063b7a8807c1461040c578063bedf77a614610415578063c66301b214610428578063cf08405614610430578063eb6ced1614610443578063edf0063814610463578063ef39c4ba14610476578063ef5cfb8c14610499578063fc0c546a146104ac57600080fd5b80637ac3c02f146103825780638831c8dc146103935780638da5cb5b1461039c57806390ffbe90146103b65780639c81ff6b146103bf578063a053ce1f146103c8578063a25a7d3b146103d1578063aab1e47b146103e4578063ac3077731461040457600080fd5b8063566a2cc211610178578063566a2cc21461029d5780635fda04c7146102b0578063693d0df2146102ee5780636c19e783146103015780636cc895a9146103145780636f9d99d91461032757806374b3eceb1461033a5780637855d30c1461034f578063796676be1461036f57600080fd5b80630e6137cf146101e157806319cc6492146101eb5780631e1b2573146101f35780632748608f1461021957806327949dab1461025a578063310a1ee31461027a578063312ee7fa14610283578063372500ab1461028c57806353b4765614610294575b600080fd5b6101e96104bf565b005b6101e96105d1565b6102066102013660046125bd565b61062f565b6040519081526020015b60405180910390f35b6102426102273660046125eb565b6006602052600090815260409020546001600160a01b031681565b6040516001600160a01b039091168152602001610210565b6102066102683660046125eb565b60046020526000908152604090205481565b61020660105481565b61020660075481565b6101e9610650565b61020660125481565b6101e96102ab366004612649565b61065b565b6102de6102be3660046126b4565b600c60209081526000928352604080842090915290825290205460ff1681565b6040519015158152602001610210565b6101e96102fc3660046125eb565b61097d565b6101e961030f3660046125eb565b610bbf565b6101e96103223660046127a0565b610c1e565b6101e961033536600461286a565b610c89565b6103426111f1565b6040516102109190612911565b6001546103629062010000900460ff1681565b604051610210919061293a565b61034261037d3660046125bd565b61127f565b600b546001600160a01b0316610242565b610206600a5481565b60015461024290630100000090046001600160a01b031681565b61020660115481565b61020660055481565b61020660145481565b6101e96103df3660046129a6565b6112aa565b6102066103f23660046125eb565b60036020526000908152604090205481565b6101e96112b8565b610206600f5481565b6101e96104233660046125eb565b6112c1565b601354610206565b600254610242906001600160a01b031681565b6102066104513660046125eb565b60096020526000908152604090205481565b6101e9610471366004612a18565b61150a565b6102de6104843660046125eb565b60086020526000908152604090205460ff1681565b6101e96104a73660046125eb565b611778565b601554610242906001600160a01b031681565b60016104ca81611826565b6002600054036104f55760405162461bcd60e51b81526004016104ec90612a94565b60405180910390fd5b600260008190555461050f906001600160a01b03166118bc565b6000600554600a546105219190612ae1565b9050601154600a54101561055757601154600a546040516359dc328760e01b8152600481019290925260248201526044016104ec565b6001805462ff0000191662020000179055600254601554610585916001600160a01b0391821691168361190b565b6002546040518281526001600160a01b03909116907f26dc6b7e309de29eb24d6830d1cc0f60c6b5d25d5d4830ce8ba77eb55468f0dc906020015b60405180910390a250506001600055565b60016105dc81611826565b6002600054036105fe5760405162461bcd60e51b81526004016104ec90612a94565b6002600081905554610618906001600160a01b03166118bc565b506001805462ff0000191662030000178155600055565b6013818154811061063f57600080fd5b600091825260209091200154905081565b61065933611778565b565b600154630100000090046001600160a01b03166107e957600161067d81611826565b61068561196e565b6002600054036106a75760405162461bcd60e51b81526004016104ec90612a94565b6002600055600b546001600160a01b03166106c157600080fd5b60008080806106d286880188612aff565b93509350935093506013805490508351146107005760405163b0e7ef7b60e01b815260040160405180910390fd5b600154630100000090046001600160a01b031661072057610720846118bc565b60008080806107318c8e018e612bc5565b93509350935093506000848989898988886040516020016107589796959493929190612c4d565b60408051601f198184030181529190528051602090910120600b5490915061078f90869083906001600160a01b03168787876119ce565b61079857600080fd5b600b546001600160a01b03166000908152600c602090815260408083208684529091529020805460ff191660011790556107d489898989611b2e565b50506001600055506109779650505050505050565b60015461080590630100000090046001600160a01b03166118bc565b600161081081611826565b61081861196e565b60026000540361083a5760405162461bcd60e51b81526004016104ec90612a94565b6002600055600b546001600160a01b031661085457600080fd5b600080808061086586880188612aff565b93509350935093506013805490508351146108935760405163b0e7ef7b60e01b815260040160405180910390fd5b600154630100000090046001600160a01b03166108b3576108b3846118bc565b60008080806108c48c8e018e612bc5565b93509350935093506000848989898988886040516020016108eb9796959493929190612c4d565b60408051601f198184030181529190528051602090910120600b5490915061092290869083906001600160a01b03168787876119ce565b61092b57600080fd5b600b546001600160a01b03166000908152600c602090815260408083208684529091529020805460ff1916600117905561096789898989611b2e565b5050600160005550505050505050505b50505050565b60026000540361099f5760405162461bcd60e51b81526004016104ec90612a94565b600260009081556001600160a01b038216815260036020526040812054908190036109dd57604051631e9acf1760e31b815260040160405180910390fd5b600f54421015610a0d57600f546040516340968aa760e11b815242600482015260248101919091526044016104ec565b600060015462010000900460ff166003811115610a2c57610a2c612924565b03610a5757600154604051630c987e3f60e31b81526104ec9162010000900460ff169060040161293a565b600260015462010000900460ff166003811115610a7657610a76612924565b03610aa157600154604051630c987e3f60e31b81526104ec9162010000900460ff169060040161293a565b60105442118015610ab55750601154600a54105b15610ad0576001805462ff0000191662030000179055610afa565b62278d00601054610ae19190612cf5565b421115610afa576001805462ff00001916620300001790555b600360015462010000900460ff166003811115610b1957610b19612924565b14610b3757604051639b61206360e01b815260040160405180910390fd5b6001600160a01b038083166000908152600360209081526040808320839055600982528083208390556006909152902080546001600160a01b0319169055601554610b849116838361190b565b816001600160a01b03167fa65a8b4f7f65a1063243d7f7e9e4da00ff767599acf21549ef2548a45d1695ae826040516105c091815260200190565b600254610bd4906001600160a01b03166118bc565b600b80546001600160a01b0319166001600160a01b0383169081179091556040517f5719a5656c5cfdaafa148ecf366fd3b0a7fae06449ce2a46225977fb7417e29d90600090a250565b600254610c33906001600160a01b03166118bc565b8051610c4690600d9060208401906124b4565b50600d604051610c569190612d42565b604051908190038120907f39865a40d618adb128517d1adfed42d8a2ba08c9766461764840e68a6bf59e0390600090a250565b600154610100900460ff1615808015610ca657506001805460ff16105b80610cbf5750303b158015610cbf57506001805460ff16145b610d225760405162461bcd60e51b815260206004820152602e60248201527f496e697469616c697a61626c653a20636f6e747261637420697320616c72656160448201526d191e481a5b9a5d1a585b1a5e995960921b60648201526084016104ec565b6001805460ff1916811790558015610d44576001805461ff0019166101001790555b6000610d4f81611826565b600180546301000000600160b81b03191663010000006001600160a01b038716021790556000610d87610140850161012086016125eb565b6001600160a01b031603610dae5760405163dc2e5e8d60e01b815260040160405180910390fd5b6000610dbd60208501856125eb565b6001600160a01b031603610de45760405163063d924960e51b815260040160405180910390fd5b82608001358361010001351115610e1f57604051631e5c82a560e01b81526101008401356004820152608084013560248201526044016104ec565b610e2e600260e0850135612df5565b15610e4c576040516384d68d9d60e01b815260040160405180910390fd5b610e5c6102586040850135612cf5565b83606001351015610e805760405163079237dd60e31b815260040160405180910390fd5b8260a00135600003610ea55760405163a4c54a6360e01b815260040160405180910390fd5b8260800135600003610eca57604051637a61fdf760e01b815260040160405180910390fd5b8260a0013583608001351115610ef2576040516285e6db60e21b815260040160405180910390fd5b6000610f06610140850161012086016125eb565b6001600160a01b031663313ce5676040518163ffffffff1660e01b8152600401602060405180830381865afa158015610f43573d6000803e3d6000fd5b505050506040513d601f19601f82011682018060405250810190610f679190612e09565b610f7290600a612f10565b905060005b610f8460c0860186612f1f565b9050811015610fe35781610f9b60c0870187612f1f565b83818110610fab57610fab612f68565b905060200201351015610fd157604051636dddf41160e11b815260040160405180910390fd5b80610fdb81612f7e565b915050610f77565b5060328460e00135111561101757604051639088a55b60e01b815260e08501356004820152603260248201526044016104ec565b61102460208501856125eb565b600280546001600160a01b0319166001600160a01b039290921691909117905561105460408501602086016125eb565b600b80546001600160a01b0319166001600160a01b03929092169190911790556040840135600f556060840135601055608084013560115560a08401356012556110a160c0850185612f1f565b6110ad9160139161250a565b5060e08401356014556101008401356007556110d1610140850161012086016125eb565b601580546001600160a01b0319166001600160a01b03929092169190911790556110ff610140850185612f97565b60169161110d919083613040565b50600e81905560018054819062ff0000191662010000820217905550600154601554600f54601054601154601254601454600754600b546040516001600160a01b036301000000909a048a16997fbbabc2d36b1793f04325aeee8a3354406f876694a67995403602953caf03bf0b9961119d99908216989097909690959094601394919390926016921690613176565b60405180910390a2505080156111ec576001805461ff00191681556040519081527f7f26b83ff96e1f2b6a682f133852f6798a09c465da95921460cefb38474024989060200160405180910390a15b505050565b601680546111fe90612d08565b80601f016020809104026020016040519081016040528092919081815260200182805461122a90612d08565b80156112775780601f1061124c57610100808354040283529160200191611277565b820191906000526020600020905b81548152906001019060200180831161125a57829003601f168201915b505050505081565b600d818154811061128f57600080fd5b9060005260206000200160009150905080546111fe90612d08565b6111ec83838360008061150a565b6106593361097d565b600154630100000090046001600160a01b03166114e35760016112e381611826565b6112eb61196e565b60026000540361130d5760405162461bcd60e51b81526004016104ec90612a94565b6002600055600154630100000090046001600160a01b031661133257611332826118bc565b6001600160a01b0380831660009081526003602090815260408083205460069092529091205490911680156113a0576001600160a01b03808516600090815260096020908152604080832054938516835260049091528120805490919061139a908490612ae1565b90915550505b6001600160a01b038416600090815260046020526040902054156113d757604051636939b91360e11b815260040160405180910390fd5b6001600160a01b038416600090815260036020526040812054600a805491929091611403908490612ae1565b90915550506001600160a01b0384166000908152600960205260408120546005805491929091611434908490612ae1565b90915550506001600160a01b038085166000908152600360209081526040808320839055600982528083208390556006825280832080546001600160a01b031916905560089091529020805460ff191690556015546114959116858461190b565b836001600160a01b03167faf65ecdc8a0d3ea90c8344c89e7001864fddf59dfdf41da2994463fe99049a59836040516114d091815260200190565b60405180910390a2505060016000555050565b6001546114ff90630100000090046001600160a01b03166118bc565b60016112e381611826565b600154630100000090046001600160a01b031661167c57600161152c81611826565b61153461196e565b6002600054036115565760405162461bcd60e51b81526004016104ec90612a94565b6002600055600b546001600160a01b0316156116105730600d63ed52b41c60e01b3089898989896040516024016115929695949392919061325c565b60408051601f19818403018152918152602080830180516001600160e01b03166001600160e01b031990951694909417909352519091632b35166160e11b916115e5918c918c918c918c918c91016132a2565b60408051601f1981840301815290829052630556f18360e41b82526104ec95949392916004016132df565b600154630100000090046001600160a01b031661163057611630866118bc565b61167186868680806020026020016040519081016040528093929190818152602001838360200280828437600092019190915250889250879150611b2e9050565b506001600055611771565b60015461169890630100000090046001600160a01b03166118bc565b60016116a381611826565b6116ab61196e565b6002600054036116cd5760405162461bcd60e51b81526004016104ec90612a94565b6002600055600b546001600160a01b0316156117095730600d63ed52b41c60e01b3089898989896040516024016115929695949392919061325c565b600154630100000090046001600160a01b031661172957611729866118bc565b61176a86868680806020026020016040519081016040528093929190818152602001838360200280828437600092019190915250889250879150611b2e9050565b5060016000555b5050505050565b60026000540361179a5760405162461bcd60e51b81526004016104ec90612a94565b600260008190556117aa81611826565b6001600160a01b038083166000908152600460205260408120805491905560155490916117d99116848361190b565b826001600160a01b03167ffc30cddea38e2bf4d6ea7d3f9ed3b6ad7f176419f4963bd81318067a4aee73fe8260405161181491815260200190565b60405180910390a25050600160005550565b80600381111561183857611838612924565b60015462010000900460ff16600381111561185557611855612924565b1461188057600154604051630c987e3f60e31b81526104ec9162010000900460ff169060040161293a565b80600381111561189257611892612924565b60015462010000900460ff1660038111156118af576118af612924565b146118b957600080fd5b50565b336001600160a01b038216146118f6576040516350a5f40560e01b81526001600160a01b03821660048201523360248201526044016104ec565b336001600160a01b038216146118b957600080fd5b6040516001600160a01b0383166024820152604481018290526111ec90849063a9059cbb60e01b906064015b60408051601f198184030181529190526020810180516001600160e01b03166001600160e01b031990931692909217909152611f28565b600f5442101561199e57600f546040516340968aa760e11b815242600482015260248101919091526044016104ec565b6010544211156106595760105460405163b73065c160e01b815242600482015260248101919091526044016104ec565b6040517f19457468657265756d205369676e6564204d6573736167653a0a3332000000006020820152603c81018690526000908190611a30908490605c0160405160208183030381529060405280519060200120611ffa90919063ffffffff16565b9050856001600160a01b0316816001600160a01b031614611a6457604051638baa579f60e01b815260040160405180910390fd5b6001600160a01b0388163014611a8d57604051638baa579f60e01b815260040160405180910390fd5b42856001600160401b031611611ac95760405163034d689d60e51b81526001600160401b034281166004830152861660248201526044016104ec565b6001600160a01b0386166000908152600c6020908152604080832087845290915290205460ff1615611b205760405163433a6e1f60e11b81526001600160a01b0387166004820152602481018590526044016104ec565b506001979650505050505050565b6001600160a01b0384166000908152600860205260409020805460ff1916831515179055601354835114611b755760405163b0e7ef7b60e01b815260040160405180910390fd5b6001600160a01b03841660009081526003602052604090205415611bac5760405163f45d43bf60e01b815260040160405180910390fd5b6000805b8451811015611c7b5760c8858281518110611bcd57611bcd612f68565b60200260200101511115611c1b57848181518110611bed57611bed612f68565b602002602001015160c8604051633f25723360e01b81526004016104ec929190918252602082015260400190565b848181518110611c2d57611c2d612f68565b602002602001015160138281548110611c4857611c48612f68565b9060005260206000200154611c5d919061338e565b611c679083612cf5565b915080611c7381612f7e565b915050611bb0565b50600e54811015611c9f576040516387af7e9360e01b815260040160405180910390fd5b828015611cad575060075481105b15611cd957600754604051633319c7cb60e11b81526104ec918391600401918252602082015260400190565b60006001600160a01b03831615801590611cf557506000601454115b15611d6f576001600160a01b0383166000908152600360205260408120549003611d32576040516355fbf60160e01b815260040160405180910390fd5b6001600160a01b03831660009081526008602052604090205460ff16611d6b576040516335d001bd60e21b815260040160405180910390fd5b5060015b60008115611e50576002606460145485611d89919061338e565b611d9391906133ad565b611d9d91906133ad565b9050611da98184612ae1565b6001600160a01b038816600090815260096020526040812080549295508392909190611dd6908490612cf5565b90915550506001600160a01b03841660009081526004602052604081208054839290611e03908490612cf5565b925050819055508060056000828254611e1c9190612cf5565b90915550506001600160a01b03878116600090815260066020526040902080546001600160a01b0319169186169190911790555b6001600160a01b0387166000908152600360205260408120849055600a8054859290611e7d908490612cf5565b9091555050601254600a541115611eb657600a54601254604051632b67412f60e21b8152600481019290925260248201526044016104ec565b601554611ece906001600160a01b0316883086612020565b836001600160a01b0316876001600160a01b03167f71dbf623c9864a89c5bbceec652cf931124535b770568d8299451edace1331828886858a604051611f1794939291906133c1565b60405180910390a350505050505050565b6000611f7d826040518060400160405280602081526020017f5361666545524332303a206c6f772d6c6576656c2063616c6c206661696c6564815250856001600160a01b03166120589092919063ffffffff16565b8051909150156111ec5780806020019051810190611f9b919061341a565b6111ec5760405162461bcd60e51b815260206004820152602a60248201527f5361666545524332303a204552433230206f7065726174696f6e20646964206e6044820152691bdd081cdd58d8d9595960b21b60648201526084016104ec565b60008060006120098585612071565b91509150612016816120b6565b5090505b92915050565b6040516001600160a01b03808516602483015283166044820152606481018290526109779085906323b872dd60e01b90608401611937565b60606120678484600085612267565b90505b9392505050565b60008082516041036120a75760208301516040840151606085015160001a61209b87828585612398565b945094505050506120af565b506000905060025b9250929050565b60008160048111156120ca576120ca612924565b036120d25750565b60018160048111156120e6576120e6612924565b0361212e5760405162461bcd60e51b815260206004820152601860248201527745434453413a20696e76616c6964207369676e617475726560401b60448201526064016104ec565b600281600481111561214257612142612924565b0361218f5760405162461bcd60e51b815260206004820152601f60248201527f45434453413a20696e76616c6964207369676e6174757265206c656e6774680060448201526064016104ec565b60038160048111156121a3576121a3612924565b036121fb5760405162461bcd60e51b815260206004820152602260248201527f45434453413a20696e76616c6964207369676e6174757265202773272076616c604482015261756560f01b60648201526084016104ec565b600481600481111561220f5761220f612924565b036118b95760405162461bcd60e51b815260206004820152602260248201527f45434453413a20696e76616c6964207369676e6174757265202776272076616c604482015261756560f01b60648201526084016104ec565b6060824710156122c85760405162461bcd60e51b815260206004820152602660248201527f416464726573733a20696e73756666696369656e742062616c616e636520666f6044820152651c8818d85b1b60d21b60648201526084016104ec565b6001600160a01b0385163b61231f5760405162461bcd60e51b815260206004820152601d60248201527f416464726573733a2063616c6c20746f206e6f6e2d636f6e747261637400000060448201526064016104ec565b600080866001600160a01b0316858760405161233b9190613437565b60006040518083038185875af1925050503d8060008114612378576040519150601f19603f3d011682016040523d82523d6000602084013e61237d565b606091505b509150915061238d82828661247b565b979650505050505050565b6000806fa2a8918ca85bafe22016d0b997e4df60600160ff1b038311156123c55750600090506003612472565b8460ff16601b141580156123dd57508460ff16601c14155b156123ee5750600090506004612472565b6040805160008082526020820180845289905260ff881692820192909252606081018690526080810185905260019060a0016020604051602081039080840390855afa158015612442573d6000803e3d6000fd5b5050604051601f1901519150506001600160a01b03811661246b57600060019250925050612472565b9150600090505b94509492505050565b6060831561248a57508161206a565b82511561249a5782518084602001fd5b8160405162461bcd60e51b81526004016104ec9190612911565b8280548282559060005260206000209081019282156124fa579160200282015b828111156124fa57825182906124ea9082613453565b50916020019190600101906124d4565b50612506929150612551565b5090565b828054828255906000526020600020908101928215612545579160200282015b8281111561254557823582559160200191906001019061252a565b5061250692915061256e565b808211156125065760006125658282612583565b50600101612551565b5b80821115612506576000815560010161256f565b50805461258f90612d08565b6000825580601f1061259f575050565b601f0160209004906000526020600020908101906118b9919061256e565b6000602082840312156125cf57600080fd5b5035919050565b6001600160a01b03811681146118b957600080fd5b6000602082840312156125fd57600080fd5b813561206a816125d6565b60008083601f84011261261a57600080fd5b5081356001600160401b0381111561263157600080fd5b6020830191508360208285010111156120af57600080fd5b6000806000806040858703121561265f57600080fd5b84356001600160401b038082111561267657600080fd5b61268288838901612608565b9096509450602087013591508082111561269b57600080fd5b506126a887828801612608565b95989497509550505050565b600080604083850312156126c757600080fd5b82356126d2816125d6565b946020939093013593505050565b634e487b7160e01b600052604160045260246000fd5b604051601f8201601f191681016001600160401b038111828210171561271e5761271e6126e0565b604052919050565b60006001600160401b0382111561273f5761273f6126e0565b5060051b60200190565b60006001600160401b03831115612762576127626126e0565b612775601f8401601f19166020016126f6565b905082815283838301111561278957600080fd5b828260208301376000602084830101529392505050565b600060208083850312156127b357600080fd5b82356001600160401b03808211156127ca57600080fd5b818501915085601f8301126127de57600080fd5b81356127f16127ec82612726565b6126f6565b81815260059190911b8301840190848101908883111561281057600080fd5b8585015b8381101561285d5780358581111561282c5760008081fd5b8601603f81018b1361283e5760008081fd5b61284f8b8983013560408401612749565b845250918601918601612814565b5098975050505050505050565b6000806040838503121561287d57600080fd5b8235612888816125d6565b915060208301356001600160401b038111156128a357600080fd5b830161016081860312156128b657600080fd5b809150509250929050565b60005b838110156128dc5781810151838201526020016128c4565b50506000910152565b600081518084526128fd8160208601602086016128c1565b601f01601f19169290920160200192915050565b60208152600061206a60208301846128e5565b634e487b7160e01b600052602160045260246000fd5b602081016004831061295c57634e487b7160e01b600052602160045260246000fd5b91905290565b60008083601f84011261297457600080fd5b5081356001600160401b0381111561298b57600080fd5b6020830191508360208260051b85010111156120af57600080fd5b6000806000604084860312156129bb57600080fd5b83356129c6816125d6565b925060208401356001600160401b038111156129e157600080fd5b6129ed86828701612962565b9497909650939450505050565b80151581146118b957600080fd5b8035612a13816129fa565b919050565b600080600080600060808688031215612a3057600080fd5b8535612a3b816125d6565b945060208601356001600160401b03811115612a5657600080fd5b612a6288828901612962565b9095509350506040860135612a76816129fa565b91506060860135612a86816125d6565b809150509295509295909350565b6020808252601f908201527f5265656e7472616e637947756172643a207265656e7472616e742063616c6c00604082015260600190565b634e487b7160e01b600052601160045260246000fd5b8181038181111561201a5761201a612acb565b8035612a13816125d6565b60008060008060808587031215612b1557600080fd5b8435612b20816125d6565b93506020858101356001600160401b03811115612b3c57600080fd5b8601601f81018813612b4d57600080fd5b8035612b5b6127ec82612726565b81815260059190911b8201830190838101908a831115612b7a57600080fd5b928401925b82841015612b9857833582529284019290840190612b7f565b8097505050505050612bac60408601612a08565b9150612bba60608601612af4565b905092959194509250565b60008060008060808587031215612bdb57600080fd5b8435612be6816125d6565b935060208501356001600160401b038082168214612c0357600080fd5b9093506040860135925060608601359080821115612c2057600080fd5b508501601f81018713612c3257600080fd5b612c4187823560208401612749565b91505092959194509250565b60006bffffffffffffffffffffffff19808a60601b168352808960601b166014840152506028820187516020808a0160005b83811015612c9b57815185529382019390820190600101612c7f565b5050505086151560f81b8152612cc5600182018760601b6bffffffffffffffffffffffff19169052565b612cde601582018660c01b6001600160c01b0319169052565b601d8101939093525050603d019695505050505050565b8082018082111561201a5761201a612acb565b600181811c90821680612d1c57607f821691505b602082108103612d3c57634e487b7160e01b600052602260045260246000fd5b50919050565b600081835483915060008581526020808220825b84811015612dd257838254612d6a81612d08565b60018281168015612d825760018114612d9857612dbf565b60ff1984168b5282151560051b8b019450612dbf565b868952878920895b84811015612db95781548d820152908301908901612da0565b8c019550505b5092985050509190910190600101612d56565b5093979650505050505050565b634e487b7160e01b600052601260045260246000fd5b600082612e0457612e04612ddf565b500690565b600060208284031215612e1b57600080fd5b815160ff8116811461206a57600080fd5b600181815b80851115612e67578160001904821115612e4d57612e4d612acb565b80851615612e5a57918102915b93841c9390800290612e31565b509250929050565b600082612e7e5750600161201a565b81612e8b5750600061201a565b8160018114612ea15760028114612eab57612ec7565b600191505061201a565b60ff841115612ebc57612ebc612acb565b50506001821b61201a565b5060208310610133831016604e8410600b8410161715612eea575081810a61201a565b612ef48383612e2c565b8060001904821115612f0857612f08612acb565b029392505050565b600061206a60ff841683612e6f565b6000808335601e19843603018112612f3657600080fd5b8301803591506001600160401b03821115612f5057600080fd5b6020019150600581901b36038213156120af57600080fd5b634e487b7160e01b600052603260045260246000fd5b600060018201612f9057612f90612acb565b5060010190565b6000808335601e19843603018112612fae57600080fd5b8301803591506001600160401b03821115612fc857600080fd5b6020019150368190038213156120af57600080fd5b601f8211156111ec57600081815260208120601f850160051c810160208610156130045750805b601f850160051c820191505b8181101561302357828155600101613010565b505050505050565b600019600383901b1c191660019190911b1790565b6001600160401b03831115613057576130576126e0565b61306b836130658354612d08565b83612fdd565b6000601f84116001811461309957600085156130875750838201355b613091868261302b565b845550611771565b600083815260209020601f19861690835b828110156130ca57868501358255602094850194600190920191016130aa565b50868210156130e75760001960f88860031b161c19848701351681555b505060018560011b0183555050505050565b6000815461310681612d08565b808552602060018381168015613123576001811461313d5761316b565b60ff1985168884015283151560051b88018301955061316b565b866000528260002060005b858110156131635781548a8201860152908301908401613148565b890184019650505b505050505092915050565b6001600160a01b038b16815260208082018b9052604082018a9052606082018990526080820188905261014060a08301819052875490830181905260008881528281209092610160850192845b818110156131df578354855293820193600193840193016131c3565b505050508660c08401528560e084015282810361010084015261320281866130f9565b91505061321b6101208301846001600160a01b03169052565b9b9a5050505050505050505050565b81835260006001600160fb1b0383111561324357600080fd5b8260051b80836020870137939093016020019392505050565b600060018060a01b038089168352808816602084015260a0604084015261328760a08401878961322a565b94151560608401529290921660809091015250949350505050565b600060018060a01b038088168352608060208401526132c560808401878961322a565b941515604084015292909216606090910152509392505050565b600060a0820160018060a01b0388168352602060a08185015281885480845260c08601915060c08160051b8701019350896000528260002060005b828110156133475787860360bf1901845261333586836130f9565b9550928401926001918201910161331a565b5050505050828103604084015261335e81876128e5565b6001600160e01b0319861660608501529050828103608084015261338281856128e5565b98975050505050505050565b60008160001904831182151516156133a8576133a8612acb565b500290565b6000826133bc576133bc612ddf565b500490565b6080808252855190820181905260009060209060a0840190828901845b828110156133fa578151845292840192908401906001016133de565b505050908301959095525060408101929092521515606090910152919050565b60006020828403121561342c57600080fd5b815161206a816129fa565b600082516134498184602087016128c1565b9190910192915050565b81516001600160401b0381111561346c5761346c6126e0565b6134808161347a8454612d08565b84612fdd565b602080601f8311600181146134af576000841561349d5750858301515b6134a7858261302b565b865550613023565b600085815260208120601f198616915b828110156134de578886015182559484019460019091019084016134bf565b50858210156134fc5787850151600019600388901b60f8161c191681555b5050505050600190811b0190555056fea2646970667358221220de3052284d9323ccb89076eb90712c4d859b920b918b22130be03abd3bd411d764736f6c63430008100033",
  "devdoc": {
    "author": "Crowdtainer.eth",
    "kind": "dev",
    "methods": {
      "initialize(address,(address,address,uint256,uint256,uint256,uint256,uint256[],uint256,uint256,address,string))": {
        "params": {
          "_campaignData": "Data defining all rules and values of this Crowdtainer instance.",
          "_owner": "The contract owning this Crowdtainer instance, if any (address(0x0) for no owner)."
        }
      },
      "join(address,uint256[])": {
        "details": "This method is present to make wallet interactions more friendly, by requiring fewer parameters for projects with referral system disabled.Requires IERC20 permit.",
        "params": {
          "_quantities": "Array with the number of units desired for each product.",
          "_wallet": "The wallet that is joining the Crowdtainer. Must be the msg.sender if Crowdtainer owner is address(0x0)."
        }
      },
      "join(address,uint256[],bool,address)": {
        "details": "Requires IERC20 permit.referrer is the wallet address of a previous participant.if `enableReferral` is true, and the user decides to leave after the wallet has been used to claim a discount,       then the full value can't be claimed if deciding to leave the project.A same user is not allowed to increase the order amounts (i.e., by calling join multiple times).      To 'update' an order, the user must first 'leave' then join again with the new values.",
        "params": {
          "_enableReferral": "Informs whether the user would like to be eligible to collect rewards for being referred.",
          "_quantities": "Array with the number of units desired for each product.",
          "_referrer": "Optional referral code to be used to claim a discount.",
          "_wallet": "The wallet that is joining the Crowdtainer. Must be the msg.sender if Crowdtainer owner is address(0x0)."
        }
      },
      "joinWithSignature(bytes,bytes)": {
        "details": "Requires IRC20 permit.",
        "params": {
          "extraData": "ABI encoded parameters for _join() method.",
          "result": "(uint64, bytes) of signature validity and the signature itself."
        }
      },
      "leave(address)": {
        "details": "Only allowed if the respective Crowdtainer is in active `Funding` state.",
        "params": {
          "_wallet": "The wallet that is leaving the Crowdtainer."
        }
      }
    },
    "stateVariables": {
      "owner": {
        "details": "Has permissions to call: initialize(), join() and leave() functions. These functions are optionallygated so that an owner contract can do special accounting (such as an EIP721-compliant contract as its owner)."
      },
      "shippingAgent": {
        "details": "Allowed to call getPaidAndDeliver(), abortProject() and set signer address."
      },
      "unitPricePerType": {
        "details": "The price should be given in the number of smallest unit for precision (e.g 10^18 == 1 DAI)."
      }
    },
    "title": "Crowdtainer contract",
    "version": 1
  },
  "userdoc": {
    "events": {
      "CCIPURLChanged(string[])": {
        "notice": "Emmited when CCIP-read URLs changes."
      },
      "CrowdtainerCreated(address,address)": {
        "notice": "Emmited when a Crowdtainer is created."
      },
      "CrowdtainerInitialized(address,address,uint256,uint256,uint256,uint256,uint256[],uint256,uint256,string,address)": {
        "notice": "Emmited when a Crowdtainer is initialized."
      },
      "Joined(address,uint256[],address,uint256,uint256,bool)": {
        "notice": "Emmited when a user joins, signalling participation intent."
      },
      "SignerChanged(address)": {
        "notice": "Emmited when the signer changes."
      }
    },
    "kind": "user",
    "methods": {
      "abortProject()": {
        "notice": "Function used by project deployer to signal that it is no longer possible to the ship service or product.         This puts the project into `Failed` state and participants can withdraw their funds."
      },
      "accumulatedRewards()": {
        "notice": "Total rewards claimable for project."
      },
      "accumulatedRewardsOf(address)": {
        "notice": "Maps accounts to accumulated referral rewards."
      },
      "claimFunds()": {
        "notice": "Function used by participants to withdraw funds from a failed/expired project."
      },
      "claimFunds(address)": {
        "notice": "Function to withdraw funds from a failed/expired project back to the participant, with sponsored transaction."
      },
      "claimRewards()": {
        "notice": "Function used by participants to withdraw referral rewards from a successful project."
      },
      "claimRewards(address)": {
        "notice": "Function to withdraw referral rewards from a successful project, with sponsored transaction."
      },
      "costForWallet(address)": {
        "notice": "Maps wallets that joined this Crowdtainer to the values they paid to join."
      },
      "discountForUser(address)": {
        "notice": "Maps the total discount for each user."
      },
      "enableReferral(address)": {
        "notice": "Wether an account has opted into being elibible for referral rewards."
      },
      "expireTime()": {
        "notice": "Time after which it is no longer possible for the service or product provider to withdraw funds."
      },
      "getPaidAndDeliver()": {
        "notice": "Function used by the service provider to signal commitment to ship service or product by withdrawing/receiving the payment."
      },
      "getSigner()": {
        "notice": "Address used for signing authorizations. This allows for arbitrary off-chain mechanisms to apply law-based restrictions and/or combat bots squatting offered items.If signer equals to address(0), no restriction is applied."
      },
      "initialize(address,(address,address,uint256,uint256,uint256,uint256,uint256[],uint256,uint256,address,string))": {
        "notice": "Initializes a Crowdtainer."
      },
      "join(address,uint256[])": {
        "notice": "Join the Crowdtainer project."
      },
      "join(address,uint256[],bool,address)": {
        "notice": "Join the Crowdtainer project with optional referral and discount."
      },
      "joinWithSignature(bytes,bytes)": {
        "notice": "Allows joining by means of CCIP-READ (EIP-3668)."
      },
      "leave(address)": {
        "notice": "Leave the Crowdtainer and withdraw deposited funds given when joining.Calling this method signals that the participant is no longer interested in the project."
      },
      "legalContractURI()": {
        "notice": "URI string pointing to the legal terms and conditions ruling this project."
      },
      "openingTime()": {
        "notice": "Time after which it is possible to join this Crowdtainer."
      },
      "owner()": {
        "notice": "Owner of this contract."
      },
      "referralRate()": {
        "notice": "Half of the value act as a discount for a new participant using an existing referral code, and the other half is given for the participant making a referral. The former is similar to the 'cash discount device' in stamp era, while the latter is a reward for contributing to the Crowdtainer by incentivising participation from others."
      },
      "referrerOfReferee(address)": {
        "notice": "Maps referee to referrer."
      },
      "shippingAgent()": {
        "notice": "The entity or person responsible for the delivery of this crowdtainer project."
      },
      "targetMaximum()": {
        "notice": "Amount in ERC20 units after which no further participation is possible."
      },
      "targetMinimum()": {
        "notice": "Minimum amount in ERC20 units required for Crowdtainer to be considered to be successful."
      },
      "token()": {
        "notice": "Address of the ERC20 token used for payment."
      },
      "totalValueRaised()": {
        "notice": "The total value raised/accumulated by this contract."
      },
      "unitPricePerType(uint256)": {
        "notice": "The price for each unit type."
      },
      "urls(uint256)": {
        "notice": "URL templates to the service provider's gateways that implement the CCIP-read protocol."
      },
      "usedNonces(address,bytes32)": {
        "notice": "Mapping of addresses to random nonces; Used for transaction replay protection."
      }
    },
    "version": 1
  },
  "storageLayout": {
    "storage": [
      {
        "astId": 241,
        "contract": "src/contracts/Crowdtainer.sol:Crowdtainer",
        "label": "_status",
        "offset": 0,
        "slot": "0",
        "type": "t_uint256"
      },
      {
        "astId": 86,
        "contract": "src/contracts/Crowdtainer.sol:Crowdtainer",
        "label": "_initialized",
        "offset": 0,
        "slot": "1",
        "type": "t_uint8"
      },
      {
        "astId": 89,
        "contract": "src/contracts/Crowdtainer.sol:Crowdtainer",
        "label": "_initializing",
        "offset": 1,
        "slot": "1",
        "type": "t_bool"
      },
      {
        "astId": 3297,
        "contract": "src/contracts/Crowdtainer.sol:Crowdtainer",
        "label": "crowdtainerState",
        "offset": 2,
        "slot": "1",
        "type": "t_enum(CrowdtainerState)5708"
      },
      {
        "astId": 3300,
        "contract": "src/contracts/Crowdtainer.sol:Crowdtainer",
        "label": "owner",
        "offset": 3,
        "slot": "1",
        "type": "t_address"
      },
      {
        "astId": 3303,
        "contract": "src/contracts/Crowdtainer.sol:Crowdtainer",
        "label": "shippingAgent",
        "offset": 0,
        "slot": "2",
        "type": "t_address"
      },
      {
        "astId": 3308,
        "contract": "src/contracts/Crowdtainer.sol:Crowdtainer",
        "label": "costForWallet",
        "offset": 0,
        "slot": "3",
        "type": "t_mapping(t_address,t_uint256)"
      },
      {
        "astId": 3313,
        "contract": "src/contracts/Crowdtainer.sol:Crowdtainer",
        "label": "accumulatedRewardsOf",
        "offset": 0,
        "slot": "4",
        "type": "t_mapping(t_address,t_uint256)"
      },
      {
        "astId": 3316,
        "contract": "src/contracts/Crowdtainer.sol:Crowdtainer",
        "label": "accumulatedRewards",
        "offset": 0,
        "slot": "5",
        "type": "t_uint256"
      },
      {
        "astId": 3321,
        "contract": "src/contracts/Crowdtainer.sol:Crowdtainer",
        "label": "referrerOfReferee",
        "offset": 0,
        "slot": "6",
        "type": "t_mapping(t_address,t_address)"
      },
      {
        "astId": 3323,
        "contract": "src/contracts/Crowdtainer.sol:Crowdtainer",
        "label": "referralEligibilityValue",
        "offset": 0,
        "slot": "7",
        "type": "t_uint256"
      },
      {
        "astId": 3328,
        "contract": "src/contracts/Crowdtainer.sol:Crowdtainer",
        "label": "enableReferral",
        "offset": 0,
        "slot": "8",
        "type": "t_mapping(t_address,t_bool)"
      },
      {
        "astId": 3333,
        "contract": "src/contracts/Crowdtainer.sol:Crowdtainer",
        "label": "discountForUser",
        "offset": 0,
        "slot": "9",
        "type": "t_mapping(t_address,t_uint256)"
      },
      {
        "astId": 3336,
        "contract": "src/contracts/Crowdtainer.sol:Crowdtainer",
        "label": "totalValueRaised",
        "offset": 0,
        "slot": "10",
        "type": "t_uint256"
      },
      {
        "astId": 3339,
        "contract": "src/contracts/Crowdtainer.sol:Crowdtainer",
        "label": "signer",
        "offset": 0,
        "slot": "11",
        "type": "t_address"
      },
      {
        "astId": 3346,
        "contract": "src/contracts/Crowdtainer.sol:Crowdtainer",
        "label": "usedNonces",
        "offset": 0,
        "slot": "12",
        "type": "t_mapping(t_address,t_mapping(t_bytes32,t_bool))"
      },
      {
        "astId": 3350,
        "contract": "src/contracts/Crowdtainer.sol:Crowdtainer",
        "label": "urls",
        "offset": 0,
        "slot": "13",
        "type": "t_array(t_string_storage)dyn_storage"
      },
      {
        "astId": 3352,
        "contract": "src/contracts/Crowdtainer.sol:Crowdtainer",
        "label": "oneUnit",
        "offset": 0,
        "slot": "14",
        "type": "t_uint256"
      },
      {
        "astId": 3518,
        "contract": "src/contracts/Crowdtainer.sol:Crowdtainer",
        "label": "openingTime",
        "offset": 0,
        "slot": "15",
        "type": "t_uint256"
      },
      {
        "astId": 3521,
        "contract": "src/contracts/Crowdtainer.sol:Crowdtainer",
        "label": "expireTime",
        "offset": 0,
        "slot": "16",
        "type": "t_uint256"
      },
      {
        "astId": 3524,
        "contract": "src/contracts/Crowdtainer.sol:Crowdtainer",
        "label": "targetMinimum",
        "offset": 0,
        "slot": "17",
        "type": "t_uint256"
      },
      {
        "astId": 3527,
        "contract": "src/contracts/Crowdtainer.sol:Crowdtainer",
        "label": "targetMaximum",
        "offset": 0,
        "slot": "18",
        "type": "t_uint256"
      },
      {
        "astId": 3531,
        "contract": "src/contracts/Crowdtainer.sol:Crowdtainer",
        "label": "unitPricePerType",
        "offset": 0,
        "slot": "19",
        "type": "t_array(t_uint256)dyn_storage"
      },
      {
        "astId": 3534,
        "contract": "src/contracts/Crowdtainer.sol:Crowdtainer",
        "label": "referralRate",
        "offset": 0,
        "slot": "20",
        "type": "t_uint256"
      },
      {
        "astId": 3538,
        "contract": "src/contracts/Crowdtainer.sol:Crowdtainer",
        "label": "token",
        "offset": 0,
        "slot": "21",
        "type": "t_contract(IERC20)348"
      },
      {
        "astId": 3541,
        "contract": "src/contracts/Crowdtainer.sol:Crowdtainer",
        "label": "legalContractURI",
        "offset": 0,
        "slot": "22",
        "type": "t_string_storage"
      }
    ],
    "types": {
      "t_address": {
        "encoding": "inplace",
        "label": "address",
        "numberOfBytes": "20"
      },
      "t_array(t_string_storage)dyn_storage": {
        "base": "t_string_storage",
        "encoding": "dynamic_array",
        "label": "string[]",
        "numberOfBytes": "32"
      },
      "t_array(t_uint256)dyn_storage": {
        "base": "t_uint256",
        "encoding": "dynamic_array",
        "label": "uint256[]",
        "numberOfBytes": "32"
      },
      "t_bool": {
        "encoding": "inplace",
        "label": "bool",
        "numberOfBytes": "1"
      },
      "t_bytes32": {
        "encoding": "inplace",
        "label": "bytes32",
        "numberOfBytes": "32"
      },
      "t_contract(IERC20)348": {
        "encoding": "inplace",
        "label": "contract IERC20",
        "numberOfBytes": "20"
      },
      "t_enum(CrowdtainerState)5708": {
        "encoding": "inplace",
        "label": "enum CrowdtainerState",
        "numberOfBytes": "1"
      },
      "t_mapping(t_address,t_address)": {
        "encoding": "mapping",
        "key": "t_address",
        "label": "mapping(address => address)",
        "numberOfBytes": "32",
        "value": "t_address"
      },
      "t_mapping(t_address,t_bool)": {
        "encoding": "mapping",
        "key": "t_address",
        "label": "mapping(address => bool)",
        "numberOfBytes": "32",
        "value": "t_bool"
      },
      "t_mapping(t_address,t_mapping(t_bytes32,t_bool))": {
        "encoding": "mapping",
        "key": "t_address",
        "label": "mapping(address => mapping(bytes32 => bool))",
        "numberOfBytes": "32",
        "value": "t_mapping(t_bytes32,t_bool)"
      },
      "t_mapping(t_address,t_uint256)": {
        "encoding": "mapping",
        "key": "t_address",
        "label": "mapping(address => uint256)",
        "numberOfBytes": "32",
        "value": "t_uint256"
      },
      "t_mapping(t_bytes32,t_bool)": {
        "encoding": "mapping",
        "key": "t_bytes32",
        "label": "mapping(bytes32 => bool)",
        "numberOfBytes": "32",
        "value": "t_bool"
      },
      "t_string_storage": {
        "encoding": "bytes",
        "label": "string",
        "numberOfBytes": "32"
      },
      "t_uint256": {
        "encoding": "inplace",
        "label": "uint256",
        "numberOfBytes": "32"
      },
      "t_uint8": {
        "encoding": "inplace",
        "label": "uint8",
        "numberOfBytes": "1"
      }
    }
  }
}