{
  "address": "0xCf7Ed3AccA5a467e9e704C703E8D87F634fB0Fc9",
  "abi": [
    {
      "inputs": [
        {
          "internalType": "address",
          "name": "expected",
          "type": "address"
        },
        {
          "internalType": "address",
          "name": "actual",
          "type": "address"
        }
      ],
      "name": "CallerNotAllowed",
      "type": "error"
    },
    {
      "inputs": [],
      "name": "CannotLeaveDueAccumulatedReferralCredits",
      "type": "error"
    },
    {
      "inputs": [],
      "name": "CantClaimFundsOnActiveProject",
      "type": "error"
    },
    {
      "inputs": [],
      "name": "ClosingTimeTooEarly",
      "type": "error"
    },
    {
      "inputs": [
        {
          "internalType": "uint256",
          "name": "timestamp",
          "type": "uint256"
        },
        {
          "internalType": "uint256",
          "name": "expiredTime",
          "type": "uint256"
        }
      ],
      "name": "CrowdtainerExpired",
      "type": "error"
    },
    {
      "inputs": [
        {
          "internalType": "uint256",
          "name": "received",
          "type": "uint256"
        },
        {
          "internalType": "uint256",
          "name": "maximum",
          "type": "uint256"
        }
      ],
      "name": "ExceededNumberOfItemsAllowed",
      "type": "error"
    },
    {
      "inputs": [],
      "name": "InvalidMaximumTarget",
      "type": "error"
    },
    {
      "inputs": [],
      "name": "InvalidMinimumTarget",
      "type": "error"
    },
    {
      "inputs": [
        {
          "internalType": "enum CrowdtainerState",
          "name": "state",
          "type": "uint8"
        }
      ],
      "name": "InvalidOperationFor",
      "type": "error"
    },
    {
      "inputs": [
        {
          "internalType": "uint256",
          "name": "received",
          "type": "uint256"
        },
        {
          "internalType": "uint256",
          "name": "maximum",
          "type": "uint256"
        }
      ],
      "name": "InvalidReferralRate",
      "type": "error"
    },
    {
      "inputs": [
        {
          "internalType": "uint256",
          "name": "received",
          "type": "uint256"
        },
        {
          "internalType": "uint256",
          "name": "minimum",
          "type": "uint256"
        }
      ],
      "name": "MinimumPurchaseValueForReferralNotMet",
      "type": "error"
    },
    {
      "inputs": [],
      "name": "MinimumTargetHigherThanMaximum",
      "type": "error"
    },
    {
      "inputs": [
        {
          "internalType": "uint256",
          "name": "minimum",
          "type": "uint256"
        },
        {
          "internalType": "uint256",
          "name": "actual",
          "type": "uint256"
        }
      ],
      "name": "MinimumTargetNotReached",
      "type": "error"
    },
    {
      "inputs": [
        {
          "internalType": "uint256",
          "name": "timestamp",
          "type": "uint256"
        },
        {
          "internalType": "uint256",
          "name": "openingTime",
          "type": "uint256"
        }
      ],
      "name": "OpeningTimeNotReachedYet",
      "type": "error"
    },
    {
      "inputs": [
        {
          "internalType": "uint256",
          "name": "received",
          "type": "uint256"
        },
        {
          "internalType": "uint256",
          "name": "maximum",
          "type": "uint256"
        }
      ],
      "name": "PurchaseExceedsMaximumTarget",
      "type": "error"
    },
    {
      "inputs": [],
      "name": "ReferralDisabledForProvidedCode",
      "type": "error"
    },
    {
      "inputs": [],
      "name": "ReferralInexistent",
      "type": "error"
    },
    {
      "inputs": [
        {
          "internalType": "uint256",
          "name": "received",
          "type": "uint256"
        },
        {
          "internalType": "uint256",
          "name": "maximum",
          "type": "uint256"
        }
      ],
      "name": "ReferralMinimumValueTooHigh",
      "type": "error"
    },
    {
      "inputs": [],
      "name": "ReferralRateNotMultipleOfTwo",
      "type": "error"
    },
    {
      "inputs": [],
      "name": "ShippingAgentAddressIsZero",
      "type": "error"
    },
    {
      "inputs": [],
      "name": "TokenAddressIsZero",
      "type": "error"
    },
    {
      "inputs": [],
      "name": "UserAlreadyJoined",
      "type": "error"
    },
    {
      "anonymous": false,
      "inputs": [
        {
          "indexed": true,
          "internalType": "address",
          "name": "owner",
          "type": "address"
        },
        {
          "indexed": true,
          "internalType": "address",
          "name": "shippingAgent",
          "type": "address"
        }
      ],
      "name": "CrowdtainerCreated",
      "type": "event"
    },
    {
      "anonymous": false,
      "inputs": [
        {
          "indexed": true,
          "internalType": "address",
          "name": "shippingAgent",
          "type": "address"
        },
        {
          "indexed": false,
          "internalType": "uint256",
          "name": "totalValueRaised",
          "type": "uint256"
        }
      ],
      "name": "CrowdtainerInDeliveryStage",
      "type": "event"
    },
    {
      "anonymous": false,
      "inputs": [
        {
          "indexed": true,
          "internalType": "contract IERC20",
          "name": "_token",
          "type": "address"
        },
        {
          "indexed": false,
          "internalType": "uint256",
          "name": "_openingTime",
          "type": "uint256"
        },
        {
          "indexed": false,
          "internalType": "uint256",
          "name": "_expireTime",
          "type": "uint256"
        },
        {
          "indexed": false,
          "internalType": "uint256",
          "name": "_targetMinimum",
          "type": "uint256"
        },
        {
          "indexed": false,
          "internalType": "uint256",
          "name": "_targetMaximum",
          "type": "uint256"
        },
        {
          "indexed": false,
          "internalType": "uint256[4]",
          "name": "_unitPricePerType",
          "type": "uint256[4]"
        },
        {
          "indexed": false,
          "internalType": "uint256",
          "name": "_referralRate",
          "type": "uint256"
        }
      ],
      "name": "CrowdtainerInitialized",
      "type": "event"
    },
    {
      "anonymous": false,
      "inputs": [
        {
          "indexed": true,
          "internalType": "address",
          "name": "wallet",
          "type": "address"
        },
        {
          "indexed": false,
          "internalType": "uint256",
          "name": "withdrawnAmount",
          "type": "uint256"
        }
      ],
      "name": "FundsClaimed",
      "type": "event"
    },
    {
      "anonymous": false,
      "inputs": [
        {
          "indexed": true,
          "internalType": "address",
          "name": "wallet",
          "type": "address"
        },
        {
          "indexed": false,
          "internalType": "uint256[4]",
          "name": "quantities",
          "type": "uint256[4]"
        },
        {
          "indexed": true,
          "internalType": "address",
          "name": "referrer",
          "type": "address"
        },
        {
          "indexed": false,
          "internalType": "uint256",
          "name": "finalCost",
          "type": "uint256"
        },
        {
          "indexed": false,
          "internalType": "uint256",
          "name": "appliedDiscount",
          "type": "uint256"
        },
        {
          "indexed": false,
          "internalType": "bool",
          "name": "referralEnabled",
          "type": "bool"
        }
      ],
      "name": "Joined",
      "type": "event"
    },
    {
      "anonymous": false,
      "inputs": [
        {
          "indexed": true,
          "internalType": "address",
          "name": "wallet",
          "type": "address"
        },
        {
          "indexed": false,
          "internalType": "uint256",
          "name": "withdrawnAmount",
          "type": "uint256"
        }
      ],
      "name": "Left",
      "type": "event"
    },
    {
      "anonymous": false,
      "inputs": [
        {
          "indexed": true,
          "internalType": "address",
          "name": "wallet",
          "type": "address"
        },
        {
          "indexed": false,
          "internalType": "uint256",
          "name": "withdrawnAmount",
          "type": "uint256"
        }
      ],
      "name": "RewardsClaimed",
      "type": "event"
    },
    {
      "inputs": [],
      "name": "abortProject",
      "outputs": [],
      "stateMutability": "nonpayable",
      "type": "function"
    },
    {
      "inputs": [],
      "name": "accumulatedRewards",
      "outputs": [
        {
          "internalType": "uint256",
          "name": "",
          "type": "uint256"
        }
      ],
      "stateMutability": "view",
      "type": "function"
    },
    {
      "inputs": [
        {
          "internalType": "address",
          "name": "",
          "type": "address"
        }
      ],
      "name": "accumulatedRewardsOf",
      "outputs": [
        {
          "internalType": "uint256",
          "name": "",
          "type": "uint256"
        }
      ],
      "stateMutability": "view",
      "type": "function"
    },
    {
      "inputs": [],
      "name": "claimFunds",
      "outputs": [],
      "stateMutability": "nonpayable",
      "type": "function"
    },
    {
      "inputs": [],
      "name": "claimRewards",
      "outputs": [],
      "stateMutability": "nonpayable",
      "type": "function"
    },
    {
      "inputs": [],
      "name": "crowdtainerState",
      "outputs": [
        {
          "internalType": "enum CrowdtainerState",
          "name": "",
          "type": "uint8"
        }
      ],
      "stateMutability": "view",
      "type": "function"
    },
    {
      "inputs": [
        {
          "internalType": "address",
          "name": "",
          "type": "address"
        }
      ],
      "name": "discountForUser",
      "outputs": [
        {
          "internalType": "uint256",
          "name": "",
          "type": "uint256"
        }
      ],
      "stateMutability": "view",
      "type": "function"
    },
    {
      "inputs": [],
      "name": "expireTime",
      "outputs": [
        {
          "internalType": "uint256",
          "name": "",
          "type": "uint256"
        }
      ],
      "stateMutability": "view",
      "type": "function"
    },
    {
      "inputs": [],
      "name": "getPaidAndDeliver",
      "outputs": [],
      "stateMutability": "nonpayable",
      "type": "function"
    },
    {
      "inputs": [
        {
          "internalType": "address",
          "name": "_owner",
          "type": "address"
        },
        {
          "components": [
            {
              "internalType": "address",
              "name": "shippingAgent",
              "type": "address"
            },
            {
              "internalType": "uint256",
              "name": "openingTime",
              "type": "uint256"
            },
            {
              "internalType": "uint256",
              "name": "expireTime",
              "type": "uint256"
            },
            {
              "internalType": "uint256",
              "name": "targetMinimum",
              "type": "uint256"
            },
            {
              "internalType": "uint256",
              "name": "targetMaximum",
              "type": "uint256"
            },
            {
              "internalType": "uint256[4]",
              "name": "unitPricePerType",
              "type": "uint256[4]"
            },
            {
              "internalType": "uint256",
              "name": "referralRate",
              "type": "uint256"
            },
            {
              "internalType": "uint256",
              "name": "referralEligibilityValue",
              "type": "uint256"
            },
            {
              "internalType": "address",
              "name": "token",
              "type": "address"
            }
          ],
          "internalType": "struct CampaignData",
          "name": "_campaignData",
          "type": "tuple"
        }
      ],
      "name": "initialize",
      "outputs": [],
      "stateMutability": "nonpayable",
      "type": "function"
    },
    {
      "inputs": [],
      "name": "invariant",
      "outputs": [],
      "stateMutability": "view",
      "type": "function"
    },
    {
      "inputs": [
        {
          "internalType": "address",
          "name": "_wallet",
          "type": "address"
        },
        {
          "internalType": "uint256[4]",
          "name": "_quantities",
          "type": "uint256[4]"
        },
        {
          "internalType": "bool",
          "name": "_enableReferral",
          "type": "bool"
        },
        {
          "internalType": "address",
          "name": "_referrer",
          "type": "address"
        }
      ],
      "name": "join",
      "outputs": [],
      "stateMutability": "nonpayable",
      "type": "function"
    },
    {
      "inputs": [
        {
          "internalType": "address",
          "name": "_wallet",
          "type": "address"
        }
      ],
      "name": "leave",
      "outputs": [],
      "stateMutability": "nonpayable",
      "type": "function"
    },
    {
      "inputs": [],
      "name": "numberOfProducts",
      "outputs": [
        {
          "internalType": "uint256",
          "name": "",
          "type": "uint256"
        }
      ],
      "stateMutability": "view",
      "type": "function"
    },
    {
      "inputs": [],
      "name": "openingTime",
      "outputs": [
        {
          "internalType": "uint256",
          "name": "",
          "type": "uint256"
        }
      ],
      "stateMutability": "view",
      "type": "function"
    },
    {
      "inputs": [],
      "name": "owner",
      "outputs": [
        {
          "internalType": "address",
          "name": "",
          "type": "address"
        }
      ],
      "stateMutability": "view",
      "type": "function"
    },
    {
      "inputs": [],
      "name": "referralEligibilityValue",
      "outputs": [
        {
          "internalType": "uint256",
          "name": "",
          "type": "uint256"
        }
      ],
      "stateMutability": "view",
      "type": "function"
    },
    {
      "inputs": [],
      "name": "referralRate",
      "outputs": [
        {
          "internalType": "uint256",
          "name": "",
          "type": "uint256"
        }
      ],
      "stateMutability": "view",
      "type": "function"
    },
    {
      "inputs": [
        {
          "internalType": "address",
          "name": "",
          "type": "address"
        }
      ],
      "name": "referrerOfReferee",
      "outputs": [
        {
          "internalType": "address",
          "name": "",
          "type": "address"
        }
      ],
      "stateMutability": "view",
      "type": "function"
    },
    {
      "inputs": [],
      "name": "shippingAgent",
      "outputs": [
        {
          "internalType": "address",
          "name": "",
          "type": "address"
        }
      ],
      "stateMutability": "view",
      "type": "function"
    },
    {
      "inputs": [],
      "name": "targetMaximum",
      "outputs": [
        {
          "internalType": "uint256",
          "name": "",
          "type": "uint256"
        }
      ],
      "stateMutability": "view",
      "type": "function"
    },
    {
      "inputs": [],
      "name": "targetMinimum",
      "outputs": [
        {
          "internalType": "uint256",
          "name": "",
          "type": "uint256"
        }
      ],
      "stateMutability": "view",
      "type": "function"
    },
    {
      "inputs": [],
      "name": "token",
      "outputs": [
        {
          "internalType": "contract IERC20",
          "name": "",
          "type": "address"
        }
      ],
      "stateMutability": "view",
      "type": "function"
    },
    {
      "inputs": [],
      "name": "totalValueRaised",
      "outputs": [
        {
          "internalType": "uint256",
          "name": "",
          "type": "uint256"
        }
      ],
      "stateMutability": "view",
      "type": "function"
    },
    {
      "inputs": [
        {
          "internalType": "uint256",
          "name": "",
          "type": "uint256"
        }
      ],
      "name": "unitPricePerType",
      "outputs": [
        {
          "internalType": "uint256",
          "name": "",
          "type": "uint256"
        }
      ],
      "stateMutability": "view",
      "type": "function"
    }
  ],
  "transactionHash": "0xf13fa376d6e9d863f75116be5bbebd366751de63b053174575d3efb3a23af872",
  "args": [],
  "numDeployments": 1,
  "solcInputHash": "96a933fbba3a0bd40e59c78cafcf1d6d",
  "bytecode": "0x608060405234801561001057600080fd5b506001600081905550614197806100286000396000f3fe608060405234801561001057600080fd5b50600436106101735760003560e01c80638da5cb5b116100de578063b7a8807c11610097578063c66301b211610071578063c66301b2146103ba578063cf084056146103d8578063eb6ced16146103f6578063fc0c546a1461042657610173565b8063b7a8807c14610364578063bc6894fe14610382578063bedf77a61461039e57610173565b80638da5cb5b146102d857806390ffbe90146102f65780639c81ff6b14610314578063a053ce1f14610332578063ac30777314610350578063b03a9a051461035a57610173565b8063312ee7fa11610130578063312ee7fa1461023a578063372500ab14610258578063464eff501461026257806353b476561461027e5780637855d30c1461029c5780638831c8dc146102ba57610173565b80630e6137cf1461017857806319cc6492146101825780631e1b25731461018c5780632748608f146101bc57806327949dab146101ec578063310a1ee31461021c575b600080fd5b610180610444565b005b61018a610898565b005b6101a660048036038101906101a19190613594565b610a3e565b6040516101b391906135d0565b60405180910390f35b6101d660048036038101906101d19190613649565b610a59565b6040516101e39190613685565b60405180910390f35b61020660048036038101906102019190613649565b610a8c565b60405161021391906135d0565b60405180910390f35b610224610aa4565b60405161023191906135d0565b60405180910390f35b610242610aaa565b60405161024f91906135d0565b60405180910390f35b610260610ab0565b005b61027c600480360381019061027791906136ff565b610c3b565b005b610286611a4d565b60405161029391906135d0565b60405180910390f35b6102a4611a53565b6040516102b191906137dd565b60405180910390f35b6102c2611a66565b6040516102cf91906135d0565b60405180910390f35b6102e0611a6c565b6040516102ed9190613685565b60405180910390f35b6102fe611a92565b60405161030b91906135d0565b60405180910390f35b61031c611a98565b60405161032991906135d0565b60405180910390f35b61033a611a9e565b60405161034791906135d0565b60405180910390f35b610358611aa4565b005b610362611f14565b005b61036c611fb0565b60405161037991906135d0565b60405180910390f35b61039c6004803603810190610397919061381d565b611fb6565b005b6103b860048036038101906103b39190613649565b6125ef565b005b6103c2612f6e565b6040516103cf91906135d0565b60405180910390f35b6103e0612f74565b6040516103ed9190613685565b60405180910390f35b610410600480360381019061040b9190613649565b612f9a565b60405161041d91906135d0565b60405180910390f35b61042e612fb2565b60405161043b91906138bd565b60405180910390f35b600260009054906101000a900473ffffffffffffffffffffffffffffffffffffffff16600073ffffffffffffffffffffffffffffffffffffffff16600160039054906101000a900473ffffffffffffffffffffffffffffffffffffffff1673ffffffffffffffffffffffffffffffffffffffff1614156106a75760016104c981612fd8565b6002600054141561050f576040517f08c379a000000000000000000000000000000000000000000000000000000000815260040161050690613935565b60405180910390fd5b6002600081905550600a546005541061052b5761052a613955565b5b6000600554600a5461053d91906139b3565b9050600d5481101561058c57600d54600a546040517f59dc32870000000000000000000000000000000000000000000000000000000081526004016105839291906139e7565b60405180910390fd5b6002600160026101000a81548160ff021916908360038111156105b2576105b1613766565b5b021790555061062830600260009054906101000a900473ffffffffffffffffffffffffffffffffffffffff1683601560009054906101000a900473ffffffffffffffffffffffffffffffffffffffff1673ffffffffffffffffffffffffffffffffffffffff166130a0909392919063ffffffff16565b600260009054906101000a900473ffffffffffffffffffffffffffffffffffffffff1673ffffffffffffffffffffffffffffffffffffffff167f26dc6b7e309de29eb24d6830d1cc0f60c6b5d25d5d4830ce8ba77eb55468f0dc8260405161069091906135d0565b60405180910390a250600160008190555050610895565b6106b081613129565b60016106bb81612fd8565b60026000541415610701576040517f08c379a00000000000000000000000000000000000000000000000000000000081526004016106f890613935565b60405180910390fd5b6002600081905550600a546005541061071d5761071c613955565b5b6000600554600a5461072f91906139b3565b9050600d5481101561077e57600d54600a546040517f59dc32870000000000000000000000000000000000000000000000000000000081526004016107759291906139e7565b60405180910390fd5b6002600160026101000a81548160ff021916908360038111156107a4576107a3613766565b5b021790555061081a30600260009054906101000a900473ffffffffffffffffffffffffffffffffffffffff1683601560009054906101000a900473ffffffffffffffffffffffffffffffffffffffff1673ffffffffffffffffffffffffffffffffffffffff166130a0909392919063ffffffff16565b600260009054906101000a900473ffffffffffffffffffffffffffffffffffffffff1673ffffffffffffffffffffffffffffffffffffffff167f26dc6b7e309de29eb24d6830d1cc0f60c6b5d25d5d4830ce8ba77eb55468f0dc8260405161088291906135d0565b60405180910390a2506001600081905550505b50565b600260009054906101000a900473ffffffffffffffffffffffffffffffffffffffff16600073ffffffffffffffffffffffffffffffffffffffff16600160039054906101000a900473ffffffffffffffffffffffffffffffffffffffff1673ffffffffffffffffffffffffffffffffffffffff1614156109a457600161091d81612fd8565b60026000541415610963576040517f08c379a000000000000000000000000000000000000000000000000000000000815260040161095a90613935565b60405180910390fd5b60026000819055506003600160026101000a81548160ff0219169083600381111561099157610990613766565b5b0217905550600160008190555050610a3b565b6109ad81613129565b60016109b881612fd8565b600260005414156109fe576040517f08c379a00000000000000000000000000000000000000000000000000000000081526004016109f590613935565b60405180910390fd5b60026000819055506003600160026101000a81548160ff02191690836003811115610a2c57610a2b613766565b5b02179055506001600081905550505b50565b60108160048110610a4e57600080fd5b016000915090505481565b60066020528060005260406000206000915054906101000a900473ffffffffffffffffffffffffffffffffffffffff1681565b60046020528060005260406000206000915090505481565b600c5481565b60075481565b60026000541415610af6576040517f08c379a0000000000000000000000000000000000000000000000000000000008152600401610aed90613935565b60405180910390fd5b60026000819055506002610b0981612fd8565b6000600460003373ffffffffffffffffffffffffffffffffffffffff1673ffffffffffffffffffffffffffffffffffffffff1681526020019081526020016000205490506000600460003373ffffffffffffffffffffffffffffffffffffffff1673ffffffffffffffffffffffffffffffffffffffff16815260200190815260200160002081905550610be1303383601560009054906101000a900473ffffffffffffffffffffffffffffffffffffffff1673ffffffffffffffffffffffffffffffffffffffff166130a0909392919063ffffffff16565b3373ffffffffffffffffffffffffffffffffffffffff167ffc30cddea38e2bf4d6ea7d3f9ed3b6ad7f176419f4963bd81318067a4aee73fe82604051610c2791906135d0565b60405180910390a250506001600081905550565b600160039054906101000a900473ffffffffffffffffffffffffffffffffffffffff16600073ffffffffffffffffffffffffffffffffffffffff16600160039054906101000a900473ffffffffffffffffffffffffffffffffffffffff1673ffffffffffffffffffffffffffffffffffffffff16141561137b576001610cc081612fd8565b610cc86131d6565b60026000541415610d0e576040517f08c379a0000000000000000000000000000000000000000000000000000000008152600401610d0590613935565b60405180910390fd5b600260008190555083600860008873ffffffffffffffffffffffffffffffffffffffff1673ffffffffffffffffffffffffffffffffffffffff16815260200190815260200160002060006101000a81548160ff0219169083151502179055506000600360008873ffffffffffffffffffffffffffffffffffffffff1673ffffffffffffffffffffffffffffffffffffffff1681526020019081526020016000205414610de6576040517ff45d43bf00000000000000000000000000000000000000000000000000000000815260040160405180910390fd5b600080600090505b600f54811015610ec75760c8878260048110610e0d57610e0c613a10565b5b60200201351115610e6f57868160048110610e2b57610e2a613a10565b5b602002013560c86040517f3f257233000000000000000000000000000000000000000000000000000000008152600401610e669291906139e7565b60405180910390fd5b868160048110610e8257610e81613a10565b5b602002013560108260048110610e9b57610e9a613a10565b5b0154610ea79190613a3f565b82610eb29190613a99565b91508080610ebf90613aef565b915050610dee565b50848015610ed6575060075481105b15610f1c57806007546040517f66338f96000000000000000000000000000000000000000000000000000000008152600401610f139291906139e7565b60405180910390fd5b60008073ffffffffffffffffffffffffffffffffffffffff168573ffffffffffffffffffffffffffffffffffffffff1614611053576000600360008773ffffffffffffffffffffffffffffffffffffffff1673ffffffffffffffffffffffffffffffffffffffff168152602001908152602001600020541415610fcb576040517f55fbf60100000000000000000000000000000000000000000000000000000000815260040160405180910390fd5b600860008673ffffffffffffffffffffffffffffffffffffffff1673ffffffffffffffffffffffffffffffffffffffff16815260200190815260200160002060009054906101000a900460ff1661104e576040517fd74006f400000000000000000000000000000000000000000000000000000000815260040160405180910390fd5b600190505b600081156111f757600260646014548561106d9190613a3f565b6110779190613b67565b6110819190613b67565b905082811061109357611092613955565b5b808361109f91906139b3565b925080600960008b73ffffffffffffffffffffffffffffffffffffffff1673ffffffffffffffffffffffffffffffffffffffff16815260200190815260200160002060008282546110f09190613a99565b9250508190555080600460008873ffffffffffffffffffffffffffffffffffffffff1673ffffffffffffffffffffffffffffffffffffffff16815260200190815260200160002060008282546111469190613a99565b92505081905550806005600082825461115f9190613a99565b9250508190555085600660008b73ffffffffffffffffffffffffffffffffffffffff1673ffffffffffffffffffffffffffffffffffffffff16815260200190815260200160002060006101000a81548173ffffffffffffffffffffffffffffffffffffffff021916908373ffffffffffffffffffffffffffffffffffffffff16021790555060008114156111f6576111f5613955565b5b5b82600360008b73ffffffffffffffffffffffffffffffffffffffff1673ffffffffffffffffffffffffffffffffffffffff1681526020019081526020016000208190555082600a600082825461124d9190613a99565b92505081905550600e54600554600a5461126791906139b3565b11156112b057600a54600e546040517fad9d04bc0000000000000000000000000000000000000000000000000000000081526004016112a79291906139e7565b60405180910390fd5b6112ff893085601560009054906101000a900473ffffffffffffffffffffffffffffffffffffffff1673ffffffffffffffffffffffffffffffffffffffff166130a0909392919063ffffffff16565b8573ffffffffffffffffffffffffffffffffffffffff168973ffffffffffffffffffffffffffffffffffffffff167f6d47cedf2ff836145796116ccd8b27cb538f16621a1f844f0d1c2a58e23a499a8a86858c6040516113629493929190613bc6565b60405180910390a3505050600160008190555050611a46565b61138481613129565b600161138f81612fd8565b6113976131d6565b600260005414156113dd576040517f08c379a00000000000000000000000000000000000000000000000000000000081526004016113d490613935565b60405180910390fd5b600260008190555083600860008873ffffffffffffffffffffffffffffffffffffffff1673ffffffffffffffffffffffffffffffffffffffff16815260200190815260200160002060006101000a81548160ff0219169083151502179055506000600360008873ffffffffffffffffffffffffffffffffffffffff1673ffffffffffffffffffffffffffffffffffffffff16815260200190815260200160002054146114b5576040517ff45d43bf00000000000000000000000000000000000000000000000000000000815260040160405180910390fd5b600080600090505b600f548110156115965760c88782600481106114dc576114db613a10565b5b6020020135111561153e578681600481106114fa576114f9613a10565b5b602002013560c86040517f3f2572330000000000000000000000000000000000000000000000000000000081526004016115359291906139e7565b60405180910390fd5b86816004811061155157611550613a10565b5b60200201356010826004811061156a57611569613a10565b5b01546115769190613a3f565b826115819190613a99565b9150808061158e90613aef565b9150506114bd565b508480156115a5575060075481105b156115eb57806007546040517f66338f960000000000000000000000000000000000000000000000000000000081526004016115e29291906139e7565b60405180910390fd5b60008073ffffffffffffffffffffffffffffffffffffffff168573ffffffffffffffffffffffffffffffffffffffff1614611722576000600360008773ffffffffffffffffffffffffffffffffffffffff1673ffffffffffffffffffffffffffffffffffffffff16815260200190815260200160002054141561169a576040517f55fbf60100000000000000000000000000000000000000000000000000000000815260040160405180910390fd5b600860008673ffffffffffffffffffffffffffffffffffffffff1673ffffffffffffffffffffffffffffffffffffffff16815260200190815260200160002060009054906101000a900460ff1661171d576040517fd74006f400000000000000000000000000000000000000000000000000000000815260040160405180910390fd5b600190505b600081156118c657600260646014548561173c9190613a3f565b6117469190613b67565b6117509190613b67565b905082811061176257611761613955565b5b808361176e91906139b3565b925080600960008b73ffffffffffffffffffffffffffffffffffffffff1673ffffffffffffffffffffffffffffffffffffffff16815260200190815260200160002060008282546117bf9190613a99565b9250508190555080600460008873ffffffffffffffffffffffffffffffffffffffff1673ffffffffffffffffffffffffffffffffffffffff16815260200190815260200160002060008282546118159190613a99565b92505081905550806005600082825461182e9190613a99565b9250508190555085600660008b73ffffffffffffffffffffffffffffffffffffffff1673ffffffffffffffffffffffffffffffffffffffff16815260200190815260200160002060006101000a81548173ffffffffffffffffffffffffffffffffffffffff021916908373ffffffffffffffffffffffffffffffffffffffff16021790555060008114156118c5576118c4613955565b5b5b82600360008b73ffffffffffffffffffffffffffffffffffffffff1673ffffffffffffffffffffffffffffffffffffffff1681526020019081526020016000208190555082600a600082825461191c9190613a99565b92505081905550600e54600554600a5461193691906139b3565b111561197f57600a54600e546040517fad9d04bc0000000000000000000000000000000000000000000000000000000081526004016119769291906139e7565b60405180910390fd5b6119ce893085601560009054906101000a900473ffffffffffffffffffffffffffffffffffffffff1673ffffffffffffffffffffffffffffffffffffffff166130a0909392919063ffffffff16565b8573ffffffffffffffffffffffffffffffffffffffff168973ffffffffffffffffffffffffffffffffffffffff167f6d47cedf2ff836145796116ccd8b27cb538f16621a1f844f0d1c2a58e23a499a8a86858c604051611a319493929190613bc6565b60405180910390a35050506001600081905550505b5050505050565b600e5481565b600160029054906101000a900460ff1681565b600a5481565b600160039054906101000a900473ffffffffffffffffffffffffffffffffffffffff1681565b600d5481565b60055481565b60145481565b60026000541415611aea576040517f08c379a0000000000000000000000000000000000000000000000000000000008152600401611ae190613935565b60405180910390fd5b6002600081905550600b54421015611b3d5742600b546040517f812d154e000000000000000000000000000000000000000000000000000000008152600401611b349291906139e7565b60405180910390fd5b60006003811115611b5157611b50613766565b5b600160029054906101000a900460ff166003811115611b7357611b72613766565b5b1415611bc557600160029054906101000a900460ff166040517f64c3f1f8000000000000000000000000000000000000000000000000000000008152600401611bbc91906137dd565b60405180910390fd5b60026003811115611bd957611bd8613766565b5b600160029054906101000a900460ff166003811115611bfb57611bfa613766565b5b1415611c4d57600160029054906101000a900460ff166040517f64c3f1f8000000000000000000000000000000000000000000000000000000008152600401611c4491906137dd565b60405180910390fd5b600a5460055410611c6157611c60613955565b5b600c5442118015611c825750600d54600554600a54611c8091906139b3565b105b15611cb3576003600160026101000a81548160ff02191690836003811115611cad57611cac613766565b5b02179055505b600380811115611cc657611cc5613766565b5b600160029054906101000a900460ff166003811115611ce857611ce7613766565b5b14611d1f576040517f9b61206300000000000000000000000000000000000000000000000000000000815260040160405180910390fd5b6000600360003373ffffffffffffffffffffffffffffffffffffffff1673ffffffffffffffffffffffffffffffffffffffff1681526020019081526020016000205490506000600360003373ffffffffffffffffffffffffffffffffffffffff1673ffffffffffffffffffffffffffffffffffffffff168152602001908152602001600020819055506000600960003373ffffffffffffffffffffffffffffffffffffffff1673ffffffffffffffffffffffffffffffffffffffff168152602001908152602001600020819055506000600660003373ffffffffffffffffffffffffffffffffffffffff1673ffffffffffffffffffffffffffffffffffffffff16815260200190815260200160002060006101000a81548173ffffffffffffffffffffffffffffffffffffffff021916908373ffffffffffffffffffffffffffffffffffffffff160217905550611ebb303383601560009054906101000a900473ffffffffffffffffffffffffffffffffffffffff1673ffffffffffffffffffffffffffffffffffffffff166130a0909392919063ffffffff16565b3373ffffffffffffffffffffffffffffffffffffffff167fa65a8b4f7f65a1063243d7f7e9e4da00ff767599acf21549ef2548a45d1695ae82604051611f0191906135d0565b60405180910390a2506001600081905550565b60006003811115611f2857611f27613766565b5b600160029054906101000a900460ff166003811115611f4a57611f49613766565b5b14611fae57610e10600b54611f5f9190613a99565b600c541015611f7157611f70613955565b5b6000600e5411611f8457611f83613955565b5b600e54600d541115611f9957611f98613955565b5b60326014541115611fad57611fac613955565b5b5b565b600b5481565b60018054906101000a900460ff16611fde57600160009054906101000a900460ff1615611fe7565b611fe661326e565b5b612026576040517f08c379a000000000000000000000000000000000000000000000000000000000815260040161201d90613c7d565b60405180910390fd5b600060018054906101000a900460ff1615905080156120745760018060016101000a81548160ff02191690831515021790555060018060006101000a81548160ff0219169083151502179055505b600061207f81612fd8565b83600160036101000a81548173ffffffffffffffffffffffffffffffffffffffff021916908373ffffffffffffffffffffffffffffffffffffffff160217905550600073ffffffffffffffffffffffffffffffffffffffff16836101600160208101906120ec9190613649565b73ffffffffffffffffffffffffffffffffffffffff16141561213a576040517fdc2e5e8d00000000000000000000000000000000000000000000000000000000815260040160405180910390fd5b600073ffffffffffffffffffffffffffffffffffffffff168360000160208101906121659190613649565b73ffffffffffffffffffffffffffffffffffffffff1614156121b3576040517fc7b2492000000000000000000000000000000000000000000000000000000000815260040160405180910390fd5b8260600135836101400135111561220c5782610140013583606001356040517f1e5c82a50000000000000000000000000000000000000000000000000000000081526004016122039291906139e7565b60405180910390fd5b600060028461012001356122209190613c9d565b14612257576040517f84d68d9d00000000000000000000000000000000000000000000000000000000815260040160405180910390fd5b610e1083602001356122699190613a99565b836040013510156122a6576040517f3c91bee800000000000000000000000000000000000000000000000000000000815260040160405180910390fd5b6000836080013514156122e5576040517fa4c54a6300000000000000000000000000000000000000000000000000000000815260040160405180910390fd5b600083606001351415612324576040517f7a61fdf700000000000000000000000000000000000000000000000000000000815260040160405180910390fd5b826080013583606001351115612366576040517f02179b6c00000000000000000000000000000000000000000000000000000000815260040160405180910390fd5b60005b60048110156123c55760008460a001826004811061238a57612389613a10565b5b6020020135141561239a576123c5565b600f60008154809291906123ad90613aef565b919050555080806123bd90613aef565b915050612369565b50603283610120013511156124195782610120013560326040517f9088a55b0000000000000000000000000000000000000000000000000000000081526004016124109291906139e7565b60405180910390fd5b82600001602081019061242c9190613649565b600260006101000a81548173ffffffffffffffffffffffffffffffffffffffff021916908373ffffffffffffffffffffffffffffffffffffffff1602179055508260200135600b819055508260400135600c819055508260600135600d819055508260800135600e819055508260a00160109060046124ac9291906134fc565b50826101200135601481905550826101400135600781905550826101600160208101906124d99190613649565b601560006101000a81548173ffffffffffffffffffffffffffffffffffffffff021916908373ffffffffffffffffffffffffffffffffffffffff16021790555060018060026101000a81548160ff0219169083600381111561253e5761253d613766565b5b0217905550601560009054906101000a900473ffffffffffffffffffffffffffffffffffffffff1673ffffffffffffffffffffffffffffffffffffffff167fb9c39e9794e0846a2b44dc834e2701f75acd7c1a7f1ee89a38d0ed38d870523b600b54600c54600d54600e5460106014546040516125c096959493929190613dc4565b60405180910390a25080156125ea5760006001806101000a81548160ff0219169083151502179055505b505050565b600160039054906101000a900473ffffffffffffffffffffffffffffffffffffffff16600073ffffffffffffffffffffffffffffffffffffffff16600160039054906101000a900473ffffffffffffffffffffffffffffffffffffffff1673ffffffffffffffffffffffffffffffffffffffff161415612ae757600161267481612fd8565b61267c6131d6565b600260005414156126c2576040517f08c379a00000000000000000000000000000000000000000000000000000000081526004016126b990613935565b60405180910390fd5b60026000819055506000600360008573ffffffffffffffffffffffffffffffffffffffff1673ffffffffffffffffffffffffffffffffffffffff1681526020019081526020016000205490506000600660008673ffffffffffffffffffffffffffffffffffffffff1673ffffffffffffffffffffffffffffffffffffffff16815260200190815260200160002060009054906101000a900473ffffffffffffffffffffffffffffffffffffffff169050600960008673ffffffffffffffffffffffffffffffffffffffff1673ffffffffffffffffffffffffffffffffffffffff16815260200190815260200160002054600460008373ffffffffffffffffffffffffffffffffffffffff1673ffffffffffffffffffffffffffffffffffffffff168152602001908152602001600020600082825461280091906139b3565b925050819055506000600460008773ffffffffffffffffffffffffffffffffffffffff1673ffffffffffffffffffffffffffffffffffffffff168152602001908152602001600020541115612881576040517fd273722600000000000000000000000000000000000000000000000000000000815260040160405180910390fd5b600360008673ffffffffffffffffffffffffffffffffffffffff1673ffffffffffffffffffffffffffffffffffffffff16815260200190815260200160002054600a60008282546128d291906139b3565b925050819055506000600360008773ffffffffffffffffffffffffffffffffffffffff1673ffffffffffffffffffffffffffffffffffffffff168152602001908152602001600020819055506000600960008773ffffffffffffffffffffffffffffffffffffffff1673ffffffffffffffffffffffffffffffffffffffff168152602001908152602001600020819055506000600660008773ffffffffffffffffffffffffffffffffffffffff1673ffffffffffffffffffffffffffffffffffffffff16815260200190815260200160002060006101000a81548173ffffffffffffffffffffffffffffffffffffffff021916908373ffffffffffffffffffffffffffffffffffffffff1602179055506000600860008773ffffffffffffffffffffffffffffffffffffffff1673ffffffffffffffffffffffffffffffffffffffff16815260200190815260200160002060006101000a81548160ff021916908315150217905550612a89308684601560009054906101000a900473ffffffffffffffffffffffffffffffffffffffff1673ffffffffffffffffffffffffffffffffffffffff166130a0909392919063ffffffff16565b8473ffffffffffffffffffffffffffffffffffffffff167faf65ecdc8a0d3ea90c8344c89e7001864fddf59dfdf41da2994463fe99049a5983604051612acf91906135d0565b60405180910390a25050600160008190555050612f6a565b612af081613129565b6001612afb81612fd8565b612b036131d6565b60026000541415612b49576040517f08c379a0000000000000000000000000000000000000000000000000000000008152600401612b4090613935565b60405180910390fd5b60026000819055506000600360008573ffffffffffffffffffffffffffffffffffffffff1673ffffffffffffffffffffffffffffffffffffffff1681526020019081526020016000205490506000600660008673ffffffffffffffffffffffffffffffffffffffff1673ffffffffffffffffffffffffffffffffffffffff16815260200190815260200160002060009054906101000a900473ffffffffffffffffffffffffffffffffffffffff169050600960008673ffffffffffffffffffffffffffffffffffffffff1673ffffffffffffffffffffffffffffffffffffffff16815260200190815260200160002054600460008373ffffffffffffffffffffffffffffffffffffffff1673ffffffffffffffffffffffffffffffffffffffff1681526020019081526020016000206000828254612c8791906139b3565b925050819055506000600460008773ffffffffffffffffffffffffffffffffffffffff1673ffffffffffffffffffffffffffffffffffffffff168152602001908152602001600020541115612d08576040517fd273722600000000000000000000000000000000000000000000000000000000815260040160405180910390fd5b600360008673ffffffffffffffffffffffffffffffffffffffff1673ffffffffffffffffffffffffffffffffffffffff16815260200190815260200160002054600a6000828254612d5991906139b3565b925050819055506000600360008773ffffffffffffffffffffffffffffffffffffffff1673ffffffffffffffffffffffffffffffffffffffff168152602001908152602001600020819055506000600960008773ffffffffffffffffffffffffffffffffffffffff1673ffffffffffffffffffffffffffffffffffffffff168152602001908152602001600020819055506000600660008773ffffffffffffffffffffffffffffffffffffffff1673ffffffffffffffffffffffffffffffffffffffff16815260200190815260200160002060006101000a81548173ffffffffffffffffffffffffffffffffffffffff021916908373ffffffffffffffffffffffffffffffffffffffff1602179055506000600860008773ffffffffffffffffffffffffffffffffffffffff1673ffffffffffffffffffffffffffffffffffffffff16815260200190815260200160002060006101000a81548160ff021916908315150217905550612f10308684601560009054906101000a900473ffffffffffffffffffffffffffffffffffffffff1673ffffffffffffffffffffffffffffffffffffffff166130a0909392919063ffffffff16565b8473ffffffffffffffffffffffffffffffffffffffff167faf65ecdc8a0d3ea90c8344c89e7001864fddf59dfdf41da2994463fe99049a5983604051612f5691906135d0565b60405180910390a250506001600081905550505b5050565b600f5481565b600260009054906101000a900473ffffffffffffffffffffffffffffffffffffffff1681565b60096020528060005260406000206000915090505481565b601560009054906101000a900473ffffffffffffffffffffffffffffffffffffffff1681565b806003811115612feb57612fea613766565b5b600160029054906101000a900460ff16600381111561300d5761300c613766565b5b1461305e57600160029054906101000a900460ff166040517f64c3f1f800000000000000000000000000000000000000000000000000000000815260040161305591906137dd565b60405180910390fd5b80600381111561307157613070613766565b5b600160029054906101000a900460ff16600381111561309357613092613766565b5b1461309d57600080fd5b50565b613123846323b872dd60e01b8585856040516024016130c193929190613e27565b604051602081830303815290604052907bffffffffffffffffffffffffffffffffffffffffffffffffffffffff19166020820180517bffffffffffffffffffffffffffffffffffffffffffffffffffffffff838183161783525050505061327f565b50505050565b8073ffffffffffffffffffffffffffffffffffffffff163373ffffffffffffffffffffffffffffffffffffffff161461319b5733816040517f50a5f405000000000000000000000000000000000000000000000000000000008152600401613192929190613e5e565b60405180910390fd5b8073ffffffffffffffffffffffffffffffffffffffff163373ffffffffffffffffffffffffffffffffffffffff16146131d357600080fd5b50565b600b544210156132215742600b546040517f812d154e0000000000000000000000000000000000000000000000000000000081526004016132189291906139e7565b60405180910390fd5b600c5442111561326c5742600c546040517fb73065c10000000000000000000000000000000000000000000000000000000081526004016132639291906139e7565b60405180910390fd5b565b600061327930613346565b15905090565b60006132e1826040518060400160405280602081526020017f5361666545524332303a206c6f772d6c6576656c2063616c6c206661696c65648152508573ffffffffffffffffffffffffffffffffffffffff166133699092919063ffffffff16565b905060008151111561334157808060200190518101906133019190613e9c565b613340576040517f08c379a000000000000000000000000000000000000000000000000000000000815260040161333790613f3b565b60405180910390fd5b5b505050565b6000808273ffffffffffffffffffffffffffffffffffffffff163b119050919050565b60606133788484600085613381565b90509392505050565b6060824710156133c6576040517f08c379a00000000000000000000000000000000000000000000000000000000081526004016133bd90613fcd565b60405180910390fd5b6133cf85613346565b61340e576040517f08c379a000000000000000000000000000000000000000000000000000000000815260040161340590614039565b60405180910390fd5b6000808673ffffffffffffffffffffffffffffffffffffffff16858760405161343791906140d3565b60006040518083038185875af1925050503d8060008114613474576040519150601f19603f3d011682016040523d82523d6000602084013e613479565b606091505b5091509150613489828286613495565b92505050949350505050565b606083156134a5578290506134f5565b6000835111156134b85782518084602001fd5b816040517f08c379a00000000000000000000000000000000000000000000000000000000081526004016134ec919061413f565b60405180910390fd5b9392505050565b826004810192821561352b579160200282015b8281111561352a57823582559160200191906001019061350f565b5b509050613538919061353c565b5090565b5b8082111561355557600081600090555060010161353d565b5090565b600080fd5b6000819050919050565b6135718161355e565b811461357c57600080fd5b50565b60008135905061358e81613568565b92915050565b6000602082840312156135aa576135a9613559565b5b60006135b88482850161357f565b91505092915050565b6135ca8161355e565b82525050565b60006020820190506135e560008301846135c1565b92915050565b600073ffffffffffffffffffffffffffffffffffffffff82169050919050565b6000613616826135eb565b9050919050565b6136268161360b565b811461363157600080fd5b50565b6000813590506136438161361d565b92915050565b60006020828403121561365f5761365e613559565b5b600061366d84828501613634565b91505092915050565b61367f8161360b565b82525050565b600060208201905061369a6000830184613676565b92915050565b600080fd5b6000819050826020600402820111156136c1576136c06136a0565b5b92915050565b60008115159050919050565b6136dc816136c7565b81146136e757600080fd5b50565b6000813590506136f9816136d3565b92915050565b60008060008060e0858703121561371957613718613559565b5b600061372787828801613634565b9450506020613738878288016136a5565b93505060a0613749878288016136ea565b92505060c061375a87828801613634565b91505092959194509250565b7f4e487b7100000000000000000000000000000000000000000000000000000000600052602160045260246000fd5b600481106137a6576137a5613766565b5b50565b60008190506137b782613795565b919050565b60006137c7826137a9565b9050919050565b6137d7816137bc565b82525050565b60006020820190506137f260008301846137ce565b92915050565b600080fd5b60006101808284031215613814576138136137f8565b5b81905092915050565b6000806101a0838503121561383557613834613559565b5b600061384385828601613634565b9250506020613854858286016137fd565b9150509250929050565b6000819050919050565b600061388361387e613879846135eb565b61385e565b6135eb565b9050919050565b600061389582613868565b9050919050565b60006138a78261388a565b9050919050565b6138b78161389c565b82525050565b60006020820190506138d260008301846138ae565b92915050565b600082825260208201905092915050565b7f5265656e7472616e637947756172643a207265656e7472616e742063616c6c00600082015250565b600061391f601f836138d8565b915061392a826138e9565b602082019050919050565b6000602082019050818103600083015261394e81613912565b9050919050565b7f4e487b7100000000000000000000000000000000000000000000000000000000600052600160045260246000fd5b7f4e487b7100000000000000000000000000000000000000000000000000000000600052601160045260246000fd5b60006139be8261355e565b91506139c98361355e565b9250828210156139dc576139db613984565b5b828203905092915050565b60006040820190506139fc60008301856135c1565b613a0960208301846135c1565b9392505050565b7f4e487b7100000000000000000000000000000000000000000000000000000000600052603260045260246000fd5b6000613a4a8261355e565b9150613a558361355e565b9250817fffffffffffffffffffffffffffffffffffffffffffffffffffffffffffffffff0483118215151615613a8e57613a8d613984565b5b828202905092915050565b6000613aa48261355e565b9150613aaf8361355e565b9250827fffffffffffffffffffffffffffffffffffffffffffffffffffffffffffffffff03821115613ae457613ae3613984565b5b828201905092915050565b6000613afa8261355e565b91507fffffffffffffffffffffffffffffffffffffffffffffffffffffffffffffffff821415613b2d57613b2c613984565b5b600182019050919050565b7f4e487b7100000000000000000000000000000000000000000000000000000000600052601260045260246000fd5b6000613b728261355e565b9150613b7d8361355e565b925082613b8d57613b8c613b38565b5b828204905092915050565b82818337600083830152505050565b613bb360808383613b98565b5050565b613bc0816136c7565b82525050565b600060e082019050613bdb6000830187613ba7565b613be860808301866135c1565b613bf560a08301856135c1565b613c0260c0830184613bb7565b95945050505050565b7f496e697469616c697a61626c653a20636f6e747261637420697320616c72656160008201527f647920696e697469616c697a6564000000000000000000000000000000000000602082015250565b6000613c67602e836138d8565b9150613c7282613c0b565b604082019050919050565b60006020820190508181036000830152613c9681613c5a565b9050919050565b6000613ca88261355e565b9150613cb38361355e565b925082613cc357613cc2613b38565b5b828206905092915050565b600060049050919050565b600081905092915050565b6000819050919050565b613cf78161355e565b82525050565b6000613d098383613cee565b60208301905092915050565b60008160001c9050919050565b6000819050919050565b6000613d3f613d3a83613d15565b613d22565b9050919050565b6000613d528254613d2c565b9050919050565b6000600182019050919050565b613d6f81613cce565b613d798184613cd9565b9250613d8482613ce4565b8060005b83811015613dbc57613d9982613d46565b613da38782613cfd565b9650613dae83613d59565b925050600181019050613d88565b505050505050565b600061012082019050613dda60008301896135c1565b613de760208301886135c1565b613df460408301876135c1565b613e0160608301866135c1565b613e0e6080830185613d66565b613e1c6101008301846135c1565b979650505050505050565b6000606082019050613e3c6000830186613676565b613e496020830185613676565b613e5660408301846135c1565b949350505050565b6000604082019050613e736000830185613676565b613e806020830184613676565b9392505050565b600081519050613e96816136d3565b92915050565b600060208284031215613eb257613eb1613559565b5b6000613ec084828501613e87565b91505092915050565b7f5361666545524332303a204552433230206f7065726174696f6e20646964206e60008201527f6f74207375636365656400000000000000000000000000000000000000000000602082015250565b6000613f25602a836138d8565b9150613f3082613ec9565b604082019050919050565b60006020820190508181036000830152613f5481613f18565b9050919050565b7f416464726573733a20696e73756666696369656e742062616c616e636520666f60008201527f722063616c6c0000000000000000000000000000000000000000000000000000602082015250565b6000613fb76026836138d8565b9150613fc282613f5b565b604082019050919050565b60006020820190508181036000830152613fe681613faa565b9050919050565b7f416464726573733a2063616c6c20746f206e6f6e2d636f6e7472616374000000600082015250565b6000614023601d836138d8565b915061402e82613fed565b602082019050919050565b6000602082019050818103600083015261405281614016565b9050919050565b600081519050919050565b600081905092915050565b60005b8381101561408d578082015181840152602081019050614072565b8381111561409c576000848401525b50505050565b60006140ad82614059565b6140b78185614064565b93506140c781856020860161406f565b80840191505092915050565b60006140df82846140a2565b915081905092915050565b600081519050919050565b6000601f19601f8301169050919050565b6000614111826140ea565b61411b81856138d8565b935061412b81856020860161406f565b614134816140f5565b840191505092915050565b600060208201905081810360008301526141598184614106565b90509291505056fea2646970667358221220df62db1dd553ccece73d5ffdd2f6d7d6511e75ad5d5f74e6e7929094f58519ec64736f6c634300080b0033",
  "devdoc": {
    "kind": "dev",
    "methods": {
      "initialize(address,(address,uint256,uint256,uint256,uint256,uint256[4],uint256,uint256,address))": {
        "details": "Initializes a Crowdtainer.",
        "params": {
          "_campaignData": "Data defining all rules and values of this Crowdtainer instance."
        }
      }
    },
    "title": "Crowdtainer contract",
    "version": 1
  },
  "userdoc": {
    "kind": "user",
    "methods": {
      "abortProject()": {
        "notice": "Function used by project deployer to signal that it is no longer possible to the ship service or product.         This puts the project into `Failed` state and participants can withdraw their funds."
      },
      "claimFunds()": {
        "notice": "Function used by participants to withdrawl funds from a failed/expired project."
      },
      "claimRewards()": {
        "notice": "Function used by participants to withdrawl referral rewards from a successful project."
      },
      "getPaidAndDeliver()": {
        "notice": "Function used by project deployer to signal commitment to ship service or product by withdrawing/receiving the payment."
      }
    },
    "version": 1
  },
  "storageLayout": {
    "storage": [
      {
        "astId": 167,
        "contract": "src/contracts/Crowdtainer.sol:Crowdtainer",
        "label": "_status",
        "offset": 0,
        "slot": "0",
        "type": "t_uint256"
      },
      {
        "astId": 89,
        "contract": "src/contracts/Crowdtainer.sol:Crowdtainer",
        "label": "_initialized",
        "offset": 0,
        "slot": "1",
        "type": "t_bool"
      },
      {
        "astId": 92,
        "contract": "src/contracts/Crowdtainer.sol:Crowdtainer",
        "label": "_initializing",
        "offset": 1,
        "slot": "1",
        "type": "t_bool"
      },
      {
        "astId": 2302,
        "contract": "src/contracts/Crowdtainer.sol:Crowdtainer",
        "label": "crowdtainerState",
        "offset": 2,
        "slot": "1",
        "type": "t_enum(CrowdtainerState)4164"
      },
      {
        "astId": 2304,
        "contract": "src/contracts/Crowdtainer.sol:Crowdtainer",
        "label": "owner",
        "offset": 3,
        "slot": "1",
        "type": "t_address"
      },
      {
        "astId": 2306,
        "contract": "src/contracts/Crowdtainer.sol:Crowdtainer",
        "label": "shippingAgent",
        "offset": 0,
        "slot": "2",
        "type": "t_address"
      },
      {
        "astId": 2310,
        "contract": "src/contracts/Crowdtainer.sol:Crowdtainer",
        "label": "costForWallet",
        "offset": 0,
        "slot": "3",
        "type": "t_mapping(t_address,t_uint256)"
      },
      {
        "astId": 2314,
        "contract": "src/contracts/Crowdtainer.sol:Crowdtainer",
        "label": "accumulatedRewardsOf",
        "offset": 0,
        "slot": "4",
        "type": "t_mapping(t_address,t_uint256)"
      },
      {
        "astId": 2316,
        "contract": "src/contracts/Crowdtainer.sol:Crowdtainer",
        "label": "accumulatedRewards",
        "offset": 0,
        "slot": "5",
        "type": "t_uint256"
      },
      {
        "astId": 2320,
        "contract": "src/contracts/Crowdtainer.sol:Crowdtainer",
        "label": "referrerOfReferee",
        "offset": 0,
        "slot": "6",
        "type": "t_mapping(t_address,t_address)"
      },
      {
        "astId": 2322,
        "contract": "src/contracts/Crowdtainer.sol:Crowdtainer",
        "label": "referralEligibilityValue",
        "offset": 0,
        "slot": "7",
        "type": "t_uint256"
      },
      {
        "astId": 2326,
        "contract": "src/contracts/Crowdtainer.sol:Crowdtainer",
        "label": "enableReferral",
        "offset": 0,
        "slot": "8",
        "type": "t_mapping(t_address,t_bool)"
      },
      {
        "astId": 2330,
        "contract": "src/contracts/Crowdtainer.sol:Crowdtainer",
        "label": "discountForUser",
        "offset": 0,
        "slot": "9",
        "type": "t_mapping(t_address,t_uint256)"
      },
      {
        "astId": 2332,
        "contract": "src/contracts/Crowdtainer.sol:Crowdtainer",
        "label": "totalValueRaised",
        "offset": 0,
        "slot": "10",
        "type": "t_uint256"
      },
      {
        "astId": 2453,
        "contract": "src/contracts/Crowdtainer.sol:Crowdtainer",
        "label": "openingTime",
        "offset": 0,
        "slot": "11",
        "type": "t_uint256"
      },
      {
        "astId": 2455,
        "contract": "src/contracts/Crowdtainer.sol:Crowdtainer",
        "label": "expireTime",
        "offset": 0,
        "slot": "12",
        "type": "t_uint256"
      },
      {
        "astId": 2457,
        "contract": "src/contracts/Crowdtainer.sol:Crowdtainer",
        "label": "targetMinimum",
        "offset": 0,
        "slot": "13",
        "type": "t_uint256"
      },
      {
        "astId": 2459,
        "contract": "src/contracts/Crowdtainer.sol:Crowdtainer",
        "label": "targetMaximum",
        "offset": 0,
        "slot": "14",
        "type": "t_uint256"
      },
      {
        "astId": 2461,
        "contract": "src/contracts/Crowdtainer.sol:Crowdtainer",
        "label": "numberOfProducts",
        "offset": 0,
        "slot": "15",
        "type": "t_uint256"
      },
      {
        "astId": 2465,
        "contract": "src/contracts/Crowdtainer.sol:Crowdtainer",
        "label": "unitPricePerType",
        "offset": 0,
        "slot": "16",
        "type": "t_array(t_uint256)4_storage"
      },
      {
        "astId": 2467,
        "contract": "src/contracts/Crowdtainer.sol:Crowdtainer",
        "label": "referralRate",
        "offset": 0,
        "slot": "20",
        "type": "t_uint256"
      },
      {
        "astId": 2470,
        "contract": "src/contracts/Crowdtainer.sol:Crowdtainer",
        "label": "token",
        "offset": 0,
        "slot": "21",
        "type": "t_contract(IERC20)274"
      }
    ],
    "types": {
      "t_address": {
        "encoding": "inplace",
        "label": "address",
        "numberOfBytes": "20"
      },
      "t_array(t_uint256)4_storage": {
        "base": "t_uint256",
        "encoding": "inplace",
        "label": "uint256[4]",
        "numberOfBytes": "128"
      },
      "t_bool": {
        "encoding": "inplace",
        "label": "bool",
        "numberOfBytes": "1"
      },
      "t_contract(IERC20)274": {
        "encoding": "inplace",
        "label": "contract IERC20",
        "numberOfBytes": "20"
      },
      "t_enum(CrowdtainerState)4164": {
        "encoding": "inplace",
        "label": "enum CrowdtainerState",
        "numberOfBytes": "1"
      },
      "t_mapping(t_address,t_address)": {
        "encoding": "mapping",
        "key": "t_address",
        "label": "mapping(address => address)",
        "numberOfBytes": "32",
        "value": "t_address"
      },
      "t_mapping(t_address,t_bool)": {
        "encoding": "mapping",
        "key": "t_address",
        "label": "mapping(address => bool)",
        "numberOfBytes": "32",
        "value": "t_bool"
      },
      "t_mapping(t_address,t_uint256)": {
        "encoding": "mapping",
        "key": "t_address",
        "label": "mapping(address => uint256)",
        "numberOfBytes": "32",
        "value": "t_uint256"
      },
      "t_uint256": {
        "encoding": "inplace",
        "label": "uint256",
        "numberOfBytes": "32"
      }
    }
  }
}