{
  "address": "0xDc64a140Aa3E981100a9becA4E685f962f0cF6C9",
  "abi": [
    {
      "inputs": [
        {
          "internalType": "string",
          "name": "_unitSymbol",
          "type": "string"
        },
        {
          "internalType": "string",
          "name": "_ticketFootnotes",
          "type": "string"
        }
      ],
      "stateMutability": "nonpayable",
      "type": "constructor"
    },
    {
      "inputs": [
        {
          "components": [
            {
              "internalType": "uint256",
              "name": "crowdtainerId",
              "type": "uint256"
            },
            {
              "internalType": "uint256",
              "name": "tokenId",
              "type": "uint256"
            },
            {
              "internalType": "address",
              "name": "currentOwner",
              "type": "address"
            },
            {
              "internalType": "bool",
              "name": "claimed",
              "type": "bool"
            },
            {
              "internalType": "uint256[4]",
              "name": "unitPricePerType",
              "type": "uint256[4]"
            },
            {
              "internalType": "uint256[4]",
              "name": "quantities",
              "type": "uint256[4]"
            },
            {
              "internalType": "string[4]",
              "name": "productDescription",
              "type": "string[4]"
            },
            {
              "internalType": "uint256",
              "name": "numberOfProducts",
              "type": "uint256"
            }
          ],
          "internalType": "struct Metadata",
          "name": "_metadata",
          "type": "tuple"
        }
      ],
      "name": "uri",
      "outputs": [
        {
          "internalType": "string",
          "name": "",
          "type": "string"
        }
      ],
      "stateMutability": "view",
      "type": "function"
    }
  ],
  "transactionHash": "0x94d8accd75396f8ef4d5e4ca01da53faf86e84447a03d7bce5c29c34d2f7cb77",
  "args": [
    "TST",
    "This ticket is not valid as an invoice."
  ],
  "numDeployments": 1,
  "solcInputHash": "96a933fbba3a0bd40e59c78cafcf1d6d",
  "bytecode": "0x60806040523480156200001157600080fd5b5060405162003005380380620030058339818101604052810190620000379190620002be565b81600090805190602001906200004f92919062000071565b5080600190805190602001906200006892919062000071565b505050620003a8565b8280546200007f9062000372565b90600052602060002090601f016020900481019282620000a35760008555620000ef565b82601f10620000be57805160ff1916838001178555620000ef565b82800160010185558215620000ef579182015b82811115620000ee578251825591602001919060010190620000d1565b5b509050620000fe919062000102565b5090565b5b808211156200011d57600081600090555060010162000103565b5090565b6000604051905090565b600080fd5b600080fd5b600080fd5b600080fd5b6000601f19601f8301169050919050565b7f4e487b7100000000000000000000000000000000000000000000000000000000600052604160045260246000fd5b6200018a826200013f565b810181811067ffffffffffffffff82111715620001ac57620001ab62000150565b5b80604052505050565b6000620001c162000121565b9050620001cf82826200017f565b919050565b600067ffffffffffffffff821115620001f257620001f162000150565b5b620001fd826200013f565b9050602081019050919050565b60005b838110156200022a5780820151818401526020810190506200020d565b838111156200023a576000848401525b50505050565b6000620002576200025184620001d4565b620001b5565b9050828152602081018484840111156200027657620002756200013a565b5b620002838482856200020a565b509392505050565b600082601f830112620002a357620002a262000135565b5b8151620002b584826020860162000240565b91505092915050565b60008060408385031215620002d857620002d76200012b565b5b600083015167ffffffffffffffff811115620002f957620002f862000130565b5b62000307858286016200028b565b925050602083015167ffffffffffffffff8111156200032b576200032a62000130565b5b62000339858286016200028b565b9150509250929050565b7f4e487b7100000000000000000000000000000000000000000000000000000000600052602260045260246000fd5b600060028204905060018216806200038b57607f821691505b60208210811415620003a257620003a162000343565b5b50919050565b612c4d80620003b86000396000f3fe608060405234801561001057600080fd5b506004361061002b5760003560e01c80639b9300f414610030575b600080fd5b61004a60048036038101906100459190610da1565b610060565b6040516100579190610e83565b60405180910390f35b606060006040518060400160405280600181526020017f5b000000000000000000000000000000000000000000000000000000000000008152509050600080600090505b846101a00135811015610218576000856101000182600481106100ca576100c9610ea5565b5b602002013514156100da57610205565b82858061018001906100ec9190610ee3565b82600481106100fe576100fd610ea5565b5b60200281019061010e9190610f0b565b6101328861010001856004811061012857610127610ea5565b5b6020020135610395565b61015589608001866004811061014b5761014a610ea5565b5b6020020135610395565b60405160200161016995949392919061110e565b60405160208183030381529060405292506001856101a0013561018c91906111b3565b8110156101b657826040516020016101a49190611233565b60405160208183030381529060405292505b846101000181600481106101cd576101cc610ea5565b5b60200201358560800182600481106101e8576101e7610ea5565b5b60200201356101f79190611255565b8261020291906112af565b91505b808061021090611305565b9150506100a4565b508160405160200161022a919061139a565b604051602081830303815290604052915060008261024783610395565b604051602001610258929190611454565b60405160208183030381529060405290506000610307610302876001805461027f906114bd565b80601f01602080910402602001604051908101604052809291908181526020018280546102ab906114bd565b80156102f85780601f106102cd576101008083540402835291602001916102f8565b820191906000526020600020905b8154815290600101906020018083116102db57829003601f168201915b50505050506104f6565b61061d565b905061036b6103198760000135610395565b6103268860200135610395565b61034189604001602081019061033c919061154d565b610781565b8585604051602001610357959493929190611742565b60405160208183030381529060405261061d565b60405160200161037b9190611826565b604051602081830303815290604052945050505050919050565b606060008214156103dd576040518060400160405280600181526020017f300000000000000000000000000000000000000000000000000000000000000081525090506104f1565b600082905060005b6000821461040f5780806103f890611305565b915050600a826104089190611877565b91506103e5565b60008167ffffffffffffffff81111561042b5761042a6118a8565b5b6040519080825280601f01601f19166020018201604052801561045d5781602001600182028036833780820191505090505b5090505b600085146104ea5760018261047691906111b3565b9150600a8561048591906118d7565b603061049191906112af565b60f81b8183815181106104a7576104a6610ea5565b5b60200101907effffffffffffffffffffffffffffffffffffffffffffffffffffffffffffff1916908160001a905350600a856104e39190611877565b9450610461565b8093505050505b919050565b606080600061058f856000805461050c906114bd565b80601f0160208091040260200160405190810160405280929190818152602001828054610538906114bd565b80156105855780601f1061055a57610100808354040283529160200191610585565b820191906000526020600020905b81548152906001019060200180831161056857829003601f168201915b50505050506107ab565b809250819350505061059f61099a565b6105ac8660000135610395565b6105c78760600160208101906105c29190611940565b6109bf565b6105d48860200135610395565b856105e4868b6101a00135610a5a565b896105ed610acf565b604051602001610604989796959493929190611ac3565b6040516020818303038152906040529250505092915050565b60606000825114156106405760405180602001604052806000815250905061077c565b6000604051806060016040528060408152602001612b00604091399050600060036002855161066f91906112af565b6106799190611877565b60046106859190611255565b67ffffffffffffffff81111561069e5761069d6118a8565b5b6040519080825280601f01601f1916602001820160405280156106d05781602001600182028036833780820191505090505b509050600182016020820185865187015b8082101561073c576003820191508151603f8160121c168501518453600184019350603f81600c1c168501518453600184019350603f8160061c168501518453600184019350603f81168501518453600184019350506106e1565b5050600386510660018114610758576002811461076b57610773565b603d6001830353603d6002830353610773565b603d60018303535b50505080925050505b919050565b60606107a48273ffffffffffffffffffffffffffffffffffffffff166014610af4565b9050919050565b6060600080600a62ffffff16905060005b856101a001358162ffffff16101561099157600086610100018262ffffff16600481106107ec576107eb610ea5565b5b602002013514156107fc5761097e565b8361080c600262ffffff16610395565b61081584610395565b6108da89610100018562ffffff166004811061083457610833610ea5565b5b60200201358a6080018662ffffff166004811061085457610853610ea5565b5b60200201358a8c80610180019061086b9190610ee3565b8862ffffff166004811061088257610881610ea5565b5b6020028101906108929190610f0b565b8080601f016020809104026020016040519081016040528093929190818152602001838380828437600081840152601f19601f82011690508083019250505050505050610d30565b6040516020016108ed9493929190611cdd565b6040516020818303038152906040529350856101a001358162ffffff16101561092557600162ffffff168261092291906112af565b91505b85610100018162ffffff166004811061094157610940610ea5565b5b6020020135866080018262ffffff166004811061096157610960610ea5565b5b60200201356109709190611255565b8361097b91906112af565b92505b808061098990611d56565b9150506107bc565b50509250929050565b60606040516020016109ab90612258565b604051602081830303815290604052905090565b6060600060405180610100016040528060c48152602001612a3c60c491399050600060405180610100016040528060d88152602001612b4060d8913990508315610a2e578181604051602001610a169291906122c4565b60405160208183030381529060405292505050610a55565b8181604051602001610a4192919061233f565b604051602081830303815290604052925050505b919050565b60606000600262ffffff1683600162ffffff16610a779190611255565b600a62ffffff16610a8891906112af565b610a9291906112af565b9050610a9d81610395565b610aa685610395565b604051602001610ab79291906124c4565b60405160208183030381529060405291505092915050565b6060604051602001610ae0906128a4565b604051602081830303815290604052905090565b606060006002836002610b079190611255565b610b1191906112af565b67ffffffffffffffff811115610b2a57610b296118a8565b5b6040519080825280601f01601f191660200182016040528015610b5c5781602001600182028036833780820191505090505b5090507f300000000000000000000000000000000000000000000000000000000000000081600081518110610b9457610b93610ea5565b5b60200101907effffffffffffffffffffffffffffffffffffffffffffffffffffffffffffff1916908160001a9053507f780000000000000000000000000000000000000000000000000000000000000081600181518110610bf857610bf7610ea5565b5b60200101907effffffffffffffffffffffffffffffffffffffffffffffffffffffffffffff1916908160001a90535060006001846002610c389190611255565b610c4291906112af565b90505b6001811115610ce2577f3031323334353637383961626364656600000000000000000000000000000000600f861660108110610c8457610c83610ea5565b5b1a60f81b828281518110610c9b57610c9a610ea5565b5b60200101907effffffffffffffffffffffffffffffffffffffffffffffffffffffffffffff1916908160001a905350600485901c945080610cdb906128b9565b9050610c45565b5060008414610d26576040517f08c379a0000000000000000000000000000000000000000000000000000000008152600401610d1d9061292f565b60405180910390fd5b8091505092915050565b6060610d3b85610395565b8284610d4687610395565b604051602001610d5994939291906129e7565b6040516020818303038152906040529050949350505050565b600080fd5b600080fd5b600080fd5b60006101c08284031215610d9857610d97610d7c565b5b81905092915050565b600060208284031215610db757610db6610d72565b5b600082013567ffffffffffffffff811115610dd557610dd4610d77565b5b610de184828501610d81565b91505092915050565b600081519050919050565b600082825260208201905092915050565b60005b83811015610e24578082015181840152602081019050610e09565b83811115610e33576000848401525b50505050565b6000601f19601f8301169050919050565b6000610e5582610dea565b610e5f8185610df5565b9350610e6f818560208601610e06565b610e7881610e39565b840191505092915050565b60006020820190508181036000830152610e9d8184610e4a565b905092915050565b7f4e487b7100000000000000000000000000000000000000000000000000000000600052603260045260246000fd5b600080fd5b600080fd5b600080fd5b600082356001608003833603038112610eff57610efe610ed4565b5b80830191505092915050565b60008083356001602003843603038112610f2857610f27610ed4565b5b80840192508235915067ffffffffffffffff821115610f4a57610f49610ed9565b5b602083019250600182023603831315610f6657610f65610ede565b5b509250929050565b600081905092915050565b6000610f8482610dea565b610f8e8185610f6e565b9350610f9e818560208601610e06565b80840191505092915050565b7f7b226465736372697074696f6e223a2200000000000000000000000000000000600082015250565b6000610fe0601083610f6e565b9150610feb82610faa565b601082019050919050565b82818337600083830152505050565b60006110118385610f6e565b935061101e838584610ff6565b82840190509392505050565b7f222c22616d6f756e74223a220000000000000000000000000000000000000000600082015250565b6000611060600c83610f6e565b915061106b8261102a565b600c82019050919050565b7f222c227072696365506572556e6974223a220000000000000000000000000000600082015250565b60006110ac601283610f6e565b91506110b782611076565b601282019050919050565b7f227d000000000000000000000000000000000000000000000000000000000000600082015250565b60006110f8600283610f6e565b9150611103826110c2565b600282019050919050565b600061111a8288610f79565b915061112582610fd3565b9150611132828688611005565b915061113d82611053565b91506111498285610f79565b91506111548261109f565b91506111608284610f79565b915061116b826110eb565b91508190509695505050505050565b6000819050919050565b7f4e487b7100000000000000000000000000000000000000000000000000000000600052601160045260246000fd5b60006111be8261117a565b91506111c98361117a565b9250828210156111dc576111db611184565b5b828203905092915050565b7f2c20000000000000000000000000000000000000000000000000000000000000600082015250565b600061121d600283610f6e565b9150611228826111e7565b600282019050919050565b600061123f8284610f79565b915061124a82611210565b915081905092915050565b60006112608261117a565b915061126b8361117a565b9250817fffffffffffffffffffffffffffffffffffffffffffffffffffffffffffffffff04831182151516156112a4576112a3611184565b5b828202905092915050565b60006112ba8261117a565b91506112c58361117a565b9250827fffffffffffffffffffffffffffffffffffffffffffffffffffffffffffffffff038211156112fa576112f9611184565b5b828201905092915050565b60006113108261117a565b91507fffffffffffffffffffffffffffffffffffffffffffffffffffffffffffffffff82141561134357611342611184565b5b600182019050919050565b7f5d00000000000000000000000000000000000000000000000000000000000000600082015250565b6000611384600183610f6e565b915061138f8261134e565b600182019050919050565b60006113a68284610f79565b91506113b182611377565b915081905092915050565b7f2c2022546f74616c436f7374223a220000000000000000000000000000000000600082015250565b60006113f2600f83610f6e565b91506113fd826113bc565b600f82019050919050565b7f2200000000000000000000000000000000000000000000000000000000000000600082015250565b600061143e600183610f6e565b915061144982611408565b600182019050919050565b60006114608285610f79565b915061146b826113e5565b91506114778284610f79565b915061148282611431565b91508190509392505050565b7f4e487b7100000000000000000000000000000000000000000000000000000000600052602260045260246000fd5b600060028204905060018216806114d557607f821691505b602082108114156114e9576114e861148e565b5b50919050565b600073ffffffffffffffffffffffffffffffffffffffff82169050919050565b600061151a826114ef565b9050919050565b61152a8161150f565b811461153557600080fd5b50565b60008135905061154781611521565b92915050565b60006020828403121561156357611562610d72565b5b600061157184828501611538565b91505092915050565b7f7b2263726f77647461696e65724964223a220000000000000000000000000000600082015250565b60006115b0601283610f6e565b91506115bb8261157a565b601282019050919050565b7f222c2022766f75636865724964223a2200000000000000000000000000000000600082015250565b60006115fc601083610f6e565b9150611607826115c6565b601082019050919050565b7f222c202263757272656e744f776e6572223a2230780000000000000000000000600082015250565b6000611648601583610f6e565b915061165382611612565b601582019050919050565b7f222c20226465736372697074696f6e223a000000000000000000000000000000600082015250565b6000611694601183610f6e565b915061169f8261165e565b601182019050919050565b7f2c2022696d616765223a20220000000000000000000000000000000000000000600082015250565b60006116e0600c83610f6e565b91506116eb826116aa565b600c82019050919050565b7f646174613a696d6167652f7376672b786d6c3b6261736536342c000000000000600082015250565b600061172c601a83610f6e565b9150611737826116f6565b601a82019050919050565b600061174d826115a3565b91506117598288610f79565b9150611764826115ef565b91506117708287610f79565b915061177b8261163b565b91506117878286610f79565b915061179282611687565b915061179e8285610f79565b91506117a9826116d3565b91506117b48261171f565b91506117c08284610f79565b91506117cb826110eb565b91508190509695505050505050565b7f646174613a6170706c69636174696f6e2f6a736f6e3b6261736536342c000000600082015250565b6000611810601d83610f6e565b915061181b826117da565b601d82019050919050565b600061183182611803565b915061183d8284610f79565b915081905092915050565b7f4e487b7100000000000000000000000000000000000000000000000000000000600052601260045260246000fd5b60006118828261117a565b915061188d8361117a565b92508261189d5761189c611848565b5b828204905092915050565b7f4e487b7100000000000000000000000000000000000000000000000000000000600052604160045260246000fd5b60006118e28261117a565b91506118ed8361117a565b9250826118fd576118fc611848565b5b828206905092915050565b60008115159050919050565b61191d81611908565b811461192857600080fd5b50565b60008135905061193a81611914565b92915050565b60006020828403121561195657611955610d72565b5b60006119648482850161192b565b91505092915050565b7f3c2f747370616e3e3c2f746578743e0000000000000000000000000000000000600082015250565b60006119a3600f83610f6e565b91506119ae8261196d565b600f82019050919050565b7f3c7465787420786d6c3a73706163653d2270726573657276652220636c61737360008201527f3d22666f6f7465722220783d2238352220793d2233383022207472616e73666f60208201527f726d3d227363616c6528312e303237323733332c302e3937333435303831292260408201527f3e00000000000000000000000000000000000000000000000000000000000000606082015250565b6000611a61606183610f6e565b9150611a6c826119b9565b606182019050919050565b7f3c2f746578743e3c2f673e000000000000000000000000000000000000000000600082015250565b6000611aad600b83610f6e565b9150611ab882611a77565b600b82019050919050565b6000611acf828b610f79565b9150611adb828a610f79565b9150611ae682611996565b9150611af28289610f79565b9150611afe8288610f79565b9150611b0982611996565b9150611b158287610f79565b9150611b218286610f79565b9150611b2c82611a54565b9150611b388285610f79565b9150611b4382611aa0565b9150611b4f8284610f79565b91508190509998505050505050505050565b7f3c7465787420786d6c3a73706163653d2270726573657276652220636c61737360008201527f3d22736d616c6c2220783d220000000000000000000000000000000000000000602082015250565b6000611bbd602c83610f6e565b9150611bc882611b61565b602c82019050919050565b7f2220793d22000000000000000000000000000000000000000000000000000000600082015250565b6000611c09600583610f6e565b9150611c1482611bd3565b600582019050919050565b7f22207472616e73666f726d3d226d61747269782831362e343931362c302c302c60008201527f31352e3632373534372c372e3538393737322c362e3939343739303329223e00602082015250565b6000611c7b603f83610f6e565b9150611c8682611c1f565b603f82019050919050565b7f3c2f746578743e00000000000000000000000000000000000000000000000000600082015250565b6000611cc7600783610f6e565b9150611cd282611c91565b600782019050919050565b6000611ce98287610f79565b9150611cf482611bb0565b9150611d008286610f79565b9150611d0b82611bfc565b9150611d178285610f79565b9150611d2282611c6e565b9150611d2e8284610f79565b9150611d3982611cba565b915081905095945050505050565b600062ffffff82169050919050565b6000611d6182611d47565b915062ffffff821415611d7757611d76611184565b5b600182019050919050565b7f3c7376672077696474683d223130306d6d22206865696768743d223133306d6d60008201527f222076696577426f783d223020302033303020343330222076657273696f6e3d60208201527f22312e31222069643d22737667352220636c6173733d22737667426f6479222060408201527f786d6c6e733d22687474703a2f2f7777772e77332e6f72672f323030302f737660608201527f67223e3c672069643d226c6179657231223e3c706174682069643d227061746860808201527f3222207374796c653d22636f6c6f723a233030303030303b66696c6c3a75726c60a08201527f28235376676a734c696e6561724772616469656e7432353631293b66696c6c2d60c08201527f6f7061636974793a302e3839393139333b66696c6c2d72756c653a6576656e6f60e08201527f64643b7374726f6b652d77696474683a312e35343534333b2d696e6b736361706101008201527f652d7374726f6b653a6e6f6e652220643d226d33322e3230322031322e3538716101208201527f2d32362e353034372d2e303231362d32362e343438312032362e3938336c30206101408201527f3336312e37333834712e303131342031312e3833312031352e373236392031316101608201527f2e373830396837362e373937632d2e313630392d312e373431382d2e363733346101808201527f2d31312e3532393120382e313930382d31312e303637392e313435332e3030386101a08201527f2e333831342e303136352e353237352e303136356839302e38303638632e31346101c08201527f36312030202e3338332d2e3030352e353239312d2e30303520362e373031362d6101e08201527f2e30303620372e3730383320392e3335353420372e3833362031312e303536316102008201527f2e303130392e313435332e313335322e323633342e323831332e323633346c386102208201527f302e3039333120307131322e323834392e30322031322e323934372d31322e326102408201527f393437762d3336312e37363639712d2e313036382d32362e393631342d32362e6102608201527f343438322d32362e39383332682d36362e32373934632e3030332031322e36336102808201527f31352e3035303420392e353535392d35342e37323820392e3534362d34382e336102a08201527f34382e303130362d35312e3538353420322e313736382d35312e383034342d396102c08201527f2e373534327a222f3e3c7465787420786d6c3a73706163653d227072657365726102e08201527f76652220636c6173733d226d656469756d2220783d2231302e343738333534226103008201527f20793d2230222069643d227465787431363238302d362d3922207472616e73666103208201527f6f726d3d226d61747269782831362e343931362c302c302c31352e36323735346103408201527f372c372e313332353231312c35342e36363439333229223e000000000000000061036082015250565b60006121cf61037883610f6e565b91506121da82611d82565b61037882019050919050565b7f3c747370616e20783d2231352e3437383335342220793d2231223e43726f776460008201527f7461696e65722000000000000000000000000000000000000000000000000000602082015250565b6000612242602783610f6e565b915061224d826121e6565b602782019050919050565b6000612263826121c1565b915061226e82612235565b9150819050919050565b7f5965730000000000000000000000000000000000000000000000000000000000600082015250565b60006122ae600383610f6e565b91506122b982612278565b600382019050919050565b60006122d08285610f79565b91506122db826122a1565b91506122e78284610f79565b91508190509392505050565b7f4e6f000000000000000000000000000000000000000000000000000000000000600082015250565b6000612329600283610f6e565b9150612334826122f3565b600282019050919050565b600061234b8285610f79565b91506123568261231c565b91506123628284610f79565b91508190509392505050565b7f3c7465787420786d6c3a73706163653d2270726573657276652220636c61737360008201527f3d22736d616c6c22200000000000000000000000000000000000000000000000602082015250565b60006123ca602983610f6e565b91506123d58261236e565b602982019050919050565b7f783d22322220793d220000000000000000000000000000000000000000000000600082015250565b6000612416600983610f6e565b9150612421826123e0565b600982019050919050565b7f546f74616c200000000000000000000000000000000000000000000000000000600082015250565b6000612462600683610f6e565b915061246d8261242c565b600682019050919050565b7fefbc840000000000000000000000000000000000000000000000000000000000600082015250565b60006124ae600383610f6e565b91506124b982612478565b600382019050919050565b60006124cf826123bd565b91506124da82612409565b91506124e68285610f79565b91506124f182611c6e565b91506124fc82612455565b9150612507826124a1565b91506125138284610f79565b915061251e82611cba565b91508190509392505050565b7f3c7374796c653e2e737667426f6479207b666f6e742d66616d696c793a20224860008201527f656c76657469636122207d2e74696e79207b666f6e742d737472657463683a6e60208201527f6f726d616c3b666f6e742d73697a653a302e35323536323470783b6c696e652d60408201527f6865696768743a312e32353b746578742d616e63686f723a656e643b7768697460608201527f652d73706163653a7072653b66696c6c3a236639663966393b7d2e666f6f746560808201527f72207b666f6e742d737472657463683a6e6f726d616c3b666f6e742d73697a6560a08201527f3a3770783b6c696e652d6865696768743a2e32353b77686974652d737061636560c08201527f3a7072653b66696c6c3a236639663966393b7d2e736d616c6c207b666f6e742d60e08201527f73697a653a302e363570783b746578742d616c69676e3a73746172743b7465786101008201527f742d616e63686f723a73746172743b77686974652d73706163653a7072653b666101208201527f696c6c3a236639663966393b7d2e6d656469756d207b666f6e742d73697a653a6101408201527f302e393270783b666f6e742d66616d696c793a48656c7665746963613b7465786101608201527f742d616c69676e3a656e643b746578742d616e63686f723a656e643b776869746101808201527f652d73706163653a7072653b66696c6c3a236639663966393b7d3c2f7374796c6101a08201527f653e3c6c696e6561724772616469656e742078313d273025272079313d2733306101c08201527f25272078323d27363025272079323d2739302527206772616469656e74556e696101e08201527f74733d277573657253706163654f6e557365272069643d275376676a734c696e6102008201527f6561724772616469656e7432353631273e3c73746f702073746f702d636f6c6f6102208201527f723d277267626128302c2035322c2031312c203131312927206f66667365743d6102408201527f27302e3032273e3c2f73746f703e3c73746f702073746f702d636f6c6f723d276102608201527f726762612839302c2034332c2033302c20322927206f66667365743d2731273e6102808201527f3c2f73746f703e3c2f6c696e6561724772616469656e743e3c2f7376673e00006102a082015250565b600061288d6102be83610f6e565b91506128988261252a565b6102be82019050919050565b60006128af8261287f565b9150819050919050565b60006128c48261117a565b915060008214156128d8576128d7611184565b5b600182039050919050565b7f537472696e67733a20686578206c656e67746820696e73756666696369656e74600082015250565b6000612919602083610df5565b9150612924826128e3565b602082019050919050565b600060208201905081810360008301526129488161290c565b9050919050565b7f2020782020000000000000000000000000000000000000000000000000000000600082015250565b6000612985600583610f6e565b91506129908261294f565b600582019050919050565b7f202d200000000000000000000000000000000000000000000000000000000000600082015250565b60006129d1600383610f6e565b91506129dc8261299b565b600382019050919050565b60006129f38287610f79565b91506129fe82612978565b9150612a0a8286610f79565b9150612a15826129c4565b9150612a218285610f79565b9150612a2d8284610f79565b91508190509594505050505056fe3c7465787420786d6c3a73706163653d2270726573657276652220636c6173733d2274696e792220783d2231302e3437383335342220793d2230222069643d227465787431363238302d362d392d3722207472616e73666f726d3d226d61747269782831362e343931362c302c302c31352e3632373534372c352e373238323838342c39302e31363030393829223e3c747370616e20783d2231352e3437383335342220793d22312e35222069643d22747370616e31313633223e436c61696d65643a204142434445464748494a4b4c4d4e4f505152535455565758595a6162636465666768696a6b6c6d6e6f707172737475767778797a303132333435363738392b2f3c2f747370616e3e3c2f746578743e3c7465787420786d6c3a73706163653d2270726573657276652220636c6173733d226d656469756d2220783d2231332e3437383335342220793d2231342e31363839393434222069643d227465787431363238302d3622207472616e73666f726d3d226d61747269782831362e343931362c302c302c31352e3632373534372c372e3538393737322c362e3939343739303329223e3c747370616e20783d2231352e3437383335342220793d22352e34222069643d22747370616e31313635223e566f756368657220a264697066735822122026500483e0d72e1b5b52186440e7c86707f8dfbdb205e15d4016c4546912136c64736f6c634300080b0033",
  "devdoc": {
    "kind": "dev",
    "methods": {
      "uri((uint256,uint256,address,bool,uint256[4],uint256[4],string[4],uint256))": {
        "details": "Return a DATAURI containing a voucher SVG representation of the given tokenId.",
        "params": {
          "_metadata": "Address that represents the product or service provider."
        },
        "returns": {
          "_0": "The voucher image in SVG, in data URI scheme."
        }
      }
    },
    "version": 1
  },
  "userdoc": {
    "kind": "user",
    "methods": {},
    "version": 1
  },
  "storageLayout": {
    "storage": [
      {
        "astId": 3642,
        "contract": "src/contracts/Metadata/MetadataServiceV1.sol:MetadataServiceV1",
        "label": "unitSymbol",
        "offset": 0,
        "slot": "0",
        "type": "t_string_storage"
      },
      {
        "astId": 3644,
        "contract": "src/contracts/Metadata/MetadataServiceV1.sol:MetadataServiceV1",
        "label": "ticketFootnotes",
        "offset": 0,
        "slot": "1",
        "type": "t_string_storage"
      }
    ],
    "types": {
      "t_string_storage": {
        "encoding": "bytes",
        "label": "string",
        "numberOfBytes": "32"
      }
    }
  }
}