{
  "address": "0x67F7bB5623Aa2964466cbcF80c3F3718181162b4",
  "abi": [
    {
      "inputs": [
        {
          "internalType": "address",
          "name": "_crowdtainerImplementation",
          "type": "address"
        }
      ],
      "stateMutability": "nonpayable",
      "type": "constructor"
    },
    {
      "inputs": [],
      "name": "AccountNotOwner",
      "type": "error"
    },
    {
      "inputs": [],
      "name": "CCIP_Read_InvalidOperation",
      "type": "error"
    },
    {
      "inputs": [
        {
          "internalType": "address",
          "name": "expected",
          "type": "address"
        },
        {
          "internalType": "address",
          "name": "actual",
          "type": "address"
        }
      ],
      "name": "CallerNotAllowed",
      "type": "error"
    },
    {
      "inputs": [],
      "name": "CrowdtainerInexistent",
      "type": "error"
    },
    {
      "inputs": [
        {
          "internalType": "uint256",
          "name": "tokenId",
          "type": "uint256"
        }
      ],
      "name": "InvalidTokenId",
      "type": "error"
    },
    {
      "inputs": [
        {
          "internalType": "uint256",
          "name": "maximum",
          "type": "uint256"
        },
        {
          "internalType": "address",
          "name": "crowdtainer",
          "type": "address"
        }
      ],
      "name": "MaximumNumberOfParticipantsReached",
      "type": "error"
    },
    {
      "inputs": [],
      "name": "MetadataServiceAddressIsZero",
      "type": "error"
    },
    {
      "inputs": [
        {
          "internalType": "address",
          "name": "sender",
          "type": "address"
        },
        {
          "internalType": "string[]",
          "name": "urls",
          "type": "string[]"
        },
        {
          "internalType": "bytes",
          "name": "callData",
          "type": "bytes"
        },
        {
          "internalType": "bytes4",
          "name": "callbackFunction",
          "type": "bytes4"
        },
        {
          "internalType": "bytes",
          "name": "extraData",
          "type": "bytes"
        }
      ],
      "name": "OffchainLookup",
      "type": "error"
    },
    {
      "inputs": [],
      "name": "SetClaimedOnlyAllowedByShippingAgent",
      "type": "error"
    },
    {
      "inputs": [
        {
          "internalType": "uint64",
          "name": "current",
          "type": "uint64"
        },
        {
          "internalType": "uint64",
          "name": "expires",
          "type": "uint64"
        }
      ],
      "name": "SignatureExpired",
      "type": "error"
    },
    {
      "inputs": [
        {
          "internalType": "address",
          "name": "crowdtainer",
          "type": "address"
        },
        {
          "internalType": "enum CrowdtainerState",
          "name": "state",
          "type": "uint8"
        }
      ],
      "name": "TransferNotAllowed",
      "type": "error"
    },
    {
      "anonymous": false,
      "inputs": [
        {
          "indexed": true,
          "internalType": "address",
          "name": "owner",
          "type": "address"
        },
        {
          "indexed": true,
          "internalType": "address",
          "name": "approved",
          "type": "address"
        },
        {
          "indexed": true,
          "internalType": "uint256",
          "name": "tokenId",
          "type": "uint256"
        }
      ],
      "name": "Approval",
      "type": "event"
    },
    {
      "anonymous": false,
      "inputs": [
        {
          "indexed": true,
          "internalType": "address",
          "name": "owner",
          "type": "address"
        },
        {
          "indexed": true,
          "internalType": "address",
          "name": "operator",
          "type": "address"
        },
        {
          "indexed": false,
          "internalType": "bool",
          "name": "approved",
          "type": "bool"
        }
      ],
      "name": "ApprovalForAll",
      "type": "event"
    },
    {
      "anonymous": false,
      "inputs": [
        {
          "indexed": true,
          "internalType": "address",
          "name": "_crowdtainerAddress",
          "type": "address"
        },
        {
          "indexed": false,
          "internalType": "uint256",
          "name": "_nextCrowdtainerId",
          "type": "uint256"
        }
      ],
      "name": "CrowdtainerDeployed",
      "type": "event"
    },
    {
      "anonymous": false,
      "inputs": [
        {
          "indexed": true,
          "internalType": "address",
          "name": "from",
          "type": "address"
        },
        {
          "indexed": true,
          "internalType": "address",
          "name": "to",
          "type": "address"
        },
        {
          "indexed": true,
          "internalType": "uint256",
          "name": "tokenId",
          "type": "uint256"
        }
      ],
      "name": "Transfer",
      "type": "event"
    },
    {
      "anonymous": false,
      "inputs": [
        {
          "indexed": true,
          "internalType": "address",
          "name": "crowdtainer",
          "type": "address"
        }
      ],
      "name": "Vouchers721Created",
      "type": "event"
    },
    {
      "inputs": [],
      "name": "ID_MULTIPLE",
      "outputs": [
        {
          "internalType": "uint256",
          "name": "",
          "type": "uint256"
        }
      ],
      "stateMutability": "view",
      "type": "function"
    },
    {
      "inputs": [
        {
          "internalType": "address",
          "name": "to",
          "type": "address"
        },
        {
          "internalType": "uint256",
          "name": "tokenId",
          "type": "uint256"
        }
      ],
      "name": "approve",
      "outputs": [],
      "stateMutability": "nonpayable",
      "type": "function"
    },
    {
      "inputs": [
        {
          "internalType": "address",
          "name": "owner",
          "type": "address"
        }
      ],
      "name": "balanceOf",
      "outputs": [
        {
          "internalType": "uint256",
          "name": "",
          "type": "uint256"
        }
      ],
      "stateMutability": "view",
      "type": "function"
    },
    {
      "inputs": [
        {
          "components": [
            {
              "internalType": "address",
              "name": "shippingAgent",
              "type": "address"
            },
            {
              "internalType": "address",
              "name": "signer",
              "type": "address"
            },
            {
              "internalType": "uint256",
              "name": "openingTime",
              "type": "uint256"
            },
            {
              "internalType": "uint256",
              "name": "expireTime",
              "type": "uint256"
            },
            {
              "internalType": "uint256",
              "name": "targetMinimum",
              "type": "uint256"
            },
            {
              "internalType": "uint256",
              "name": "targetMaximum",
              "type": "uint256"
            },
            {
              "internalType": "uint256[4]",
              "name": "unitPricePerType",
              "type": "uint256[4]"
            },
            {
              "internalType": "uint256",
              "name": "referralRate",
              "type": "uint256"
            },
            {
              "internalType": "uint256",
              "name": "referralEligibilityValue",
              "type": "uint256"
            },
            {
              "internalType": "address",
              "name": "token",
              "type": "address"
            },
            {
              "internalType": "string",
              "name": "legalContractURI",
              "type": "string"
            }
          ],
          "internalType": "struct CampaignData",
          "name": "_campaignData",
          "type": "tuple"
        },
        {
          "internalType": "string[4]",
          "name": "_productDescription",
          "type": "string[4]"
        },
        {
          "internalType": "address",
          "name": "_metadataService",
          "type": "address"
        }
      ],
      "name": "createCrowdtainer",
      "outputs": [
        {
          "internalType": "address",
          "name": "",
          "type": "address"
        },
        {
          "internalType": "uint256",
          "name": "",
          "type": "uint256"
        }
      ],
      "stateMutability": "nonpayable",
      "type": "function"
    },
    {
      "inputs": [],
      "name": "crowdtainerCount",
      "outputs": [
        {
          "internalType": "uint256",
          "name": "",
          "type": "uint256"
        }
      ],
      "stateMutability": "view",
      "type": "function"
    },
    {
      "inputs": [
        {
          "internalType": "uint256",
          "name": "",
          "type": "uint256"
        }
      ],
      "name": "crowdtainerForId",
      "outputs": [
        {
          "internalType": "address",
          "name": "",
          "type": "address"
        }
      ],
      "stateMutability": "view",
      "type": "function"
    },
    {
      "inputs": [
        {
          "internalType": "uint256",
          "name": "_crowdtainerId",
          "type": "uint256"
        }
      ],
      "name": "crowdtainerIdToAddress",
      "outputs": [
        {
          "internalType": "address",
          "name": "",
          "type": "address"
        }
      ],
      "stateMutability": "view",
      "type": "function"
    },
    {
      "inputs": [
        {
          "internalType": "uint256",
          "name": "tokenId",
          "type": "uint256"
        }
      ],
      "name": "getApproved",
      "outputs": [
        {
          "internalType": "address",
          "name": "",
          "type": "address"
        }
      ],
      "stateMutability": "view",
      "type": "function"
    },
    {
      "inputs": [
        {
          "internalType": "uint256",
          "name": "_tokenId",
          "type": "uint256"
        }
      ],
      "name": "getClaimStatus",
      "outputs": [
        {
          "internalType": "bool",
          "name": "",
          "type": "bool"
        }
      ],
      "stateMutability": "view",
      "type": "function"
    },
    {
      "inputs": [
        {
          "internalType": "bytes",
          "name": "data",
          "type": "bytes"
        }
      ],
      "name": "getParameters",
      "outputs": [
        {
          "internalType": "bytes",
          "name": "",
          "type": "bytes"
        }
      ],
      "stateMutability": "pure",
      "type": "function"
    },
    {
      "inputs": [
        {
          "internalType": "bytes",
          "name": "data",
          "type": "bytes"
        }
      ],
      "name": "getSignature",
      "outputs": [
        {
          "internalType": "bytes4",
          "name": "",
          "type": "bytes4"
        }
      ],
      "stateMutability": "pure",
      "type": "function"
    },
    {
      "inputs": [
        {
          "internalType": "address",
          "name": "",
          "type": "address"
        }
      ],
      "name": "idForCrowdtainer",
      "outputs": [
        {
          "internalType": "uint256",
          "name": "",
          "type": "uint256"
        }
      ],
      "stateMutability": "view",
      "type": "function"
    },
    {
      "inputs": [
        {
          "internalType": "address",
          "name": "owner",
          "type": "address"
        },
        {
          "internalType": "address",
          "name": "operator",
          "type": "address"
        }
      ],
      "name": "isApprovedForAll",
      "outputs": [
        {
          "internalType": "bool",
          "name": "",
          "type": "bool"
        }
      ],
      "stateMutability": "view",
      "type": "function"
    },
    {
      "inputs": [
        {
          "internalType": "address",
          "name": "_crowdtainer",
          "type": "address"
        },
        {
          "internalType": "uint256[4]",
          "name": "_quantities",
          "type": "uint256[4]"
        },
        {
          "internalType": "bool",
          "name": "_enableReferral",
          "type": "bool"
        },
        {
          "internalType": "address",
          "name": "_referrer",
          "type": "address"
        }
      ],
      "name": "join",
      "outputs": [
        {
          "internalType": "uint256",
          "name": "",
          "type": "uint256"
        }
      ],
      "stateMutability": "nonpayable",
      "type": "function"
    },
    {
      "inputs": [
        {
          "internalType": "bytes",
          "name": "result",
          "type": "bytes"
        },
        {
          "internalType": "bytes",
          "name": "extraData",
          "type": "bytes"
        }
      ],
      "name": "joinWithSignature",
      "outputs": [
        {
          "internalType": "uint256",
          "name": "",
          "type": "uint256"
        }
      ],
      "stateMutability": "nonpayable",
      "type": "function"
    },
    {
      "inputs": [
        {
          "internalType": "uint256",
          "name": "_tokenId",
          "type": "uint256"
        }
      ],
      "name": "leave",
      "outputs": [],
      "stateMutability": "nonpayable",
      "type": "function"
    },
    {
      "inputs": [
        {
          "internalType": "uint256",
          "name": "",
          "type": "uint256"
        }
      ],
      "name": "metadataServiceForCrowdatinerId",
      "outputs": [
        {
          "internalType": "address",
          "name": "",
          "type": "address"
        }
      ],
      "stateMutability": "view",
      "type": "function"
    },
    {
      "inputs": [],
      "name": "name",
      "outputs": [
        {
          "internalType": "string",
          "name": "",
          "type": "string"
        }
      ],
      "stateMutability": "view",
      "type": "function"
    },
    {
      "inputs": [
        {
          "internalType": "uint256",
          "name": "tokenId",
          "type": "uint256"
        }
      ],
      "name": "ownerOf",
      "outputs": [
        {
          "internalType": "address",
          "name": "",
          "type": "address"
        }
      ],
      "stateMutability": "view",
      "type": "function"
    },
    {
      "inputs": [
        {
          "internalType": "uint256",
          "name": "",
          "type": "uint256"
        },
        {
          "internalType": "uint256",
          "name": "",
          "type": "uint256"
        }
      ],
      "name": "productDescription",
      "outputs": [
        {
          "internalType": "string",
          "name": "",
          "type": "string"
        }
      ],
      "stateMutability": "view",
      "type": "function"
    },
    {
      "inputs": [
        {
          "internalType": "address",
          "name": "from",
          "type": "address"
        },
        {
          "internalType": "address",
          "name": "to",
          "type": "address"
        },
        {
          "internalType": "uint256",
          "name": "tokenId",
          "type": "uint256"
        }
      ],
      "name": "safeTransferFrom",
      "outputs": [],
      "stateMutability": "nonpayable",
      "type": "function"
    },
    {
      "inputs": [
        {
          "internalType": "address",
          "name": "from",
          "type": "address"
        },
        {
          "internalType": "address",
          "name": "to",
          "type": "address"
        },
        {
          "internalType": "uint256",
          "name": "tokenId",
          "type": "uint256"
        },
        {
          "internalType": "bytes",
          "name": "data",
          "type": "bytes"
        }
      ],
      "name": "safeTransferFrom",
      "outputs": [],
      "stateMutability": "nonpayable",
      "type": "function"
    },
    {
      "inputs": [
        {
          "internalType": "address",
          "name": "operator",
          "type": "address"
        },
        {
          "internalType": "bool",
          "name": "approved",
          "type": "bool"
        }
      ],
      "name": "setApprovalForAll",
      "outputs": [],
      "stateMutability": "nonpayable",
      "type": "function"
    },
    {
      "inputs": [
        {
          "internalType": "uint256",
          "name": "_tokenId",
          "type": "uint256"
        },
        {
          "internalType": "bool",
          "name": "_value",
          "type": "bool"
        }
      ],
      "name": "setClaimStatus",
      "outputs": [],
      "stateMutability": "nonpayable",
      "type": "function"
    },
    {
      "inputs": [
        {
          "internalType": "bytes4",
          "name": "interfaceId",
          "type": "bytes4"
        }
      ],
      "name": "supportsInterface",
      "outputs": [
        {
          "internalType": "bool",
          "name": "",
          "type": "bool"
        }
      ],
      "stateMutability": "view",
      "type": "function"
    },
    {
      "inputs": [],
      "name": "symbol",
      "outputs": [
        {
          "internalType": "string",
          "name": "",
          "type": "string"
        }
      ],
      "stateMutability": "view",
      "type": "function"
    },
    {
      "inputs": [
        {
          "internalType": "uint256",
          "name": "index",
          "type": "uint256"
        }
      ],
      "name": "tokenByIndex",
      "outputs": [
        {
          "internalType": "uint256",
          "name": "",
          "type": "uint256"
        }
      ],
      "stateMutability": "view",
      "type": "function"
    },
    {
      "inputs": [
        {
          "internalType": "uint256",
          "name": "",
          "type": "uint256"
        },
        {
          "internalType": "uint256",
          "name": "",
          "type": "uint256"
        }
      ],
      "name": "tokenIdQuantities",
      "outputs": [
        {
          "internalType": "uint256",
          "name": "",
          "type": "uint256"
        }
      ],
      "stateMutability": "view",
      "type": "function"
    },
    {
      "inputs": [
        {
          "internalType": "uint256",
          "name": "_tokenId",
          "type": "uint256"
        }
      ],
      "name": "tokenIdToCrowdtainerId",
      "outputs": [
        {
          "internalType": "uint256",
          "name": "",
          "type": "uint256"
        }
      ],
      "stateMutability": "pure",
      "type": "function"
    },
    {
      "inputs": [
        {
          "internalType": "address",
          "name": "owner",
          "type": "address"
        },
        {
          "internalType": "uint256",
          "name": "index",
          "type": "uint256"
        }
      ],
      "name": "tokenOfOwnerByIndex",
      "outputs": [
        {
          "internalType": "uint256",
          "name": "",
          "type": "uint256"
        }
      ],
      "stateMutability": "view",
      "type": "function"
    },
    {
      "inputs": [
        {
          "internalType": "uint256",
          "name": "_tokenId",
          "type": "uint256"
        }
      ],
      "name": "tokenURI",
      "outputs": [
        {
          "internalType": "string",
          "name": "",
          "type": "string"
        }
      ],
      "stateMutability": "view",
      "type": "function"
    },
    {
      "inputs": [],
      "name": "totalSupply",
      "outputs": [
        {
          "internalType": "uint256",
          "name": "",
          "type": "uint256"
        }
      ],
      "stateMutability": "view",
      "type": "function"
    },
    {
      "inputs": [
        {
          "internalType": "address",
          "name": "from",
          "type": "address"
        },
        {
          "internalType": "address",
          "name": "to",
          "type": "address"
        },
        {
          "internalType": "uint256",
          "name": "tokenId",
          "type": "uint256"
        }
      ],
      "name": "transferFrom",
      "outputs": [],
      "stateMutability": "nonpayable",
      "type": "function"
    }
  ],
  "transactionHash": "0x899a8987a57fdef6554cb28e3fadb0e01866f096cb60a0a7be1a51df715255ef",
  "args": [
    "0xeaa1324f799Be70cB8a7257fdF1905167E0c1eb1"
  ],
  "numDeployments": 1,
  "solcInputHash": "4fcc7e3911ff02c878c94e6becd38fbc",
  "bytecode": "0x60a06040523480156200001157600080fd5b5060405162003979380380620039798339810160408190526200003491620000d6565b6040518060400160405280600b81526020016a566f75636865727337323160a81b8152506040518060400160405280600381526020016256563160e81b8152508160009081620000859190620001ad565b506001620000948282620001ad565b5050506001600160a01b03811660805260405130907fdd7bf9deccc329033ee50f9e925f9bf2a608eac8950906d19cb2ed39ec61cf3690600090a25062000279565b600060208284031215620000e957600080fd5b81516001600160a01b03811681146200010157600080fd5b9392505050565b634e487b7160e01b600052604160045260246000fd5b600181811c908216806200013357607f821691505b6020821081036200015457634e487b7160e01b600052602260045260246000fd5b50919050565b601f821115620001a857600081815260208120601f850160051c81016020861015620001835750805b601f850160051c820191505b81811015620001a4578281556001016200018f565b5050505b505050565b81516001600160401b03811115620001c957620001c962000108565b620001e181620001da84546200011e565b846200015a565b602080601f831160018114620002195760008415620002005750858301515b600019600386901b1c1916600185901b178555620001a4565b600085815260208120601f198616915b828110156200024a5788860151825594840194600190910190840162000229565b5085821015620002695787850151600019600388901b60f8161c191681555b5050505050600190811b01905550565b6080516136e462000295600039600061118f01526136e46000f3fe608060405234801561001057600080fd5b50600436106101bb5760003560e01c806367dfd4c9116100fa578063b50223431161009d578063b5022343146103f6578063b88d4fde1461041f578063c87b56dd14610432578063c91539bc14610445578063ca6d45ca1461044f578063cbe8071214610478578063da58153214610481578063db5a0e83146104a2578063e985e9c5146104b557600080fd5b806367dfd4c91461033d5780636df0c83a1461035057806370a08231146103705780637169d23b1461038357806395d89b4114610396578063a0ae459d1461039e578063a22cb465146103d0578063a3b9871a146103e357600080fd5b80632f745c59116101625780632f745c59146102a5578063351a41c5146102b857806336dbd2f9146102cb57806342842e0e146102de578063464eff50146102f15780634f6ccce714610304578063566a2cc2146103175780636352211e1461032a57600080fd5b806301ffc9a7146101c057806306fdde03146101e8578063081812fc146101fd578063095ea7b3146102285780630b82a21c1461023d57806318160ddd1461025e5780631ed113ae1461026657806323b872dd14610292575b600080fd5b6101d36101ce366004612611565b6104c8565b60405190151581526020015b60405180910390f35b6101f06104f3565b6040516101df919061267e565b61021061020b366004612691565b610585565b6040516001600160a01b0390911681526020016101df565b61023b6102363660046126ca565b6105ac565b005b61025061024b3660046126f6565b6106c6565b6040519081526020016101df565b600854610250565b610279610274366004612759565b6106eb565b6040516001600160e01b031990911681526020016101df565b61023b6102a036600461279a565b610719565b6102506102b33660046126ca565b61074a565b6102106102c6366004612691565b6107e0565b6101d36102d9366004612691565b610816565b61023b6102ec36600461279a565b610839565b6102506102ff3660046127e9565b610854565b610250610312366004612691565b610c82565b610250610325366004612848565b610d15565b610210610338366004612691565b610f1e565b61023b61034b366004612691565b610f53565b61025061035e3660046128b3565b600e6020526000908152604090205481565b61025061037e3660046128b3565b61101c565b6101f06103913660046126f6565b6110a2565b6101f061114f565b6103b16103ac3660046129a3565b61115e565b604080516001600160a01b0390931683526020830191909152016101df565b61023b6103de366004612a8e565b6112f8565b61023b6103f1366004612ac7565b611307565b610210610404366004612691565b600d602052600090815260409020546001600160a01b031681565b61023b61042d366004612b0c565b6113be565b6101f0610440366004612691565b6113f6565b610250620f424081565b61021061045d366004612691565b600f602052600090815260409020546001600160a01b031681565b610250600c5481565b61049461048f366004612759565b611858565b6040516101df929190612ba0565b6102506104b0366004612691565b611881565b6101d36104c3366004612bb4565b6118b4565b60006001600160e01b0319821663780e9d6360e01b14806104ed57506104ed826118e2565b92915050565b60606000805461050290612be2565b80601f016020809104026020016040519081016040528092919081815260200182805461052e90612be2565b801561057b5780601f106105505761010080835404028352916020019161057b565b820191906000526020600020905b81548152906001019060200180831161055e57829003601f168201915b5050505050905090565b600061059082611932565b506000908152600460205260409020546001600160a01b031690565b60006105b782610f1e565b9050806001600160a01b0316836001600160a01b0316036106295760405162461bcd60e51b815260206004820152602160248201527f4552433732313a20617070726f76616c20746f2063757272656e74206f776e656044820152603960f91b60648201526084015b60405180910390fd5b336001600160a01b0382161480610645575061064581336118b4565b6106b75760405162461bcd60e51b815260206004820152603e60248201527f4552433732313a20617070726f76652063616c6c6572206973206e6f7420746f60448201527f6b656e206f776e6572206e6f7220617070726f76656420666f7220616c6c00006064820152608401610620565b6106c18383611969565b505050565b601060205281600052604060002081600481106106e257600080fd5b01549150829050565b600060048210156106fb57600080fd5b610709600460008486612c1c565b61071291612c46565b9392505050565b61072333826119d7565b61073f5760405162461bcd60e51b815260040161062090612c76565b6106c1838383611a35565b60006107558361101c565b82106107b75760405162461bcd60e51b815260206004820152602b60248201527f455243373231456e756d657261626c653a206f776e657220696e646578206f7560448201526a74206f6620626f756e647360a81b6064820152608401610620565b506001600160a01b03919091166000908152600660209081526040808320938352929052205490565b6000818152600d60205260408120546001600160a01b0316806104ed5760405163ba3f1ed160e01b815260040160405180910390fd5b600881901c6000908152600a6020526040812054600160ff84161b1615156104ed565b6106c1838383604051806020016040528060008152506113be565b6001600160a01b0384166000908152600e602052604081205480820361088d5760405163ba3f1ed160e01b815260040160405180910390fd5b604051630464eff560e41b815286906001600160a01b0382169063464eff50906108c19033908a908a908a90600401612ccd565b600060405180830381600087803b1580156108db57600080fd5b505af19250505080156108ec575060015b610bda573d80801561091a576040519150601f19603f3d011682016040523d82523d6000602084013e61091f565b606091505b50604051630f6889d760e11b81526000903090631ed113ae9061094690859060040161267e565b602060405180830381865afa158015610963573d6000803e3d6000fd5b505050506040513d601f19601f820116820180604052508101906109879190612d0c565b9050630aa90e7d60e41b6001600160e01b0319821601610ab4576000806000806000306001600160a01b031663da581532886040518263ffffffff1660e01b81526004016109d5919061267e565b600060405180830381865afa1580156109f2573d6000803e3d6000fd5b505050506040513d6000823e601f3d908101601f19168201604052610a1a9190810190612d6e565b806020019051810190610a2d9190612da2565b94509450945094509450876001600160a01b0316856001600160a01b031614610a69576040516366e98a0360e11b815260040160405180910390fd5b30848463566a2cc260e01b8b8686604051602001610a8993929190612ed4565b60408051601f1981840301815290829052630556f18360e41b82526106209594939291600401612f11565b6304b2976360e51b6001600160e01b0319821601610b7d57604051636d2c0a9960e11b81526000908190309063da58153290610af490879060040161267e565b600060405180830381865afa158015610b11573d6000803e3d6000fd5b505050506040513d6000823e601f3d908101601f19168201604052610b399190810190612d6e565b806020019051810190610b4c9190612fd3565b60405163034d689d60e51b81526001600160401b038084166004830152821660248201529193509150604401610620565b60405162461bcd60e51b815260206004820152602c60248201527f4f7468657220657863657074696f6e207468726f776e2c206d7573742068616c60448201526b3a1032bc32b1baba34b7b71760a11b6064820152608401610620565b6000828152600b6020526040812080548290610bf59061301c565b91829055509050620f42408110610c325760405162a4ae4960e51b8152620f424060048201526001600160a01b0389166024820152604401610620565b600081610c4285620f4240613035565b610c4c9190613054565b6000818152601060205260409020909150610c69908960046124de565b50610c743382611bca565b93505050505b949350505050565b6000610c8d60085490565b8210610cf05760405162461bcd60e51b815260206004820152602c60248201527f455243373231456e756d657261626c653a20676c6f62616c20696e646578206f60448201526b7574206f6620626f756e647360a01b6064820152608401610620565b60088281548110610d0357610d03613067565b90600052602060002001549050919050565b6000808080610d268587018761307d565b919450925090506001600160e01b03198216632b35166160e11b14610d4d57610d4d6130de565b60008082806020019051810190610d6491906130f4565b50919350915050336001600160a01b03831614610da5576040516350a5f40560e01b81523360048201526001600160a01b0383166024820152604401610620565b6001600160a01b038516610dbb57610dbb6130de565b6001600160a01b0385166000908152600e602052604081205490819003610df55760405163ba3f1ed160e01b815260040160405180910390fd5b6000866001600160a01b03163b11610e0f57610e0f6130de565b604051632b35166160e11b81526001600160a01b0387169063566a2cc290610e3f908e908e908990600401613180565b600060405180830381600087803b158015610e5957600080fd5b505af1158015610e6d573d6000803e3d6000fd5b5050506000828152600b602052604081208054919250908290610e8f9061301c565b91829055509050620f42408110610ecc5760405162a4ae4960e51b8152620f424060048201526001600160a01b0388166024820152604401610620565b600081610edc84620f4240613035565b610ee69190613054565b6000818152601060205260409020909150610f039085600461251c565b50610f0e8582611bca565b9c9b505050505050505050505050565b6000818152600260205260408120546001600160a01b0316806104ed5760405162461bcd60e51b8152600401610620906131b0565b33610f5d82610f1e565b6001600160a01b031614610f8457604051639d6cfcf960e01b815260040160405180910390fd5b6000610f926102c683611881565b604051635f6fbbd360e11b815233600482015290915081906001600160a01b0382169063bedf77a690602401600060405180830381600087803b158015610fd857600080fd5b505af1158015610fec573d6000803e3d6000fd5b5050506000848152601060205260408120818155600181018290556002810182905560030155506106c183611be4565b60006001600160a01b0382166110865760405162461bcd60e51b815260206004820152602960248201527f4552433732313a2061646472657373207a65726f206973206e6f7420612076616044820152683634b21037bbb732b960b91b6064820152608401610620565b506001600160a01b031660009081526003602052604090205490565b601160205281600052604060002081600481106110be57600080fd5b0180549092506110ce9150612be2565b80601f01602080910402602001604051908101604052809291908181526020018280546110fa90612be2565b80156111475780601f1061111c57610100808354040283529160200191611147565b820191906000526020600020905b81548152906001019060200180831161112a57829003601f168201915b505050505081565b60606001805461050290612be2565b6000806001600160a01b038316611188576040516309ccb6ed60e41b815260040160405180910390fd5b60006111b37f0000000000000000000000000000000000000000000000000000000000000000611c79565b60405163708c456160e01b81529091506001600160a01b0382169063708c4561906111e49030908a90600401613227565b600060405180830381600087803b1580156111fe57600080fd5b505af1158015611212573d6000803e3d6000fd5b50505050600c600081546112259061301c565b91829055506001600160a01b0382166000818152600e6020908152604080832094909455600c80548352600d825284832080546001600160a01b0319169094179093559154815260119091522061127e9086600461254a565b50600c80546000908152600f602090815260409182902080546001600160a01b0319166001600160a01b038981169190911790915592549151918252918316917f19d6f90297684f8b888bfdd40dece239ff62def4dd8aedd00245b6c846853b97910160405180910390a2600c5490969095509350505050565b611303338383611d16565b5050565b60006113156102c684611881565b905060008190506000816001600160a01b031663cf0840566040518163ffffffff1660e01b8152600401602060405180830381865afa15801561135c573d6000803e3d6000fd5b505050506040513d601f19601f820116820180604052508101906113809190613314565b9050336001600160a01b038216146113ab57604051631ca2636960e11b815260040160405180910390fd5b6113b7600a8686611de0565b5050505050565b6113c833836119d7565b6113e45760405162461bcd60e51b815260040161062090612c76565b6113f084848484611e2f565b50505050565b6060600061140383611881565b90506000611410826107e0565b905060008190506000816001600160a01b031663c66301b26040518163ffffffff1660e01b8152600401602060405180830381865afa158015611457573d6000803e3d6000fd5b505050506040513d601f19601f8201168201806040525081019061147b9190613331565b6000858152600f60205260408082205481516080810192839052631e1b257360e01b909252608482018390529293506001600160a01b039283169281908616631e1b257360a48301602060405180830381865afa1580156114e0573d6000803e3d6000fd5b505050506040513d601f19601f820116820180604052508101906115049190613331565b8152604051631e1b257360e01b8152600160048201526020909101906001600160a01b03871690631e1b257390602401602060405180830381865afa158015611551573d6000803e3d6000fd5b505050506040513d601f19601f820116820180604052508101906115759190613331565b8152604051631e1b257360e01b8152600260048201526020909101906001600160a01b03871690631e1b257390602401602060405180830381865afa1580156115c2573d6000803e3d6000fd5b505050506040513d601f19601f820116820180604052508101906115e69190613331565b8152604051631e1b257360e01b8152600360048201526020909101906001600160a01b03871690631e1b257390602401602060405180830381865afa158015611633573d6000803e3d6000fd5b505050506040513d601f19601f820116820180604052508101906116579190613331565b81525090506000604051806101000160405280888152602001620f424061167d8c611881565b6116879190613035565b611691908c61334a565b815260200161169f8b610f1e565b6001600160a01b031681526020016116b68b610816565b15158152602080820185905260008c8152601090915260409081902081516080810180845292909301929160049082845b8154815260200190600101908083116116e75750505091835250506000898152601160209081526040808320815160808101909252919093019291600490835b828210156117ca57838201805461173d90612be2565b80601f016020809104026020016040519081016040528092919081815260200182805461176990612be2565b80156117b65780601f1061178b576101008083540402835291602001916117b6565b820191906000526020600020905b81548152906001019060200180831161179957829003601f168201915b505050505081526020019060010190611727565b505050908252506020018590526040516326e4c03d60e21b81529091506001600160a01b03841690639b9300f4906118069084906004016133c5565b600060405180830381865afa158015611823573d6000803e3d6000fd5b505050506040513d6000823e601f3d908101601f1916820160405261184b9190810190612d6e565b9998505050505050505050565b3660006004831161186857600080fd5b6118758360048187612c1c565b915091505b9250929050565b6000816000036118a75760405163ed15e6cf60e01b815260048101839052602401610620565b6104ed620f42408361345a565b6001600160a01b03918216600090815260056020908152604080832093909416825291909152205460ff1690565b60006001600160e01b031982166380ac58cd60e01b148061191357506001600160e01b03198216635b5e139f60e01b145b806104ed57506301ffc9a760e01b6001600160e01b03198316146104ed565b6000818152600260205260409020546001600160a01b03166119665760405162461bcd60e51b8152600401610620906131b0565b50565b600081815260046020526040902080546001600160a01b0319166001600160a01b038416908117909155819061199e82610f1e565b6001600160a01b03167f8c5be1e5ebec7d5bd14f71427d1e84f3dd0314c0f7b2291e5b200ac8c7c3b92560405160405180910390a45050565b6000806119e383610f1e565b9050806001600160a01b0316846001600160a01b03161480611a0a5750611a0a81856118b4565b80610c7a5750836001600160a01b0316611a2384610585565b6001600160a01b031614949350505050565b826001600160a01b0316611a4882610f1e565b6001600160a01b031614611aac5760405162461bcd60e51b815260206004820152602560248201527f4552433732313a207472616e736665722066726f6d20696e636f72726563742060448201526437bbb732b960d91b6064820152608401610620565b6001600160a01b038216611b0e5760405162461bcd60e51b8152602060048201526024808201527f4552433732313a207472616e7366657220746f20746865207a65726f206164646044820152637265737360e01b6064820152608401610620565b611b19838383611e62565b611b24600082611969565b6001600160a01b0383166000908152600360205260408120805460019290611b4d90849061334a565b90915550506001600160a01b0382166000908152600360205260408120805460019290611b7b908490613054565b909155505060008181526002602052604080822080546001600160a01b0319166001600160a01b03868116918217909255915184939187169160008051602061368f83398151915291a4505050565b611303828260405180602001604052806000815250612029565b6000611bef82610f1e565b9050611bfd81600084611e62565b611c08600083611969565b6001600160a01b0381166000908152600360205260408120805460019290611c3190849061334a565b909155505060008281526002602052604080822080546001600160a01b0319169055518391906001600160a01b0384169060008051602061368f833981519152908390a45050565b6000604051733d602d80600a3d3981f3363d3d373d3d3d363d7360601b81528260601b60148201526e5af43d82803e903d91602b57fd5bf360881b60288201526037816000f09150506001600160a01b038116611d115760405162461bcd60e51b8152602060048201526016602482015275115490cc4c4d8dce8818dc99585d194819985a5b195960521b6044820152606401610620565b919050565b816001600160a01b0316836001600160a01b031603611d735760405162461bcd60e51b815260206004820152601960248201527822a9219b99189d1030b8383937bb32903a379031b0b63632b960391b6044820152606401610620565b6001600160a01b03838116600081815260056020908152604080832094871680845294825291829020805460ff191686151590811790915591519182527f17307eab39ab6107e8899845ad3d59bd9653f200f220920489ca2b5937696c31910160405180910390a3505050565b8015611e0a57600882901c60009081526020849052604090208054600160ff85161b179055505050565b600882901c60009081526020849052604090208054600160ff85161b19169055505050565b611e3a848484611a35565b611e468484848461205c565b6113f05760405162461bcd60e51b81526004016106209061347c565b611e6d83838361215a565b60006001600160a01b0384161580611e8c57506001600160a01b038316155b90508015611e9a5750505050565b6000611ea86102c684611881565b9050806001816001600160a01b0316637855d30c6040518163ffffffff1660e01b8152600401602060405180830381865afa158015611eeb573d6000803e3d6000fd5b505050506040513d601f19601f82011682018060405250810190611f0f91906134e4565b6003811115611f2057611f206134ce565b1480611f9e57506000816001600160a01b0316637855d30c6040518163ffffffff1660e01b8152600401602060405180830381865afa158015611f67573d6000803e3d6000fd5b505050506040513d601f19601f82011682018060405250810190611f8b91906134e4565b6003811115611f9c57611f9c6134ce565b145b156120215780816001600160a01b0316637855d30c6040518163ffffffff1660e01b8152600401602060405180830381865afa158015611fe2573d6000803e3d6000fd5b505050506040513d601f19601f8201168201806040525081019061200691906134e4565b604051630e0bf90360e41b8152600401610620929190613505565b505050505050565b6120338383612212565b612040600084848461205c565b6106c15760405162461bcd60e51b81526004016106209061347c565b60006001600160a01b0384163b1561215257604051630a85bd0160e11b81526001600160a01b0385169063150b7a02906120a0903390899088908890600401613540565b6020604051808303816000875af19250505080156120db575060408051601f3d908101601f191682019092526120d891810190612d0c565b60015b612138573d808015612109576040519150601f19603f3d011682016040523d82523d6000602084013e61210e565b606091505b5080516000036121305760405162461bcd60e51b81526004016106209061347c565b805181602001fd5b6001600160e01b031916630a85bd0160e11b149050610c7a565b506001610c7a565b6001600160a01b0383166121b5576121b081600880546000838152600960205260408120829055600182018355919091527ff3f7a9fe364faab93b216da50a3214154f22a0a2b415b23a84c8169e8b636ee30155565b6121d8565b816001600160a01b0316836001600160a01b0316146121d8576121d8838261234e565b6001600160a01b0382166121ef576106c1816123eb565b826001600160a01b0316826001600160a01b0316146106c1576106c1828261249a565b6001600160a01b0382166122685760405162461bcd60e51b815260206004820181905260248201527f4552433732313a206d696e7420746f20746865207a65726f20616464726573736044820152606401610620565b6000818152600260205260409020546001600160a01b0316156122cd5760405162461bcd60e51b815260206004820152601c60248201527f4552433732313a20746f6b656e20616c7265616479206d696e746564000000006044820152606401610620565b6122d960008383611e62565b6001600160a01b0382166000908152600360205260408120805460019290612302908490613054565b909155505060008181526002602052604080822080546001600160a01b0319166001600160a01b038616908117909155905183929060008051602061368f833981519152908290a45050565b6000600161235b8461101c565b612365919061334a565b6000838152600760205260409020549091508082146123b8576001600160a01b03841660009081526006602090815260408083208584528252808320548484528184208190558352600790915290208190555b5060009182526007602090815260408084208490556001600160a01b039094168352600681528383209183525290812055565b6008546000906123fd9060019061334a565b6000838152600960205260408120546008805493945090928490811061242557612425613067565b90600052602060002001549050806008838154811061244657612446613067565b600091825260208083209091019290925582815260099091526040808220849055858252812055600880548061247e5761247e613573565b6001900381819060005260206000200160009055905550505050565b60006124a58361101c565b6001600160a01b039093166000908152600660209081526040808320868452825280832085905593825260079052919091209190915550565b826004810192821561250c579160200282015b8281111561250c5782358255916020019190600101906124f1565b5061251892915061258f565b5090565b826004810192821561250c579160200282015b8281111561250c57825182559160200191906001019061252f565b8260048101928215612583579160200282015b82811115612583578251829061257390826135cf565b509160200191906001019061255d565b506125189291506125a4565b5b808211156125185760008155600101612590565b808211156125185760006125b882826125c1565b506001016125a4565b5080546125cd90612be2565b6000825580601f106125dd575050565b601f016020900490600052602060002090810190611966919061258f565b6001600160e01b03198116811461196657600080fd5b60006020828403121561262357600080fd5b8135610712816125fb565b60005b83811015612649578181015183820152602001612631565b50506000910152565b6000815180845261266a81602086016020860161262e565b601f01601f19169290920160200192915050565b6020815260006107126020830184612652565b6000602082840312156126a357600080fd5b5035919050565b6001600160a01b038116811461196657600080fd5b8035611d11816126aa565b600080604083850312156126dd57600080fd5b82356126e8816126aa565b946020939093013593505050565b6000806040838503121561270957600080fd5b50508035926020909101359150565b60008083601f84011261272a57600080fd5b5081356001600160401b0381111561274157600080fd5b60208301915083602082850101111561187a57600080fd5b6000806020838503121561276c57600080fd5b82356001600160401b0381111561278257600080fd5b61278e85828601612718565b90969095509350505050565b6000806000606084860312156127af57600080fd5b83356127ba816126aa565b925060208401356127ca816126aa565b929592945050506040919091013590565b801515811461196657600080fd5b60008060008060e085870312156127ff57600080fd5b843561280a816126aa565b935060a085018681111561281d57600080fd5b6020860193503561282d816127db565b915060c085013561283d816126aa565b939692955090935050565b6000806000806040858703121561285e57600080fd5b84356001600160401b038082111561287557600080fd5b61288188838901612718565b9096509450602087013591508082111561289a57600080fd5b506128a787828801612718565b95989497509550505050565b6000602082840312156128c557600080fd5b8135610712816126aa565b634e487b7160e01b600052604160045260246000fd5b604051608081016001600160401b0381118282101715612908576129086128d0565b60405290565b604051601f8201601f191681016001600160401b0381118282101715612936576129366128d0565b604052919050565b60006001600160401b03821115612957576129576128d0565b50601f01601f191660200190565b60006129786129738461293e565b61290e565b905082815283838301111561298c57600080fd5b828260208301376000602084830101529392505050565b6000806000606084860312156129b857600080fd5b83356001600160401b03808211156129cf57600080fd5b908501906101c082880312156129e457600080fd5b90935060209085820135818111156129fb57600080fd5b8601601f8082018913612a0d57600080fd5b612a156128e6565b80608084018b811115612a2757600080fd5b845b81811015612a6e57803587811115612a415760008081fd5b86018581018e13612a525760008081fd5b612a608e82358b8401612965565b855250928701928701612a29565b5050809750505050505050612a85604085016126bf565b90509250925092565b60008060408385031215612aa157600080fd5b8235612aac816126aa565b91506020830135612abc816127db565b809150509250929050565b60008060408385031215612ada57600080fd5b823591506020830135612abc816127db565b600082601f830112612afd57600080fd5b61071283833560208501612965565b60008060008060808587031215612b2257600080fd5b8435612b2d816126aa565b93506020850135612b3d816126aa565b92506040850135915060608501356001600160401b03811115612b5f57600080fd5b612b6b87828801612aec565b91505092959194509250565b81835281816020850137506000828201602090810191909152601f909101601f19169091010190565b602081526000610c7a602083018486612b77565b60008060408385031215612bc757600080fd5b8235612bd2816126aa565b91506020830135612abc816126aa565b600181811c90821680612bf657607f821691505b602082108103612c1657634e487b7160e01b600052602260045260246000fd5b50919050565b60008085851115612c2c57600080fd5b83861115612c3957600080fd5b5050820193919092039150565b6001600160e01b03198135818116916004851015612c6e5780818660040360031b1b83161692505b505092915050565b6020808252602e908201527f4552433732313a2063616c6c6572206973206e6f7420746f6b656e206f776e6560408201526d1c881b9bdc88185c1c1c9bdd995960921b606082015260800190565b60808183375050565b6001600160a01b03858116825260e0820190608086602085013784151560a084015280841660c08401525095945050505050565b8051611d11816125fb565b600060208284031215612d1e57600080fd5b8151610712816125fb565b600082601f830112612d3a57600080fd5b8151612d486129738261293e565b818152846020838601011115612d5d57600080fd5b610c7a82602083016020870161262e565b600060208284031215612d8057600080fd5b81516001600160401b03811115612d9657600080fd5b610c7a84828501612d29565b600080600080600060a08688031215612dba57600080fd5b8551612dc5816126aa565b809550506020808701516001600160401b0380821115612de457600080fd5b818901915089601f830112612df857600080fd5b815181811115612e0a57612e0a6128d0565b8060051b612e1985820161290e565b918252838101850191858101908d841115612e3357600080fd5b86860192505b83831015612e6f57825185811115612e515760008081fd5b612e5f8f89838a0101612d29565b8352509186019190860190612e39565b60408d0151909a50955050505080831115612e8957600080fd5b612e958a848b01612d29565b9550612ea360608a01612d01565b94506080890151925080831115612eb957600080fd5b5050612ec788828901612d29565b9150509295509295909350565b6001600160a01b03841681526001600160e01b031983166020820152606060408201819052600090612f0890830184612652565b95945050505050565b600060a0820160018060a01b0388168352602060a08185015281885180845260c08601915060c08160051b8701019350828a0160005b82811015612f755760bf19888703018452612f63868351612652565b95509284019290840190600101612f47565b50505050508281036040840152612f8c8187612652565b6001600160e01b03198616606085015290508281036080840152612fb08185612652565b98975050505050505050565b80516001600160401b0381168114611d1157600080fd5b60008060408385031215612fe657600080fd5b612fef83612fbc565b9150612ffd60208401612fbc565b90509250929050565b634e487b7160e01b600052601160045260246000fd5b60006001820161302e5761302e613006565b5060010190565b600081600019048311821515161561304f5761304f613006565b500290565b808201808211156104ed576104ed613006565b634e487b7160e01b600052603260045260246000fd5b60008060006060848603121561309257600080fd5b833561309d816126aa565b925060208401356130ad816125fb565b915060408401356001600160401b038111156130c857600080fd5b6130d486828701612aec565b9150509250925092565b634e487b7160e01b600052600160045260246000fd5b60008060008060e0858703121561310a57600080fd5b8451613115816126aa565b93506020603f8601871361312857600080fd5b6131306128e6565b8060a088018981111561314257600080fd5b8389015b8181101561315d5780518452928401928401613146565b5051909550915061316f9050816127db565b60c086015190925061283d816126aa565b604081526000613194604083018587612b77565b82810360208401526131a68185612652565b9695505050505050565b602080825260189082015277115490cdcc8c4e881a5b9d985b1a59081d1bdad95b88125160421b604082015260600190565b6000808335601e198436030181126131f957600080fd5b83016020810192503590506001600160401b0381111561321857600080fd5b80360382131561187a57600080fd5b6001600160a01b038316815260406020820181905261325890820161324b846126bf565b6001600160a01b03169052565b6000613266602084016126bf565b6001600160a01b03811660608401525060408301356080830152606083013560a0830152608083013560c083015260a083013560e08301526132af610100830160c08501612cc4565b610180610140840135818401526101a0610160850135818501526132d48286016126bf565b91506101c06132ed818601846001600160a01b03169052565b6132f9828701876131e2565b93509150806101e0860152506131a661020085018383612b77565b60006020828403121561332657600080fd5b8151610712816126aa565b60006020828403121561334357600080fd5b5051919050565b818103818111156104ed576104ed613006565b8060005b60048110156113f0578151845260209384019390910190600101613361565b600082608081018360005b60048110156133ba5783830387526133a4838351612652565b602097880197909350919091019060010161338b565b509095945050505050565b60208152815160208201526020820151604082015260018060a01b03604083015116606082015260006060830151613401608084018215159052565b50608083015161341460a084018261335d565b5060a083015161342861012084018261335d565b5060c08301516101c0806101a08501526134466101e0850183613380565b60e095909501519301929092525090919050565b60008261347757634e487b7160e01b600052601260045260246000fd5b500490565b60208082526032908201527f4552433732313a207472616e7366657220746f206e6f6e20455243373231526560408201527131b2b4bb32b91034b6b83632b6b2b73a32b960711b606082015260800190565b634e487b7160e01b600052602160045260246000fd5b6000602082840312156134f657600080fd5b81516004811061071257600080fd5b6001600160a01b0383168152604081016004831061353357634e487b7160e01b600052602160045260246000fd5b8260208301529392505050565b6001600160a01b03858116825284166020820152604081018390526080606082018190526000906131a690830184612652565b634e487b7160e01b600052603160045260246000fd5b601f8211156106c157600081815260208120601f850160051c810160208610156135b05750805b601f850160051c820191505b81811015612021578281556001016135bc565b81516001600160401b038111156135e8576135e86128d0565b6135fc816135f68454612be2565b84613589565b602080601f83116001811461363157600084156136195750858301515b600019600386901b1c1916600185901b178555612021565b600085815260208120601f198616915b8281101561366057888601518255948401946001909101908401613641565b508582101561367e5787850151600019600388901b60f8161c191681555b5050505050600190811b0190555056feddf252ad1be2c89b69c2b068fc378daa952ba7f163c4a11628f55a4df523b3efa264697066735822122024451a2b344cf97084a608c738f96f23617f4bbd8ef2ef3cf218afda894b75cc64736f6c63430008100033",
  "devdoc": {
    "details": "Essentially, a Crowdtainer factory with ERC721 compliance.Each token id represents a \"sold voucher\", a set of one or more products or services of a specific Crowdtainer.",
    "kind": "dev",
    "methods": {
      "approve(address,uint256)": {
        "details": "See {IERC721-approve}."
      },
      "balanceOf(address)": {
        "details": "See {IERC721-balanceOf}."
      },
      "createCrowdtainer((address,address,uint256,uint256,uint256,uint256,uint256[4],uint256,uint256,address,string),string[4],address)": {
        "details": "Create and deploy a new Crowdtainer.",
        "params": {
          "_campaignData": "Data defining all rules and values of this Crowdtainer instance.",
          "_metadataService": "Contract address used to fetch metadata about the token.",
          "_productDescription": "An array with the description of each item."
        },
        "returns": {
          "_0": "crowdtainerId The contract address and id for the created Crowdtainer."
        }
      },
      "getApproved(uint256)": {
        "details": "See {IERC721-getApproved}."
      },
      "isApprovedForAll(address,address)": {
        "details": "See {IERC721-isApprovedForAll}."
      },
      "name()": {
        "details": "See {IERC721Metadata-name}."
      },
      "ownerOf(uint256)": {
        "details": "See {IERC721-ownerOf}."
      },
      "safeTransferFrom(address,address,uint256)": {
        "details": "See {IERC721-safeTransferFrom}."
      },
      "safeTransferFrom(address,address,uint256,bytes)": {
        "details": "See {IERC721-safeTransferFrom}."
      },
      "setApprovalForAll(address,bool)": {
        "details": "See {IERC721-setApprovalForAll}."
      },
      "supportsInterface(bytes4)": {
        "details": "See {IERC165-supportsInterface}."
      },
      "symbol()": {
        "details": "See {IERC721Metadata-symbol}."
      },
      "tokenByIndex(uint256)": {
        "details": "See {IERC721Enumerable-tokenByIndex}."
      },
      "tokenOfOwnerByIndex(address,uint256)": {
        "details": "See {IERC721Enumerable-tokenOfOwnerByIndex}."
      },
      "tokenURI(uint256)": {
        "params": {
          "_tokenId": "The encoded voucher token id."
        },
        "returns": {
          "_0": "Token URI String."
        }
      },
      "totalSupply()": {
        "details": "See {IERC721Enumerable-totalSupply}."
      },
      "transferFrom(address,address,uint256)": {
        "details": "See {IERC721-transferFrom}."
      }
    },
    "title": "Manages multiple Crowdtainer projects and ownership of its product/services by participants.",
    "version": 1
  },
  "userdoc": {
    "kind": "user",
    "methods": {
      "tokenURI(uint256)": {
        "notice": "Get the metadata representation."
      }
    },
    "version": 1
  },
  "storageLayout": {
    "storage": [
      {
        "astId": 694,
        "contract": "src/contracts/Vouchers721.sol:Vouchers721",
        "label": "_name",
        "offset": 0,
        "slot": "0",
        "type": "t_string_storage"
      },
      {
        "astId": 696,
        "contract": "src/contracts/Vouchers721.sol:Vouchers721",
        "label": "_symbol",
        "offset": 0,
        "slot": "1",
        "type": "t_string_storage"
      },
      {
        "astId": 700,
        "contract": "src/contracts/Vouchers721.sol:Vouchers721",
        "label": "_owners",
        "offset": 0,
        "slot": "2",
        "type": "t_mapping(t_uint256,t_address)"
      },
      {
        "astId": 704,
        "contract": "src/contracts/Vouchers721.sol:Vouchers721",
        "label": "_balances",
        "offset": 0,
        "slot": "3",
        "type": "t_mapping(t_address,t_uint256)"
      },
      {
        "astId": 708,
        "contract": "src/contracts/Vouchers721.sol:Vouchers721",
        "label": "_tokenApprovals",
        "offset": 0,
        "slot": "4",
        "type": "t_mapping(t_uint256,t_address)"
      },
      {
        "astId": 714,
        "contract": "src/contracts/Vouchers721.sol:Vouchers721",
        "label": "_operatorApprovals",
        "offset": 0,
        "slot": "5",
        "type": "t_mapping(t_address,t_mapping(t_address,t_bool))"
      },
      {
        "astId": 1684,
        "contract": "src/contracts/Vouchers721.sol:Vouchers721",
        "label": "_ownedTokens",
        "offset": 0,
        "slot": "6",
        "type": "t_mapping(t_address,t_mapping(t_uint256,t_uint256))"
      },
      {
        "astId": 1688,
        "contract": "src/contracts/Vouchers721.sol:Vouchers721",
        "label": "_ownedTokensIndex",
        "offset": 0,
        "slot": "7",
        "type": "t_mapping(t_uint256,t_uint256)"
      },
      {
        "astId": 1691,
        "contract": "src/contracts/Vouchers721.sol:Vouchers721",
        "label": "_allTokens",
        "offset": 0,
        "slot": "8",
        "type": "t_array(t_uint256)dyn_storage"
      },
      {
        "astId": 1695,
        "contract": "src/contracts/Vouchers721.sol:Vouchers721",
        "label": "_allTokensIndex",
        "offset": 0,
        "slot": "9",
        "type": "t_mapping(t_uint256,t_uint256)"
      },
      {
        "astId": 5989,
        "contract": "src/contracts/Vouchers721.sol:Vouchers721",
        "label": "claimed",
        "offset": 0,
        "slot": "10",
        "type": "t_struct(BitMap)2699_storage"
      },
      {
        "astId": 5993,
        "contract": "src/contracts/Vouchers721.sol:Vouchers721",
        "label": "nextTokenIdForCrowdtainer",
        "offset": 0,
        "slot": "11",
        "type": "t_mapping(t_uint256,t_uint256)"
      },
      {
        "astId": 5995,
        "contract": "src/contracts/Vouchers721.sol:Vouchers721",
        "label": "crowdtainerCount",
        "offset": 0,
        "slot": "12",
        "type": "t_uint256"
      },
      {
        "astId": 6001,
        "contract": "src/contracts/Vouchers721.sol:Vouchers721",
        "label": "crowdtainerForId",
        "offset": 0,
        "slot": "13",
        "type": "t_mapping(t_uint256,t_address)"
      },
      {
        "astId": 6005,
        "contract": "src/contracts/Vouchers721.sol:Vouchers721",
        "label": "idForCrowdtainer",
        "offset": 0,
        "slot": "14",
        "type": "t_mapping(t_address,t_uint256)"
      },
      {
        "astId": 6009,
        "contract": "src/contracts/Vouchers721.sol:Vouchers721",
        "label": "metadataServiceForCrowdatinerId",
        "offset": 0,
        "slot": "15",
        "type": "t_mapping(t_uint256,t_address)"
      },
      {
        "astId": 6015,
        "contract": "src/contracts/Vouchers721.sol:Vouchers721",
        "label": "tokenIdQuantities",
        "offset": 0,
        "slot": "16",
        "type": "t_mapping(t_uint256,t_array(t_uint256)4_storage)"
      },
      {
        "astId": 6021,
        "contract": "src/contracts/Vouchers721.sol:Vouchers721",
        "label": "productDescription",
        "offset": 0,
        "slot": "17",
        "type": "t_mapping(t_uint256,t_array(t_string_storage)4_storage)"
      }
    ],
    "types": {
      "t_address": {
        "encoding": "inplace",
        "label": "address",
        "numberOfBytes": "20"
      },
      "t_array(t_string_storage)4_storage": {
        "base": "t_string_storage",
        "encoding": "inplace",
        "label": "string[4]",
        "numberOfBytes": "128"
      },
      "t_array(t_uint256)4_storage": {
        "base": "t_uint256",
        "encoding": "inplace",
        "label": "uint256[4]",
        "numberOfBytes": "128"
      },
      "t_array(t_uint256)dyn_storage": {
        "base": "t_uint256",
        "encoding": "dynamic_array",
        "label": "uint256[]",
        "numberOfBytes": "32"
      },
      "t_bool": {
        "encoding": "inplace",
        "label": "bool",
        "numberOfBytes": "1"
      },
      "t_mapping(t_address,t_bool)": {
        "encoding": "mapping",
        "key": "t_address",
        "label": "mapping(address => bool)",
        "numberOfBytes": "32",
        "value": "t_bool"
      },
      "t_mapping(t_address,t_mapping(t_address,t_bool))": {
        "encoding": "mapping",
        "key": "t_address",
        "label": "mapping(address => mapping(address => bool))",
        "numberOfBytes": "32",
        "value": "t_mapping(t_address,t_bool)"
      },
      "t_mapping(t_address,t_mapping(t_uint256,t_uint256))": {
        "encoding": "mapping",
        "key": "t_address",
        "label": "mapping(address => mapping(uint256 => uint256))",
        "numberOfBytes": "32",
        "value": "t_mapping(t_uint256,t_uint256)"
      },
      "t_mapping(t_address,t_uint256)": {
        "encoding": "mapping",
        "key": "t_address",
        "label": "mapping(address => uint256)",
        "numberOfBytes": "32",
        "value": "t_uint256"
      },
      "t_mapping(t_uint256,t_address)": {
        "encoding": "mapping",
        "key": "t_uint256",
        "label": "mapping(uint256 => address)",
        "numberOfBytes": "32",
        "value": "t_address"
      },
      "t_mapping(t_uint256,t_array(t_string_storage)4_storage)": {
        "encoding": "mapping",
        "key": "t_uint256",
        "label": "mapping(uint256 => string[4])",
        "numberOfBytes": "32",
        "value": "t_array(t_string_storage)4_storage"
      },
      "t_mapping(t_uint256,t_array(t_uint256)4_storage)": {
        "encoding": "mapping",
        "key": "t_uint256",
        "label": "mapping(uint256 => uint256[4])",
        "numberOfBytes": "32",
        "value": "t_array(t_uint256)4_storage"
      },
      "t_mapping(t_uint256,t_uint256)": {
        "encoding": "mapping",
        "key": "t_uint256",
        "label": "mapping(uint256 => uint256)",
        "numberOfBytes": "32",
        "value": "t_uint256"
      },
      "t_string_storage": {
        "encoding": "bytes",
        "label": "string",
        "numberOfBytes": "32"
      },
      "t_struct(BitMap)2699_storage": {
        "encoding": "inplace",
        "label": "struct BitMaps.BitMap",
        "members": [
          {
            "astId": 2698,
            "contract": "src/contracts/Vouchers721.sol:Vouchers721",
            "label": "_data",
            "offset": 0,
            "slot": "0",
            "type": "t_mapping(t_uint256,t_uint256)"
          }
        ],
        "numberOfBytes": "32"
      },
      "t_uint256": {
        "encoding": "inplace",
        "label": "uint256",
        "numberOfBytes": "32"
      }
    }
  }
}