{
  "address": "0xB102bb1EeD535d535bE85A8ad8c18BFc7206697c",
  "abi": [
    {
      "inputs": [
        {
          "internalType": "address",
          "name": "_crowdtainerImplementation",
          "type": "address"
        }
      ],
      "stateMutability": "nonpayable",
      "type": "constructor"
    },
    {
      "inputs": [],
      "name": "AccountNotOwner",
      "type": "error"
    },
    {
      "inputs": [],
      "name": "CCIP_Read_InvalidOperation",
      "type": "error"
    },
    {
      "inputs": [
        {
          "internalType": "address",
          "name": "expected",
          "type": "address"
        },
        {
          "internalType": "address",
          "name": "actual",
          "type": "address"
        }
      ],
      "name": "CallerNotAllowed",
      "type": "error"
    },
    {
      "inputs": [],
      "name": "CrowdtainerInexistent",
      "type": "error"
    },
    {
      "inputs": [
        {
          "internalType": "uint256",
          "name": "tokenId",
          "type": "uint256"
        }
      ],
      "name": "InvalidTokenId",
      "type": "error"
    },
    {
      "inputs": [
        {
          "internalType": "uint256",
          "name": "maximum",
          "type": "uint256"
        },
        {
          "internalType": "address",
          "name": "crowdtainer",
          "type": "address"
        }
      ],
      "name": "MaximumNumberOfParticipantsReached",
      "type": "error"
    },
    {
      "inputs": [],
      "name": "MetadataServiceAddressIsZero",
      "type": "error"
    },
    {
      "inputs": [
        {
          "internalType": "address",
          "name": "sender",
          "type": "address"
        },
        {
          "internalType": "string[]",
          "name": "urls",
          "type": "string[]"
        },
        {
          "internalType": "bytes",
          "name": "callData",
          "type": "bytes"
        },
        {
          "internalType": "bytes4",
          "name": "callbackFunction",
          "type": "bytes4"
        },
        {
          "internalType": "bytes",
          "name": "extraData",
          "type": "bytes"
        }
      ],
      "name": "OffchainLookup",
      "type": "error"
    },
    {
      "inputs": [],
      "name": "SetClaimedOnlyAllowedByShippingAgent",
      "type": "error"
    },
    {
      "inputs": [
        {
          "internalType": "uint64",
          "name": "current",
          "type": "uint64"
        },
        {
          "internalType": "uint64",
          "name": "expires",
          "type": "uint64"
        }
      ],
      "name": "SignatureExpired",
      "type": "error"
    },
    {
      "inputs": [
        {
          "internalType": "address",
          "name": "crowdtainer",
          "type": "address"
        },
        {
          "internalType": "enum CrowdtainerState",
          "name": "state",
          "type": "uint8"
        }
      ],
      "name": "TransferNotAllowed",
      "type": "error"
    },
    {
      "anonymous": false,
      "inputs": [
        {
          "indexed": true,
          "internalType": "address",
          "name": "owner",
          "type": "address"
        },
        {
          "indexed": true,
          "internalType": "address",
          "name": "approved",
          "type": "address"
        },
        {
          "indexed": true,
          "internalType": "uint256",
          "name": "tokenId",
          "type": "uint256"
        }
      ],
      "name": "Approval",
      "type": "event"
    },
    {
      "anonymous": false,
      "inputs": [
        {
          "indexed": true,
          "internalType": "address",
          "name": "owner",
          "type": "address"
        },
        {
          "indexed": true,
          "internalType": "address",
          "name": "operator",
          "type": "address"
        },
        {
          "indexed": false,
          "internalType": "bool",
          "name": "approved",
          "type": "bool"
        }
      ],
      "name": "ApprovalForAll",
      "type": "event"
    },
    {
      "anonymous": false,
      "inputs": [
        {
          "indexed": true,
          "internalType": "address",
          "name": "_crowdtainerAddress",
          "type": "address"
        },
        {
          "indexed": false,
          "internalType": "uint256",
          "name": "_nextCrowdtainerId",
          "type": "uint256"
        }
      ],
      "name": "CrowdtainerDeployed",
      "type": "event"
    },
    {
      "anonymous": false,
      "inputs": [
        {
          "indexed": true,
          "internalType": "address",
          "name": "from",
          "type": "address"
        },
        {
          "indexed": true,
          "internalType": "address",
          "name": "to",
          "type": "address"
        },
        {
          "indexed": true,
          "internalType": "uint256",
          "name": "tokenId",
          "type": "uint256"
        }
      ],
      "name": "Transfer",
      "type": "event"
    },
    {
      "anonymous": false,
      "inputs": [
        {
          "indexed": true,
          "internalType": "address",
          "name": "crowdtainer",
          "type": "address"
        }
      ],
      "name": "Vouchers721Created",
      "type": "event"
    },
    {
      "inputs": [],
      "name": "ID_MULTIPLE",
      "outputs": [
        {
          "internalType": "uint256",
          "name": "",
          "type": "uint256"
        }
      ],
      "stateMutability": "view",
      "type": "function"
    },
    {
      "inputs": [
        {
          "internalType": "address",
          "name": "to",
          "type": "address"
        },
        {
          "internalType": "uint256",
          "name": "tokenId",
          "type": "uint256"
        }
      ],
      "name": "approve",
      "outputs": [],
      "stateMutability": "nonpayable",
      "type": "function"
    },
    {
      "inputs": [
        {
          "internalType": "address",
          "name": "owner",
          "type": "address"
        }
      ],
      "name": "balanceOf",
      "outputs": [
        {
          "internalType": "uint256",
          "name": "",
          "type": "uint256"
        }
      ],
      "stateMutability": "view",
      "type": "function"
    },
    {
      "inputs": [
        {
          "components": [
            {
              "internalType": "address",
              "name": "shippingAgent",
              "type": "address"
            },
            {
              "internalType": "address",
              "name": "signer",
              "type": "address"
            },
            {
              "internalType": "uint256",
              "name": "openingTime",
              "type": "uint256"
            },
            {
              "internalType": "uint256",
              "name": "expireTime",
              "type": "uint256"
            },
            {
              "internalType": "uint256",
              "name": "targetMinimum",
              "type": "uint256"
            },
            {
              "internalType": "uint256",
              "name": "targetMaximum",
              "type": "uint256"
            },
            {
              "internalType": "uint256[4]",
              "name": "unitPricePerType",
              "type": "uint256[4]"
            },
            {
              "internalType": "uint256",
              "name": "referralRate",
              "type": "uint256"
            },
            {
              "internalType": "uint256",
              "name": "referralEligibilityValue",
              "type": "uint256"
            },
            {
              "internalType": "address",
              "name": "token",
              "type": "address"
            },
            {
              "internalType": "string",
              "name": "legalContractURI",
              "type": "string"
            }
          ],
          "internalType": "struct CampaignData",
          "name": "_campaignData",
          "type": "tuple"
        },
        {
          "internalType": "string[4]",
          "name": "_productDescription",
          "type": "string[4]"
        },
        {
          "internalType": "address",
          "name": "_metadataService",
          "type": "address"
        }
      ],
      "name": "createCrowdtainer",
      "outputs": [
        {
          "internalType": "address",
          "name": "",
          "type": "address"
        },
        {
          "internalType": "uint256",
          "name": "",
          "type": "uint256"
        }
      ],
      "stateMutability": "nonpayable",
      "type": "function"
    },
    {
      "inputs": [],
      "name": "crowdtainerCount",
      "outputs": [
        {
          "internalType": "uint256",
          "name": "",
          "type": "uint256"
        }
      ],
      "stateMutability": "view",
      "type": "function"
    },
    {
      "inputs": [
        {
          "internalType": "uint256",
          "name": "",
          "type": "uint256"
        }
      ],
      "name": "crowdtainerForId",
      "outputs": [
        {
          "internalType": "address",
          "name": "",
          "type": "address"
        }
      ],
      "stateMutability": "view",
      "type": "function"
    },
    {
      "inputs": [
        {
          "internalType": "uint256",
          "name": "_crowdtainerId",
          "type": "uint256"
        }
      ],
      "name": "crowdtainerIdToAddress",
      "outputs": [
        {
          "internalType": "address",
          "name": "",
          "type": "address"
        }
      ],
      "stateMutability": "view",
      "type": "function"
    },
    {
      "inputs": [
        {
          "internalType": "uint256",
          "name": "tokenId",
          "type": "uint256"
        }
      ],
      "name": "getApproved",
      "outputs": [
        {
          "internalType": "address",
          "name": "",
          "type": "address"
        }
      ],
      "stateMutability": "view",
      "type": "function"
    },
    {
      "inputs": [
        {
          "internalType": "uint256",
          "name": "_tokenId",
          "type": "uint256"
        }
      ],
      "name": "getClaimStatus",
      "outputs": [
        {
          "internalType": "bool",
          "name": "",
          "type": "bool"
        }
      ],
      "stateMutability": "view",
      "type": "function"
    },
    {
      "inputs": [
        {
          "internalType": "bytes",
          "name": "data",
          "type": "bytes"
        }
      ],
      "name": "getParameters",
      "outputs": [
        {
          "internalType": "bytes",
          "name": "",
          "type": "bytes"
        }
      ],
      "stateMutability": "pure",
      "type": "function"
    },
    {
      "inputs": [
        {
          "internalType": "bytes",
          "name": "data",
          "type": "bytes"
        }
      ],
      "name": "getSignature",
      "outputs": [
        {
          "internalType": "bytes4",
          "name": "",
          "type": "bytes4"
        }
      ],
      "stateMutability": "pure",
      "type": "function"
    },
    {
      "inputs": [
        {
          "internalType": "address",
          "name": "",
          "type": "address"
        }
      ],
      "name": "idForCrowdtainer",
      "outputs": [
        {
          "internalType": "uint256",
          "name": "",
          "type": "uint256"
        }
      ],
      "stateMutability": "view",
      "type": "function"
    },
    {
      "inputs": [
        {
          "internalType": "address",
          "name": "owner",
          "type": "address"
        },
        {
          "internalType": "address",
          "name": "operator",
          "type": "address"
        }
      ],
      "name": "isApprovedForAll",
      "outputs": [
        {
          "internalType": "bool",
          "name": "",
          "type": "bool"
        }
      ],
      "stateMutability": "view",
      "type": "function"
    },
    {
      "inputs": [
        {
          "internalType": "address",
          "name": "_crowdtainer",
          "type": "address"
        },
        {
          "internalType": "uint256[4]",
          "name": "_quantities",
          "type": "uint256[4]"
        },
        {
          "internalType": "bool",
          "name": "_enableReferral",
          "type": "bool"
        },
        {
          "internalType": "address",
          "name": "_referrer",
          "type": "address"
        }
      ],
      "name": "join",
      "outputs": [
        {
          "internalType": "uint256",
          "name": "",
          "type": "uint256"
        }
      ],
      "stateMutability": "nonpayable",
      "type": "function"
    },
    {
      "inputs": [
        {
          "internalType": "address",
          "name": "_crowdtainer",
          "type": "address"
        },
        {
          "internalType": "uint256[4]",
          "name": "_quantities",
          "type": "uint256[4]"
        }
      ],
      "name": "join",
      "outputs": [
        {
          "internalType": "uint256",
          "name": "",
          "type": "uint256"
        }
      ],
      "stateMutability": "nonpayable",
      "type": "function"
    },
    {
      "inputs": [
        {
          "internalType": "bytes",
          "name": "result",
          "type": "bytes"
        },
        {
          "internalType": "bytes",
          "name": "extraData",
          "type": "bytes"
        }
      ],
      "name": "joinWithSignature",
      "outputs": [
        {
          "internalType": "uint256",
          "name": "",
          "type": "uint256"
        }
      ],
      "stateMutability": "nonpayable",
      "type": "function"
    },
    {
      "inputs": [
        {
          "internalType": "uint256",
          "name": "_tokenId",
          "type": "uint256"
        }
      ],
      "name": "leave",
      "outputs": [],
      "stateMutability": "nonpayable",
      "type": "function"
    },
    {
      "inputs": [
        {
          "internalType": "uint256",
          "name": "",
          "type": "uint256"
        }
      ],
      "name": "metadataServiceForCrowdatinerId",
      "outputs": [
        {
          "internalType": "address",
          "name": "",
          "type": "address"
        }
      ],
      "stateMutability": "view",
      "type": "function"
    },
    {
      "inputs": [],
      "name": "name",
      "outputs": [
        {
          "internalType": "string",
          "name": "",
          "type": "string"
        }
      ],
      "stateMutability": "view",
      "type": "function"
    },
    {
      "inputs": [
        {
          "internalType": "uint256",
          "name": "tokenId",
          "type": "uint256"
        }
      ],
      "name": "ownerOf",
      "outputs": [
        {
          "internalType": "address",
          "name": "",
          "type": "address"
        }
      ],
      "stateMutability": "view",
      "type": "function"
    },
    {
      "inputs": [
        {
          "internalType": "uint256",
          "name": "",
          "type": "uint256"
        },
        {
          "internalType": "uint256",
          "name": "",
          "type": "uint256"
        }
      ],
      "name": "productDescription",
      "outputs": [
        {
          "internalType": "string",
          "name": "",
          "type": "string"
        }
      ],
      "stateMutability": "view",
      "type": "function"
    },
    {
      "inputs": [
        {
          "internalType": "address",
          "name": "from",
          "type": "address"
        },
        {
          "internalType": "address",
          "name": "to",
          "type": "address"
        },
        {
          "internalType": "uint256",
          "name": "tokenId",
          "type": "uint256"
        }
      ],
      "name": "safeTransferFrom",
      "outputs": [],
      "stateMutability": "nonpayable",
      "type": "function"
    },
    {
      "inputs": [
        {
          "internalType": "address",
          "name": "from",
          "type": "address"
        },
        {
          "internalType": "address",
          "name": "to",
          "type": "address"
        },
        {
          "internalType": "uint256",
          "name": "tokenId",
          "type": "uint256"
        },
        {
          "internalType": "bytes",
          "name": "data",
          "type": "bytes"
        }
      ],
      "name": "safeTransferFrom",
      "outputs": [],
      "stateMutability": "nonpayable",
      "type": "function"
    },
    {
      "inputs": [
        {
          "internalType": "address",
          "name": "operator",
          "type": "address"
        },
        {
          "internalType": "bool",
          "name": "approved",
          "type": "bool"
        }
      ],
      "name": "setApprovalForAll",
      "outputs": [],
      "stateMutability": "nonpayable",
      "type": "function"
    },
    {
      "inputs": [
        {
          "internalType": "uint256",
          "name": "_tokenId",
          "type": "uint256"
        },
        {
          "internalType": "bool",
          "name": "_value",
          "type": "bool"
        }
      ],
      "name": "setClaimStatus",
      "outputs": [],
      "stateMutability": "nonpayable",
      "type": "function"
    },
    {
      "inputs": [
        {
          "internalType": "bytes4",
          "name": "interfaceId",
          "type": "bytes4"
        }
      ],
      "name": "supportsInterface",
      "outputs": [
        {
          "internalType": "bool",
          "name": "",
          "type": "bool"
        }
      ],
      "stateMutability": "view",
      "type": "function"
    },
    {
      "inputs": [],
      "name": "symbol",
      "outputs": [
        {
          "internalType": "string",
          "name": "",
          "type": "string"
        }
      ],
      "stateMutability": "view",
      "type": "function"
    },
    {
      "inputs": [
        {
          "internalType": "uint256",
          "name": "index",
          "type": "uint256"
        }
      ],
      "name": "tokenByIndex",
      "outputs": [
        {
          "internalType": "uint256",
          "name": "",
          "type": "uint256"
        }
      ],
      "stateMutability": "view",
      "type": "function"
    },
    {
      "inputs": [
        {
          "internalType": "uint256",
          "name": "",
          "type": "uint256"
        },
        {
          "internalType": "uint256",
          "name": "",
          "type": "uint256"
        }
      ],
      "name": "tokenIdQuantities",
      "outputs": [
        {
          "internalType": "uint256",
          "name": "",
          "type": "uint256"
        }
      ],
      "stateMutability": "view",
      "type": "function"
    },
    {
      "inputs": [
        {
          "internalType": "uint256",
          "name": "_tokenId",
          "type": "uint256"
        }
      ],
      "name": "tokenIdToCrowdtainerId",
      "outputs": [
        {
          "internalType": "uint256",
          "name": "",
          "type": "uint256"
        }
      ],
      "stateMutability": "pure",
      "type": "function"
    },
    {
      "inputs": [
        {
          "internalType": "address",
          "name": "owner",
          "type": "address"
        },
        {
          "internalType": "uint256",
          "name": "index",
          "type": "uint256"
        }
      ],
      "name": "tokenOfOwnerByIndex",
      "outputs": [
        {
          "internalType": "uint256",
          "name": "",
          "type": "uint256"
        }
      ],
      "stateMutability": "view",
      "type": "function"
    },
    {
      "inputs": [
        {
          "internalType": "uint256",
          "name": "_tokenId",
          "type": "uint256"
        }
      ],
      "name": "tokenURI",
      "outputs": [
        {
          "internalType": "string",
          "name": "",
          "type": "string"
        }
      ],
      "stateMutability": "view",
      "type": "function"
    },
    {
      "inputs": [],
      "name": "totalSupply",
      "outputs": [
        {
          "internalType": "uint256",
          "name": "",
          "type": "uint256"
        }
      ],
      "stateMutability": "view",
      "type": "function"
    },
    {
      "inputs": [
        {
          "internalType": "address",
          "name": "from",
          "type": "address"
        },
        {
          "internalType": "address",
          "name": "to",
          "type": "address"
        },
        {
          "internalType": "uint256",
          "name": "tokenId",
          "type": "uint256"
        }
      ],
      "name": "transferFrom",
      "outputs": [],
      "stateMutability": "nonpayable",
      "type": "function"
    }
  ],
  "transactionHash": "0x46f2821018dd26e71c20b83f885f536619ef9b5f0aeddd0ee039b83ae7305c96",
  "args": [
    "0x0E0c9C12cfb863Fc9C0aFA72d9115b4bd116674d"
  ],
  "numDeployments": 1,
  "solcInputHash": "7eba5076d2310adb6a008573892abd64",
  "bytecode": "0x60a06040523480156200001157600080fd5b50604051620039e0380380620039e08339810160408190526200003491620000d6565b6040518060400160405280600b81526020016a566f75636865727337323160a81b8152506040518060400160405280600381526020016256563160e81b8152508160009081620000859190620001ad565b506001620000948282620001ad565b5050506001600160a01b03811660805260405130907fdd7bf9deccc329033ee50f9e925f9bf2a608eac8950906d19cb2ed39ec61cf3690600090a25062000279565b600060208284031215620000e957600080fd5b81516001600160a01b03811681146200010157600080fd5b9392505050565b634e487b7160e01b600052604160045260246000fd5b600181811c908216806200013357607f821691505b6020821081036200015457634e487b7160e01b600052602260045260246000fd5b50919050565b601f821115620001a857600081815260208120601f850160051c81016020861015620001835750805b601f850160051c820191505b81811015620001a4578281556001016200018f565b5050505b505050565b81516001600160401b03811115620001c957620001c962000108565b620001e181620001da84546200011e565b846200015a565b602080601f831160018114620002195760008415620002005750858301515b600019600386901b1c1916600185901b178555620001a4565b600085815260208120601f198616915b828110156200024a5788860151825594840194600190910190840162000229565b5085821015620002695787850151600019600388901b60f8161c191681555b5050505050600190811b01905550565b60805161374b6200029560003960006111ad015261374b6000f3fe608060405234801561001057600080fd5b50600436106101c65760003560e01c80636df0c83a116100fa578063b88d4fde1161009d578063b88d4fde1461042a578063c87b56dd1461043d578063c91539bc14610450578063ca6d45ca1461045a578063cbe8071214610483578063d4a0f6b81461048c578063da5815321461049f578063db5a0e83146104c0578063e985e9c5146104d357600080fd5b80636df0c83a1461035b57806370a082311461037b5780637169d23b1461038e57806395d89b41146103a1578063a0ae459d146103a9578063a22cb465146103db578063a3b9871a146103ee578063b50223431461040157600080fd5b80632f745c591161016d5780632f745c59146102b0578063351a41c5146102c357806336dbd2f9146102d657806342842e0e146102e9578063464eff50146102fc5780634f6ccce71461030f578063566a2cc2146103225780636352211e1461033557806367dfd4c91461034857600080fd5b806301ffc9a7146101cb57806306fdde03146101f3578063081812fc14610208578063095ea7b3146102335780630b82a21c1461024857806318160ddd146102695780631ed113ae1461027157806323b872dd1461029d575b600080fd5b6101de6101d936600461263e565b6104e6565b60405190151581526020015b60405180910390f35b6101fb610511565b6040516101ea91906126ab565b61021b6102163660046126be565b6105a3565b6040516001600160a01b0390911681526020016101ea565b6102466102413660046126f7565b6105ca565b005b61025b610256366004612723565b6106e4565b6040519081526020016101ea565b60085461025b565b61028461027f366004612786565b610709565b6040516001600160e01b031990911681526020016101ea565b6102466102ab3660046127c7565b610737565b61025b6102be3660046126f7565b610768565b61021b6102d13660046126be565b6107fe565b6101de6102e43660046126be565b610834565b6102466102f73660046127c7565b610857565b61025b61030a366004612827565b610872565b61025b61031d3660046126be565b610ca0565b61025b610330366004612882565b610d33565b61021b6103433660046126be565b610f3c565b6102466103563660046126be565b610f71565b61025b6103693660046128ed565b600e6020526000908152604090205481565b61025b6103893660046128ed565b61103a565b6101fb61039c366004612723565b6110c0565b6101fb61116d565b6103bc6103b73660046129dd565b61117c565b604080516001600160a01b0390931683526020830191909152016101ea565b6102466103e9366004612ac8565b611316565b6102466103fc366004612b01565b611325565b61021b61040f3660046126be565b600d602052600090815260409020546001600160a01b031681565b610246610438366004612b46565b6113dc565b6101fb61044b3660046126be565b611414565b61025b620f424081565b61021b6104683660046126be565b600f602052600090815260409020546001600160a01b031681565b61025b600c5481565b61025b61049a366004612bb1565b611876565b6104b26104ad366004612786565b611885565b6040516101ea929190612c10565b61025b6104ce3660046126be565b6118ae565b6101de6104e1366004612c24565b6118e1565b60006001600160e01b0319821663780e9d6360e01b148061050b575061050b8261190f565b92915050565b60606000805461052090612c52565b80601f016020809104026020016040519081016040528092919081815260200182805461054c90612c52565b80156105995780601f1061056e57610100808354040283529160200191610599565b820191906000526020600020905b81548152906001019060200180831161057c57829003601f168201915b5050505050905090565b60006105ae8261195f565b506000908152600460205260409020546001600160a01b031690565b60006105d582610f3c565b9050806001600160a01b0316836001600160a01b0316036106475760405162461bcd60e51b815260206004820152602160248201527f4552433732313a20617070726f76616c20746f2063757272656e74206f776e656044820152603960f91b60648201526084015b60405180910390fd5b336001600160a01b0382161480610663575061066381336118e1565b6106d55760405162461bcd60e51b815260206004820152603e60248201527f4552433732313a20617070726f76652063616c6c6572206973206e6f7420746f60448201527f6b656e206f776e6572206e6f7220617070726f76656420666f7220616c6c0000606482015260840161063e565b6106df8383611996565b505050565b6010602052816000526040600020816004811061070057600080fd5b01549150829050565b6000600482101561071957600080fd5b610727600460008486612c8c565b61073091612cb6565b9392505050565b6107413382611a04565b61075d5760405162461bcd60e51b815260040161063e90612ce6565b6106df838383611a62565b60006107738361103a565b82106107d55760405162461bcd60e51b815260206004820152602b60248201527f455243373231456e756d657261626c653a206f776e657220696e646578206f7560448201526a74206f6620626f756e647360a81b606482015260840161063e565b506001600160a01b03919091166000908152600660209081526040808320938352929052205490565b6000818152600d60205260408120546001600160a01b03168061050b5760405163ba3f1ed160e01b815260040160405180910390fd5b600881901c6000908152600a6020526040812054600160ff84161b16151561050b565b6106df838383604051806020016040528060008152506113dc565b6001600160a01b0384166000908152600e60205260408120548082036108ab5760405163ba3f1ed160e01b815260040160405180910390fd5b604051630464eff560e41b815286906001600160a01b0382169063464eff50906108df9033908a908a908a90600401612d3d565b600060405180830381600087803b1580156108f957600080fd5b505af192505050801561090a575060015b610bf8573d808015610938576040519150601f19603f3d011682016040523d82523d6000602084013e61093d565b606091505b50604051630f6889d760e11b81526000903090631ed113ae906109649085906004016126ab565b602060405180830381865afa158015610981573d6000803e3d6000fd5b505050506040513d601f19601f820116820180604052508101906109a59190612d7c565b9050630aa90e7d60e41b6001600160e01b0319821601610ad2576000806000806000306001600160a01b031663da581532886040518263ffffffff1660e01b81526004016109f391906126ab565b600060405180830381865afa158015610a10573d6000803e3d6000fd5b505050506040513d6000823e601f3d908101601f19168201604052610a389190810190612dde565b806020019051810190610a4b9190612e12565b94509450945094509450876001600160a01b0316856001600160a01b031614610a87576040516366e98a0360e11b815260040160405180910390fd5b30848463566a2cc260e01b8b8686604051602001610aa793929190612f44565b60408051601f1981840301815290829052630556f18360e41b825261063e9594939291600401612f81565b6304b2976360e51b6001600160e01b0319821601610b9b57604051636d2c0a9960e11b81526000908190309063da58153290610b129087906004016126ab565b600060405180830381865afa158015610b2f573d6000803e3d6000fd5b505050506040513d6000823e601f3d908101601f19168201604052610b579190810190612dde565b806020019051810190610b6a9190613043565b60405163034d689d60e51b81526001600160401b03808416600483015282166024820152919350915060440161063e565b60405162461bcd60e51b815260206004820152602c60248201527f4f7468657220657863657074696f6e207468726f776e2c206d7573742068616c60448201526b3a1032bc32b1baba34b7b71760a11b606482015260840161063e565b6000828152600b6020526040812080548290610c1390613083565b91829055509050620f42408110610c505760405162a4ae4960e51b8152620f424060048201526001600160a01b038916602482015260440161063e565b600081610c6085620f424061309c565b610c6a91906130bb565b6000818152601060205260409020909150610c879089600461250b565b50610c923382611bf7565b93505050505b949350505050565b6000610cab60085490565b8210610d0e5760405162461bcd60e51b815260206004820152602c60248201527f455243373231456e756d657261626c653a20676c6f62616c20696e646578206f60448201526b7574206f6620626f756e647360a01b606482015260840161063e565b60088281548110610d2157610d216130ce565b90600052602060002001549050919050565b6000808080610d44858701876130e4565b919450925090506001600160e01b03198216632b35166160e11b14610d6b57610d6b613145565b60008082806020019051810190610d82919061315b565b50919350915050336001600160a01b03831614610dc3576040516350a5f40560e01b81526001600160a01b038316600482015233602482015260440161063e565b6001600160a01b038516610dd957610dd9613145565b6001600160a01b0385166000908152600e602052604081205490819003610e135760405163ba3f1ed160e01b815260040160405180910390fd5b6000866001600160a01b03163b11610e2d57610e2d613145565b604051632b35166160e11b81526001600160a01b0387169063566a2cc290610e5d908e908e9089906004016131e7565b600060405180830381600087803b158015610e7757600080fd5b505af1158015610e8b573d6000803e3d6000fd5b5050506000828152600b602052604081208054919250908290610ead90613083565b91829055509050620f42408110610eea5760405162a4ae4960e51b8152620f424060048201526001600160a01b038816602482015260440161063e565b600081610efa84620f424061309c565b610f0491906130bb565b6000818152601060205260409020909150610f2190856004612549565b50610f2c8582611bf7565b9c9b505050505050505050505050565b6000818152600260205260408120546001600160a01b03168061050b5760405162461bcd60e51b815260040161063e90613217565b33610f7b82610f3c565b6001600160a01b031614610fa257604051639d6cfcf960e01b815260040160405180910390fd5b6000610fb06102d1836118ae565b604051635f6fbbd360e11b815233600482015290915081906001600160a01b0382169063bedf77a690602401600060405180830381600087803b158015610ff657600080fd5b505af115801561100a573d6000803e3d6000fd5b5050506000848152601060205260408120818155600181018290556002810182905560030155506106df83611c11565b60006001600160a01b0382166110a45760405162461bcd60e51b815260206004820152602960248201527f4552433732313a2061646472657373207a65726f206973206e6f7420612076616044820152683634b21037bbb732b960b91b606482015260840161063e565b506001600160a01b031660009081526003602052604090205490565b601160205281600052604060002081600481106110dc57600080fd5b0180549092506110ec9150612c52565b80601f016020809104026020016040519081016040528092919081815260200182805461111890612c52565b80156111655780601f1061113a57610100808354040283529160200191611165565b820191906000526020600020905b81548152906001019060200180831161114857829003601f168201915b505050505081565b60606001805461052090612c52565b6000806001600160a01b0383166111a6576040516309ccb6ed60e41b815260040160405180910390fd5b60006111d17f0000000000000000000000000000000000000000000000000000000000000000611ca6565b60405163708c456160e01b81529091506001600160a01b0382169063708c4561906112029030908a9060040161328e565b600060405180830381600087803b15801561121c57600080fd5b505af1158015611230573d6000803e3d6000fd5b50505050600c6000815461124390613083565b91829055506001600160a01b0382166000818152600e6020908152604080832094909455600c80548352600d825284832080546001600160a01b0319169094179093559154815260119091522061129c90866004612577565b50600c80546000908152600f602090815260409182902080546001600160a01b0319166001600160a01b038981169190911790915592549151918252918316917f19d6f90297684f8b888bfdd40dece239ff62def4dd8aedd00245b6c846853b97910160405180910390a2600c5490969095509350505050565b611321338383611d43565b5050565b60006113336102d1846118ae565b905060008190506000816001600160a01b031663cf0840566040518163ffffffff1660e01b8152600401602060405180830381865afa15801561137a573d6000803e3d6000fd5b505050506040513d601f19601f8201168201806040525081019061139e919061337b565b9050336001600160a01b038216146113c957604051631ca2636960e11b815260040160405180910390fd5b6113d5600a8686611e0d565b5050505050565b6113e63383611a04565b6114025760405162461bcd60e51b815260040161063e90612ce6565b61140e84848484611e5c565b50505050565b60606000611421836118ae565b9050600061142e826107fe565b905060008190506000816001600160a01b031663c66301b26040518163ffffffff1660e01b8152600401602060405180830381865afa158015611475573d6000803e3d6000fd5b505050506040513d601f19601f820116820180604052508101906114999190613398565b6000858152600f60205260408082205481516080810192839052631e1b257360e01b909252608482018390529293506001600160a01b039283169281908616631e1b257360a48301602060405180830381865afa1580156114fe573d6000803e3d6000fd5b505050506040513d601f19601f820116820180604052508101906115229190613398565b8152604051631e1b257360e01b8152600160048201526020909101906001600160a01b03871690631e1b257390602401602060405180830381865afa15801561156f573d6000803e3d6000fd5b505050506040513d601f19601f820116820180604052508101906115939190613398565b8152604051631e1b257360e01b8152600260048201526020909101906001600160a01b03871690631e1b257390602401602060405180830381865afa1580156115e0573d6000803e3d6000fd5b505050506040513d601f19601f820116820180604052508101906116049190613398565b8152604051631e1b257360e01b8152600360048201526020909101906001600160a01b03871690631e1b257390602401602060405180830381865afa158015611651573d6000803e3d6000fd5b505050506040513d601f19601f820116820180604052508101906116759190613398565b81525090506000604051806101000160405280888152602001620f424061169b8c6118ae565b6116a5919061309c565b6116af908c6133b1565b81526020016116bd8b610f3c565b6001600160a01b031681526020016116d48b610834565b15158152602080820185905260008c8152601090915260409081902081516080810180845292909301929160049082845b8154815260200190600101908083116117055750505091835250506000898152601160209081526040808320815160808101909252919093019291600490835b828210156117e857838201805461175b90612c52565b80601f016020809104026020016040519081016040528092919081815260200182805461178790612c52565b80156117d45780601f106117a9576101008083540402835291602001916117d4565b820191906000526020600020905b8154815290600101906020018083116117b757829003601f168201915b505050505081526020019060010190611745565b505050908252506020018590526040516326e4c03d60e21b81529091506001600160a01b03841690639b9300f49061182490849060040161342c565b600060405180830381865afa158015611841573d6000803e3d6000fd5b505050506040513d6000823e601f3d908101601f191682016040526118699190810190612dde565b9998505050505050505050565b60006107308383600080610872565b3660006004831161189557600080fd5b6118a28360048187612c8c565b915091505b9250929050565b6000816000036118d45760405163ed15e6cf60e01b81526004810183905260240161063e565b61050b620f4240836134c1565b6001600160a01b03918216600090815260056020908152604080832093909416825291909152205460ff1690565b60006001600160e01b031982166380ac58cd60e01b148061194057506001600160e01b03198216635b5e139f60e01b145b8061050b57506301ffc9a760e01b6001600160e01b031983161461050b565b6000818152600260205260409020546001600160a01b03166119935760405162461bcd60e51b815260040161063e90613217565b50565b600081815260046020526040902080546001600160a01b0319166001600160a01b03841690811790915581906119cb82610f3c565b6001600160a01b03167f8c5be1e5ebec7d5bd14f71427d1e84f3dd0314c0f7b2291e5b200ac8c7c3b92560405160405180910390a45050565b600080611a1083610f3c565b9050806001600160a01b0316846001600160a01b03161480611a375750611a3781856118e1565b80610c985750836001600160a01b0316611a50846105a3565b6001600160a01b031614949350505050565b826001600160a01b0316611a7582610f3c565b6001600160a01b031614611ad95760405162461bcd60e51b815260206004820152602560248201527f4552433732313a207472616e736665722066726f6d20696e636f72726563742060448201526437bbb732b960d91b606482015260840161063e565b6001600160a01b038216611b3b5760405162461bcd60e51b8152602060048201526024808201527f4552433732313a207472616e7366657220746f20746865207a65726f206164646044820152637265737360e01b606482015260840161063e565b611b46838383611e8f565b611b51600082611996565b6001600160a01b0383166000908152600360205260408120805460019290611b7a9084906133b1565b90915550506001600160a01b0382166000908152600360205260408120805460019290611ba89084906130bb565b909155505060008181526002602052604080822080546001600160a01b0319166001600160a01b0386811691821790925591518493918716916000805160206136f683398151915291a4505050565b611321828260405180602001604052806000815250612056565b6000611c1c82610f3c565b9050611c2a81600084611e8f565b611c35600083611996565b6001600160a01b0381166000908152600360205260408120805460019290611c5e9084906133b1565b909155505060008281526002602052604080822080546001600160a01b0319169055518391906001600160a01b038416906000805160206136f6833981519152908390a45050565b6000604051733d602d80600a3d3981f3363d3d373d3d3d363d7360601b81528260601b60148201526e5af43d82803e903d91602b57fd5bf360881b60288201526037816000f09150506001600160a01b038116611d3e5760405162461bcd60e51b8152602060048201526016602482015275115490cc4c4d8dce8818dc99585d194819985a5b195960521b604482015260640161063e565b919050565b816001600160a01b0316836001600160a01b031603611da05760405162461bcd60e51b815260206004820152601960248201527822a9219b99189d1030b8383937bb32903a379031b0b63632b960391b604482015260640161063e565b6001600160a01b03838116600081815260056020908152604080832094871680845294825291829020805460ff191686151590811790915591519182527f17307eab39ab6107e8899845ad3d59bd9653f200f220920489ca2b5937696c31910160405180910390a3505050565b8015611e3757600882901c60009081526020849052604090208054600160ff85161b179055505050565b600882901c60009081526020849052604090208054600160ff85161b19169055505050565b611e67848484611a62565b611e7384848484612089565b61140e5760405162461bcd60e51b815260040161063e906134e3565b611e9a838383612187565b60006001600160a01b0384161580611eb957506001600160a01b038316155b90508015611ec75750505050565b6000611ed56102d1846118ae565b9050806001816001600160a01b0316637855d30c6040518163ffffffff1660e01b8152600401602060405180830381865afa158015611f18573d6000803e3d6000fd5b505050506040513d601f19601f82011682018060405250810190611f3c919061354b565b6003811115611f4d57611f4d613535565b1480611fcb57506000816001600160a01b0316637855d30c6040518163ffffffff1660e01b8152600401602060405180830381865afa158015611f94573d6000803e3d6000fd5b505050506040513d601f19601f82011682018060405250810190611fb8919061354b565b6003811115611fc957611fc9613535565b145b1561204e5780816001600160a01b0316637855d30c6040518163ffffffff1660e01b8152600401602060405180830381865afa15801561200f573d6000803e3d6000fd5b505050506040513d601f19601f82011682018060405250810190612033919061354b565b604051630e0bf90360e41b815260040161063e92919061356c565b505050505050565b612060838361223f565b61206d6000848484612089565b6106df5760405162461bcd60e51b815260040161063e906134e3565b60006001600160a01b0384163b1561217f57604051630a85bd0160e11b81526001600160a01b0385169063150b7a02906120cd9033908990889088906004016135a7565b6020604051808303816000875af1925050508015612108575060408051601f3d908101601f1916820190925261210591810190612d7c565b60015b612165573d808015612136576040519150601f19603f3d011682016040523d82523d6000602084013e61213b565b606091505b50805160000361215d5760405162461bcd60e51b815260040161063e906134e3565b805181602001fd5b6001600160e01b031916630a85bd0160e11b149050610c98565b506001610c98565b6001600160a01b0383166121e2576121dd81600880546000838152600960205260408120829055600182018355919091527ff3f7a9fe364faab93b216da50a3214154f22a0a2b415b23a84c8169e8b636ee30155565b612205565b816001600160a01b0316836001600160a01b03161461220557612205838261237b565b6001600160a01b03821661221c576106df81612418565b826001600160a01b0316826001600160a01b0316146106df576106df82826124c7565b6001600160a01b0382166122955760405162461bcd60e51b815260206004820181905260248201527f4552433732313a206d696e7420746f20746865207a65726f2061646472657373604482015260640161063e565b6000818152600260205260409020546001600160a01b0316156122fa5760405162461bcd60e51b815260206004820152601c60248201527f4552433732313a20746f6b656e20616c7265616479206d696e74656400000000604482015260640161063e565b61230660008383611e8f565b6001600160a01b038216600090815260036020526040812080546001929061232f9084906130bb565b909155505060008181526002602052604080822080546001600160a01b0319166001600160a01b03861690811790915590518392906000805160206136f6833981519152908290a45050565b600060016123888461103a565b61239291906133b1565b6000838152600760205260409020549091508082146123e5576001600160a01b03841660009081526006602090815260408083208584528252808320548484528184208190558352600790915290208190555b5060009182526007602090815260408084208490556001600160a01b039094168352600681528383209183525290812055565b60085460009061242a906001906133b1565b60008381526009602052604081205460088054939450909284908110612452576124526130ce565b906000526020600020015490508060088381548110612473576124736130ce565b60009182526020808320909101929092558281526009909152604080822084905585825281205560088054806124ab576124ab6135da565b6001900381819060005260206000200160009055905550505050565b60006124d28361103a565b6001600160a01b039093166000908152600660209081526040808320868452825280832085905593825260079052919091209190915550565b8260048101928215612539579160200282015b8281111561253957823582559160200191906001019061251e565b506125459291506125bc565b5090565b8260048101928215612539579160200282015b8281111561253957825182559160200191906001019061255c565b82600481019282156125b0579160200282015b828111156125b057825182906125a09082613636565b509160200191906001019061258a565b506125459291506125d1565b5b8082111561254557600081556001016125bd565b808211156125455760006125e582826125ee565b506001016125d1565b5080546125fa90612c52565b6000825580601f1061260a575050565b601f01602090049060005260206000209081019061199391906125bc565b6001600160e01b03198116811461199357600080fd5b60006020828403121561265057600080fd5b813561073081612628565b60005b8381101561267657818101518382015260200161265e565b50506000910152565b6000815180845261269781602086016020860161265b565b601f01601f19169290920160200192915050565b602081526000610730602083018461267f565b6000602082840312156126d057600080fd5b5035919050565b6001600160a01b038116811461199357600080fd5b8035611d3e816126d7565b6000806040838503121561270a57600080fd5b8235612715816126d7565b946020939093013593505050565b6000806040838503121561273657600080fd5b50508035926020909101359150565b60008083601f84011261275757600080fd5b5081356001600160401b0381111561276e57600080fd5b6020830191508360208285010111156118a757600080fd5b6000806020838503121561279957600080fd5b82356001600160401b038111156127af57600080fd5b6127bb85828601612745565b90969095509350505050565b6000806000606084860312156127dc57600080fd5b83356127e7816126d7565b925060208401356127f7816126d7565b929592945050506040919091013590565b806080810183101561050b57600080fd5b801515811461199357600080fd5b60008060008060e0858703121561283d57600080fd5b8435612848816126d7565b93506128578660208701612808565b925060a085013561286781612819565b915060c0850135612877816126d7565b939692955090935050565b6000806000806040858703121561289857600080fd5b84356001600160401b03808211156128af57600080fd5b6128bb88838901612745565b909650945060208701359150808211156128d457600080fd5b506128e187828801612745565b95989497509550505050565b6000602082840312156128ff57600080fd5b8135610730816126d7565b634e487b7160e01b600052604160045260246000fd5b604051608081016001600160401b03811182821017156129425761294261290a565b60405290565b604051601f8201601f191681016001600160401b03811182821017156129705761297061290a565b604052919050565b60006001600160401b038211156129915761299161290a565b50601f01601f191660200190565b60006129b26129ad84612978565b612948565b90508281528383830111156129c657600080fd5b828260208301376000602084830101529392505050565b6000806000606084860312156129f257600080fd5b83356001600160401b0380821115612a0957600080fd5b908501906101c08288031215612a1e57600080fd5b9093506020908582013581811115612a3557600080fd5b8601601f8082018913612a4757600080fd5b612a4f612920565b80608084018b811115612a6157600080fd5b845b81811015612aa857803587811115612a7b5760008081fd5b86018581018e13612a8c5760008081fd5b612a9a8e82358b840161299f565b855250928701928701612a63565b5050809750505050505050612abf604085016126ec565b90509250925092565b60008060408385031215612adb57600080fd5b8235612ae6816126d7565b91506020830135612af681612819565b809150509250929050565b60008060408385031215612b1457600080fd5b823591506020830135612af681612819565b600082601f830112612b3757600080fd5b6107308383356020850161299f565b60008060008060808587031215612b5c57600080fd5b8435612b67816126d7565b93506020850135612b77816126d7565b92506040850135915060608501356001600160401b03811115612b9957600080fd5b612ba587828801612b26565b91505092959194509250565b60008060a08385031215612bc457600080fd5b8235612bcf816126d7565b9150612bde8460208501612808565b90509250929050565b81835281816020850137506000828201602090810191909152601f909101601f19169091010190565b602081526000610c98602083018486612be7565b60008060408385031215612c3757600080fd5b8235612c42816126d7565b91506020830135612af6816126d7565b600181811c90821680612c6657607f821691505b602082108103612c8657634e487b7160e01b600052602260045260246000fd5b50919050565b60008085851115612c9c57600080fd5b83861115612ca957600080fd5b5050820193919092039150565b6001600160e01b03198135818116916004851015612cde5780818660040360031b1b83161692505b505092915050565b6020808252602e908201527f4552433732313a2063616c6c6572206973206e6f7420746f6b656e206f776e6560408201526d1c881b9bdc88185c1c1c9bdd995960921b606082015260800190565b60808183375050565b6001600160a01b03858116825260e0820190608086602085013784151560a084015280841660c08401525095945050505050565b8051611d3e81612628565b600060208284031215612d8e57600080fd5b815161073081612628565b600082601f830112612daa57600080fd5b8151612db86129ad82612978565b818152846020838601011115612dcd57600080fd5b610c9882602083016020870161265b565b600060208284031215612df057600080fd5b81516001600160401b03811115612e0657600080fd5b610c9884828501612d99565b600080600080600060a08688031215612e2a57600080fd5b8551612e35816126d7565b809550506020808701516001600160401b0380821115612e5457600080fd5b818901915089601f830112612e6857600080fd5b815181811115612e7a57612e7a61290a565b8060051b612e89858201612948565b918252838101850191858101908d841115612ea357600080fd5b86860192505b83831015612edf57825185811115612ec15760008081fd5b612ecf8f89838a0101612d99565b8352509186019190860190612ea9565b60408d0151909a50955050505080831115612ef957600080fd5b612f058a848b01612d99565b9550612f1360608a01612d71565b94506080890151925080831115612f2957600080fd5b5050612f3788828901612d99565b9150509295509295909350565b6001600160a01b03841681526001600160e01b031983166020820152606060408201819052600090612f789083018461267f565b95945050505050565b600060a0820160018060a01b0388168352602060a08185015281885180845260c08601915060c08160051b8701019350828a0160005b82811015612fe55760bf19888703018452612fd386835161267f565b95509284019290840190600101612fb7565b50505050508281036040840152612ffc818761267f565b6001600160e01b03198616606085015290508281036080840152613020818561267f565b98975050505050505050565b80516001600160401b0381168114611d3e57600080fd5b6000806040838503121561305657600080fd5b61305f8361302c565b9150612bde6020840161302c565b634e487b7160e01b600052601160045260246000fd5b6000600182016130955761309561306d565b5060010190565b60008160001904831182151516156130b6576130b661306d565b500290565b8082018082111561050b5761050b61306d565b634e487b7160e01b600052603260045260246000fd5b6000806000606084860312156130f957600080fd5b8335613104816126d7565b9250602084013561311481612628565b915060408401356001600160401b0381111561312f57600080fd5b61313b86828701612b26565b9150509250925092565b634e487b7160e01b600052600160045260246000fd5b60008060008060e0858703121561317157600080fd5b845161317c816126d7565b93506020603f8601871361318f57600080fd5b613197612920565b8060a08801898111156131a957600080fd5b8389015b818110156131c457805184529284019284016131ad565b505190955091506131d6905081612819565b60c0860151909250612877816126d7565b6040815260006131fb604083018587612be7565b828103602084015261320d818561267f565b9695505050505050565b602080825260189082015277115490cdcc8c4e881a5b9d985b1a59081d1bdad95b88125160421b604082015260600190565b6000808335601e1984360301811261326057600080fd5b83016020810192503590506001600160401b0381111561327f57600080fd5b8036038213156118a757600080fd5b6001600160a01b03831681526040602082018190526132bf9082016132b2846126ec565b6001600160a01b03169052565b60006132cd602084016126ec565b6001600160a01b03811660608401525060408301356080830152606083013560a0830152608083013560c083015260a083013560e0830152613316610100830160c08501612d34565b610180610140840135818401526101a06101608501358185015261333b8286016126ec565b91506101c0613354818601846001600160a01b03169052565b61336082870187613249565b93509150806101e08601525061320d61020085018383612be7565b60006020828403121561338d57600080fd5b8151610730816126d7565b6000602082840312156133aa57600080fd5b5051919050565b8181038181111561050b5761050b61306d565b8060005b600481101561140e5781518452602093840193909101906001016133c8565b600082608081018360005b600481101561342157838303875261340b83835161267f565b60209788019790935091909101906001016133f2565b509095945050505050565b60208152815160208201526020820151604082015260018060a01b03604083015116606082015260006060830151613468608084018215159052565b50608083015161347b60a08401826133c4565b5060a083015161348f6101208401826133c4565b5060c08301516101c0806101a08501526134ad6101e08501836133e7565b60e095909501519301929092525090919050565b6000826134de57634e487b7160e01b600052601260045260246000fd5b500490565b60208082526032908201527f4552433732313a207472616e7366657220746f206e6f6e20455243373231526560408201527131b2b4bb32b91034b6b83632b6b2b73a32b960711b606082015260800190565b634e487b7160e01b600052602160045260246000fd5b60006020828403121561355d57600080fd5b81516004811061073057600080fd5b6001600160a01b0383168152604081016004831061359a57634e487b7160e01b600052602160045260246000fd5b8260208301529392505050565b6001600160a01b038581168252841660208201526040810183905260806060820181905260009061320d9083018461267f565b634e487b7160e01b600052603160045260246000fd5b601f8211156106df57600081815260208120601f850160051c810160208610156136175750805b601f850160051c820191505b8181101561204e57828155600101613623565b81516001600160401b0381111561364f5761364f61290a565b6136638161365d8454612c52565b846135f0565b602080601f83116001811461369857600084156136805750858301515b600019600386901b1c1916600185901b17855561204e565b600085815260208120601f198616915b828110156136c7578886015182559484019460019091019084016136a8565b50858210156136e55787850151600019600388901b60f8161c191681555b5050505050600190811b0190555056feddf252ad1be2c89b69c2b068fc378daa952ba7f163c4a11628f55a4df523b3efa2646970667358221220bf59a3553ef56b108b2bf84c4477a347f458a9077e8f9ae99f13302bb52fa6c864736f6c63430008100033",
  "devdoc": {
    "author": "Crowdtainer.eth",
    "details": "Essentially, a Crowdtainer factory with ERC-721 compliance.Each token id represents a \"sold voucher\", a set of one or more products or services of a specific Crowdtainer.",
    "kind": "dev",
    "methods": {
      "approve(address,uint256)": {
        "details": "See {IERC721-approve}."
      },
      "balanceOf(address)": {
        "details": "See {IERC721-balanceOf}."
      },
      "constructor": {
        "details": "Uses contract factory pattern.",
        "params": {
          "_crowdtainerImplementation": "the address of the reference implementation."
        }
      },
      "createCrowdtainer((address,address,uint256,uint256,uint256,uint256,uint256[4],uint256,uint256,address,string),string[4],address)": {
        "params": {
          "_campaignData": "Data defining all rules and values of this Crowdtainer instance.",
          "_metadataService": "Contract address used to fetch metadata about the token.",
          "_productDescription": "An array with the description of each item."
        },
        "returns": {
          "_0": "crowdtainerId The contract address and id for the created Crowdtainer."
        }
      },
      "getApproved(uint256)": {
        "details": "See {IERC721-getApproved}."
      },
      "isApprovedForAll(address,address)": {
        "details": "See {IERC721-isApprovedForAll}."
      },
      "join(address,uint256[4])": {
        "details": "This method is present to make wallet UX more friendly, by requiring fewer parameters (for projects with referral system disabled).Requires IERC20 permit.",
        "params": {
          "_crowdtainer": "Crowdtainer project address.",
          "_quantities": "Array with the number of units desired for each product."
        }
      },
      "join(address,uint256[4],bool,address)": {
        "details": "Requires IERC20 permit.referrer is the wallet address of a previous participant.if `enableReferral` is true, and the user decides to leave after the wallet has been used to claim a discount,       then the full value can't be claimed if deciding to leave the project.A same user is not allowed to increase the order amounts (i.e., by calling join multiple times).      To 'update' an order, the user must first 'leave' then join again with the new values.",
        "params": {
          "_crowdtainer": "Crowdtainer project address.",
          "_enableReferral": "Informs whether the user would like to be eligible to collect rewards for being referred.",
          "_quantities": "Array with the number of units desired for each product.",
          "_referrer": "Optional referral code to be used to claim a discount."
        },
        "returns": {
          "_0": "The token id that represents the created voucher / ownership."
        }
      },
      "joinWithSignature(bytes,bytes)": {
        "details": "Requires IRC20 permit.This function is called automatically by EIP-3668-compliant clients.",
        "params": {
          "extraData": "ABI encoded (address, bytes4, bytes), 3rd parameter contains encoded values for Crowdtainer._join() method.",
          "result": "ABI encoded (uint64, bytes) for signature time validity and the signature itself."
        }
      },
      "leave(uint256)": {
        "details": "Only allowed if the respective Crowdtainer is in active funding state."
      },
      "name()": {
        "details": "See {IERC721Metadata-name}."
      },
      "ownerOf(uint256)": {
        "details": "See {IERC721-ownerOf}."
      },
      "safeTransferFrom(address,address,uint256)": {
        "details": "See {IERC721-safeTransferFrom}."
      },
      "safeTransferFrom(address,address,uint256,bytes)": {
        "details": "See {IERC721-safeTransferFrom}."
      },
      "setApprovalForAll(address,bool)": {
        "details": "See {IERC721-setApprovalForAll}."
      },
      "supportsInterface(bytes4)": {
        "details": "See {IERC165-supportsInterface}."
      },
      "symbol()": {
        "details": "See {IERC721Metadata-symbol}."
      },
      "tokenByIndex(uint256)": {
        "details": "See {IERC721Enumerable-tokenByIndex}."
      },
      "tokenOfOwnerByIndex(address,uint256)": {
        "details": "See {IERC721Enumerable-tokenOfOwnerByIndex}."
      },
      "tokenURI(uint256)": {
        "params": {
          "_tokenId": "The encoded voucher token id."
        },
        "returns": {
          "_0": "Token URI String."
        }
      },
      "totalSupply()": {
        "details": "See {IERC721Enumerable-totalSupply}."
      },
      "transferFrom(address,address,uint256)": {
        "details": "See {IERC721-transferFrom}."
      }
    },
    "title": "Crowdtainer's project manager contract.",
    "version": 1
  },
  "userdoc": {
    "kind": "user",
    "methods": {
      "constructor": {
        "notice": "Create and deploy a new Crowdtainer manager."
      },
      "createCrowdtainer((address,address,uint256,uint256,uint256,uint256,uint256[4],uint256,uint256,address,string),string[4],address)": {
        "notice": "Create and deploy a new Crowdtainer."
      },
      "join(address,uint256[4])": {
        "notice": "Join the specified Crowdtainer project."
      },
      "join(address,uint256[4],bool,address)": {
        "notice": "Join the specified Crowdtainer project with optional referral and discount."
      },
      "joinWithSignature(bytes,bytes)": {
        "notice": "Allows joining by means of CCIP-READ (EIP-3668)."
      },
      "leave(uint256)": {
        "notice": "Returns the specified voucher and withdraw all deposited funds given when joining the Crowdtainer.Calling this method signals that the participant is no longer interested in the project."
      },
      "tokenURI(uint256)": {
        "notice": "Get the metadata representation."
      }
    },
    "notice": "Manages Crowdtainer projects and ownership of its product/services by participants.",
    "version": 1
  },
  "storageLayout": {
    "storage": [
      {
        "astId": 694,
        "contract": "src/contracts/Vouchers721.sol:Vouchers721",
        "label": "_name",
        "offset": 0,
        "slot": "0",
        "type": "t_string_storage"
      },
      {
        "astId": 696,
        "contract": "src/contracts/Vouchers721.sol:Vouchers721",
        "label": "_symbol",
        "offset": 0,
        "slot": "1",
        "type": "t_string_storage"
      },
      {
        "astId": 700,
        "contract": "src/contracts/Vouchers721.sol:Vouchers721",
        "label": "_owners",
        "offset": 0,
        "slot": "2",
        "type": "t_mapping(t_uint256,t_address)"
      },
      {
        "astId": 704,
        "contract": "src/contracts/Vouchers721.sol:Vouchers721",
        "label": "_balances",
        "offset": 0,
        "slot": "3",
        "type": "t_mapping(t_address,t_uint256)"
      },
      {
        "astId": 708,
        "contract": "src/contracts/Vouchers721.sol:Vouchers721",
        "label": "_tokenApprovals",
        "offset": 0,
        "slot": "4",
        "type": "t_mapping(t_uint256,t_address)"
      },
      {
        "astId": 714,
        "contract": "src/contracts/Vouchers721.sol:Vouchers721",
        "label": "_operatorApprovals",
        "offset": 0,
        "slot": "5",
        "type": "t_mapping(t_address,t_mapping(t_address,t_bool))"
      },
      {
        "astId": 1684,
        "contract": "src/contracts/Vouchers721.sol:Vouchers721",
        "label": "_ownedTokens",
        "offset": 0,
        "slot": "6",
        "type": "t_mapping(t_address,t_mapping(t_uint256,t_uint256))"
      },
      {
        "astId": 1688,
        "contract": "src/contracts/Vouchers721.sol:Vouchers721",
        "label": "_ownedTokensIndex",
        "offset": 0,
        "slot": "7",
        "type": "t_mapping(t_uint256,t_uint256)"
      },
      {
        "astId": 1691,
        "contract": "src/contracts/Vouchers721.sol:Vouchers721",
        "label": "_allTokens",
        "offset": 0,
        "slot": "8",
        "type": "t_array(t_uint256)dyn_storage"
      },
      {
        "astId": 1695,
        "contract": "src/contracts/Vouchers721.sol:Vouchers721",
        "label": "_allTokensIndex",
        "offset": 0,
        "slot": "9",
        "type": "t_mapping(t_uint256,t_uint256)"
      },
      {
        "astId": 5702,
        "contract": "src/contracts/Vouchers721.sol:Vouchers721",
        "label": "claimed",
        "offset": 0,
        "slot": "10",
        "type": "t_struct(BitMap)3087_storage"
      },
      {
        "astId": 5706,
        "contract": "src/contracts/Vouchers721.sol:Vouchers721",
        "label": "nextTokenIdForCrowdtainer",
        "offset": 0,
        "slot": "11",
        "type": "t_mapping(t_uint256,t_uint256)"
      },
      {
        "astId": 5708,
        "contract": "src/contracts/Vouchers721.sol:Vouchers721",
        "label": "crowdtainerCount",
        "offset": 0,
        "slot": "12",
        "type": "t_uint256"
      },
      {
        "astId": 5714,
        "contract": "src/contracts/Vouchers721.sol:Vouchers721",
        "label": "crowdtainerForId",
        "offset": 0,
        "slot": "13",
        "type": "t_mapping(t_uint256,t_address)"
      },
      {
        "astId": 5718,
        "contract": "src/contracts/Vouchers721.sol:Vouchers721",
        "label": "idForCrowdtainer",
        "offset": 0,
        "slot": "14",
        "type": "t_mapping(t_address,t_uint256)"
      },
      {
        "astId": 5722,
        "contract": "src/contracts/Vouchers721.sol:Vouchers721",
        "label": "metadataServiceForCrowdatinerId",
        "offset": 0,
        "slot": "15",
        "type": "t_mapping(t_uint256,t_address)"
      },
      {
        "astId": 5728,
        "contract": "src/contracts/Vouchers721.sol:Vouchers721",
        "label": "tokenIdQuantities",
        "offset": 0,
        "slot": "16",
        "type": "t_mapping(t_uint256,t_array(t_uint256)4_storage)"
      },
      {
        "astId": 5734,
        "contract": "src/contracts/Vouchers721.sol:Vouchers721",
        "label": "productDescription",
        "offset": 0,
        "slot": "17",
        "type": "t_mapping(t_uint256,t_array(t_string_storage)4_storage)"
      }
    ],
    "types": {
      "t_address": {
        "encoding": "inplace",
        "label": "address",
        "numberOfBytes": "20"
      },
      "t_array(t_string_storage)4_storage": {
        "base": "t_string_storage",
        "encoding": "inplace",
        "label": "string[4]",
        "numberOfBytes": "128"
      },
      "t_array(t_uint256)4_storage": {
        "base": "t_uint256",
        "encoding": "inplace",
        "label": "uint256[4]",
        "numberOfBytes": "128"
      },
      "t_array(t_uint256)dyn_storage": {
        "base": "t_uint256",
        "encoding": "dynamic_array",
        "label": "uint256[]",
        "numberOfBytes": "32"
      },
      "t_bool": {
        "encoding": "inplace",
        "label": "bool",
        "numberOfBytes": "1"
      },
      "t_mapping(t_address,t_bool)": {
        "encoding": "mapping",
        "key": "t_address",
        "label": "mapping(address => bool)",
        "numberOfBytes": "32",
        "value": "t_bool"
      },
      "t_mapping(t_address,t_mapping(t_address,t_bool))": {
        "encoding": "mapping",
        "key": "t_address",
        "label": "mapping(address => mapping(address => bool))",
        "numberOfBytes": "32",
        "value": "t_mapping(t_address,t_bool)"
      },
      "t_mapping(t_address,t_mapping(t_uint256,t_uint256))": {
        "encoding": "mapping",
        "key": "t_address",
        "label": "mapping(address => mapping(uint256 => uint256))",
        "numberOfBytes": "32",
        "value": "t_mapping(t_uint256,t_uint256)"
      },
      "t_mapping(t_address,t_uint256)": {
        "encoding": "mapping",
        "key": "t_address",
        "label": "mapping(address => uint256)",
        "numberOfBytes": "32",
        "value": "t_uint256"
      },
      "t_mapping(t_uint256,t_address)": {
        "encoding": "mapping",
        "key": "t_uint256",
        "label": "mapping(uint256 => address)",
        "numberOfBytes": "32",
        "value": "t_address"
      },
      "t_mapping(t_uint256,t_array(t_string_storage)4_storage)": {
        "encoding": "mapping",
        "key": "t_uint256",
        "label": "mapping(uint256 => string[4])",
        "numberOfBytes": "32",
        "value": "t_array(t_string_storage)4_storage"
      },
      "t_mapping(t_uint256,t_array(t_uint256)4_storage)": {
        "encoding": "mapping",
        "key": "t_uint256",
        "label": "mapping(uint256 => uint256[4])",
        "numberOfBytes": "32",
        "value": "t_array(t_uint256)4_storage"
      },
      "t_mapping(t_uint256,t_uint256)": {
        "encoding": "mapping",
        "key": "t_uint256",
        "label": "mapping(uint256 => uint256)",
        "numberOfBytes": "32",
        "value": "t_uint256"
      },
      "t_string_storage": {
        "encoding": "bytes",
        "label": "string",
        "numberOfBytes": "32"
      },
      "t_struct(BitMap)3087_storage": {
        "encoding": "inplace",
        "label": "struct BitMaps.BitMap",
        "members": [
          {
            "astId": 3086,
            "contract": "src/contracts/Vouchers721.sol:Vouchers721",
            "label": "_data",
            "offset": 0,
            "slot": "0",
            "type": "t_mapping(t_uint256,t_uint256)"
          }
        ],
        "numberOfBytes": "32"
      },
      "t_uint256": {
        "encoding": "inplace",
        "label": "uint256",
        "numberOfBytes": "32"
      }
    }
  }
}